{"abi":[{"type":"constructor","inputs":[],"stateMutability":"payable"},{"type":"function","name":"crytic_user_cant_gain_value","inputs":[],"outputs":[{"name":"","type":"bool","internalType":"bool"}],"stateMutability":"nonpayable"},{"type":"function","name":"eRC20_approve","inputs":[{"name":"spender","type":"address","internalType":"address"},{"name":"amount","type":"uint256","internalType":"uint256"}],"outputs":[],"stateMutability":"nonpayable"},{"type":"function","name":"eRC20_transfer","inputs":[{"name":"to","type":"address","internalType":"address"},{"name":"amount","type":"uint256","internalType":"uint256"}],"outputs":[],"stateMutability":"nonpayable"},{"type":"function","name":"eRC20_transferFrom","inputs":[{"name":"from","type":"address","internalType":"address"},{"name":"to","type":"address","internalType":"address"},{"name":"amount","type":"uint256","internalType":"uint256"}],"outputs":[],"stateMutability":"nonpayable"},{"type":"function","name":"exchange_addLiquidity","inputs":[{"name":"_baseTokenQtyDesired","type":"uint256","internalType":"uint256"},{"name":"_quoteTokenQtyDesired","type":"uint256","internalType":"uint256"},{"name":"_baseTokenQtyMin","type":"uint256","internalType":"uint256"},{"name":"_quoteTokenQtyMin","type":"uint256","internalType":"uint256"},{"name":"_liquidityTokenRecipient","type":"address","internalType":"address"}],"outputs":[],"stateMutability":"nonpayable"},{"type":"function","name":"exchange_removeLiquidity","inputs":[{"name":"_liquidityTokenQty","type":"uint256","internalType":"uint256"},{"name":"_baseTokenQtyMin","type":"uint256","internalType":"uint256"},{"name":"_quoteTokenQtyMin","type":"uint256","internalType":"uint256"},{"name":"_tokenRecipient","type":"address","internalType":"address"}],"outputs":[],"stateMutability":"nonpayable"},{"type":"function","name":"exchange_swapBaseTokenForQuoteToken","inputs":[{"name":"_baseTokenQty","type":"uint256","internalType":"uint256"},{"name":"_minQuoteTokenQty","type":"uint256","internalType":"uint256"}],"outputs":[],"stateMutability":"nonpayable"},{"type":"function","name":"exchange_swapQuoteTokenForBaseToken","inputs":[{"name":"_quoteTokenQty","type":"uint256","internalType":"uint256"},{"name":"_minBaseTokenQty","type":"uint256","internalType":"uint256"}],"outputs":[],"stateMutability":"nonpayable"},{"type":"function","name":"invariant_user_cant_gain_value","inputs":[],"outputs":[{"name":"","type":"bool","internalType":"bool"}],"stateMutability":"nonpayable"},{"type":"event","name":"Log","inputs":[{"name":"","type":"string","indexed":false,"internalType":"string"}],"anonymous":false}],"bytecode":{"object":"0x60806040526200000e62000014565b62000f9c565b6b033b2e3c9fd0803ce80000006200002e81600362000f4a565b62010000604051620000409062000e94565b60808082526010908201526f456c6173746963546f6b656e4d6f636b60801b60a082015260c0602082018190526003908201526245544d60e81b60e082015260408101929092526001600160a01b0316606082015261010001604051809103906000f080158015620000b6573d6000803e3d6000fd5b50600080546001600160a01b0319166001600160a01b039290921691909117905560405163ca669fa760e01b815262010000600482015260008051602062009e968339815191529063ca669fa790602401600060405180830381600087803b1580156200012257600080fd5b505af115801562000137573d6000803e3d6000fd5b505060005460405163a9059cbb60e01b8152620200006004820152602481018590526001600160a01b03909116925063a9059cbb9150604401602060405180830381600087803b1580156200018b57600080fd5b505af1158015620001a0573d6000803e3d6000fd5b505050506040513d601f19601f82011682018060405250810190620001c6919062000ecc565b5060405163ca669fa760e01b815262010000600482015260008051602062009e968339815191529063ca669fa790602401600060405180830381600087803b1580156200021257600080fd5b505af115801562000227573d6000803e3d6000fd5b505060005460405163a9059cbb60e01b8152620300006004820152602481018590526001600160a01b03909116925063a9059cbb9150604401602060405180830381600087803b1580156200027b57600080fd5b505af115801562000290573d6000803e3d6000fd5b505050506040513d601f19601f82011682018060405250810190620002b6919062000ecc565b50604051620002c59062000ea2565b60408082526008908201526711985ad94b5554d160c21b606082015260806020820181905260049082015263119554d160e21b60a082015260c001604051809103906000f0801580156200031d573d6000803e3d6000fd5b50600180546001600160a01b0319166001600160a01b039290921691821790556040516340c10f1960e01b8152620100006004820152602481018390526340c10f1990604401600060405180830381600087803b1580156200037e57600080fd5b505af115801562000393573d6000803e3d6000fd5b50506001546040516340c10f1960e01b8152620200006004820152602481018590526001600160a01b0390911692506340c10f199150604401600060405180830381600087803b158015620003e757600080fd5b505af1158015620003fc573d6000803e3d6000fd5b50506001546040516340c10f1960e01b8152620300006004820152602481018590526001600160a01b0390911692506340c10f199150604401600060405180830381600087803b1580156200045057600080fd5b505af115801562000465573d6000803e3d6000fd5b505050506104566040516200047a9062000eb0565b6001600160a01b039091168152602001604051809103906000f080158015620004a7573d6000803e3d6000fd5b50600280546001600160a01b0319166001600160a01b0392831690811790915560005460015460405191841693169190620004e29062000ebe565b60a0808252600c908201526b22a3aa102628102a37b5b2b760a11b60c082015260e060208201819052600690820152654547544c505360d01b6101008201526001600160a01b0393841660408201529183166060830152909116608082015261012001604051809103906000f08015801562000562573d6000803e3d6000fd5b50600380546001600160a01b0319166001600160a01b039290921691909117905560405163ca669fa760e01b815262010000600482015260008051602062009e968339815191529063ca669fa790602401600060405180830381600087803b158015620005ce57600080fd5b505af1158015620005e3573d6000803e3d6000fd5b505060015460035460405163095ea7b360e01b81526001600160a01b03918216600482015260001960248201529116925063095ea7b39150604401602060405180830381600087803b1580156200063957600080fd5b505af11580156200064e573d6000803e3d6000fd5b505050506040513d601f19601f8201168201806040525081019062000674919062000ecc565b5060405163ca669fa760e01b815262010000600482015260008051602062009e968339815191529063ca669fa790602401600060405180830381600087803b158015620006c057600080fd5b505af1158015620006d5573d6000803e3d6000fd5b505060005460035460405163095ea7b360e01b81526001600160a01b03918216600482015260001960248201529116925063095ea7b39150604401602060405180830381600087803b1580156200072b57600080fd5b505af115801562000740573d6000803e3d6000fd5b505050506040513d601f19601f8201168201806040525081019062000766919062000ecc565b5060405163ca669fa760e01b815262020000600482015260008051602062009e968339815191529063ca669fa790602401600060405180830381600087803b158015620007b257600080fd5b505af1158015620007c7573d6000803e3d6000fd5b505060015460035460405163095ea7b360e01b81526001600160a01b03918216600482015260001960248201529116925063095ea7b39150604401602060405180830381600087803b1580156200081d57600080fd5b505af115801562000832573d6000803e3d6000fd5b505050506040513d601f19601f8201168201806040525081019062000858919062000ecc565b5060405163ca669fa760e01b815262020000600482015260008051602062009e968339815191529063ca669fa790602401600060405180830381600087803b158015620008a457600080fd5b505af1158015620008b9573d6000803e3d6000fd5b505060005460035460405163095ea7b360e01b81526001600160a01b03918216600482015260001960248201529116925063095ea7b39150604401602060405180830381600087803b1580156200090f57600080fd5b505af115801562000924573d6000803e3d6000fd5b505050506040513d601f19601f820116820180604052508101906200094a919062000ecc565b5060405163ca669fa760e01b815262030000600482015260008051602062009e968339815191529063ca669fa790602401600060405180830381600087803b1580156200099657600080fd5b505af1158015620009ab573d6000803e3d6000fd5b505060015460035460405163095ea7b360e01b81526001600160a01b03918216600482015260001960248201529116925063095ea7b39150604401602060405180830381600087803b15801562000a0157600080fd5b505af115801562000a16573d6000803e3d6000fd5b505050506040513d601f19601f8201168201806040525081019062000a3c919062000ecc565b5060405163ca669fa760e01b815262030000600482015260008051602062009e968339815191529063ca669fa790602401600060405180830381600087803b15801562000a8857600080fd5b505af115801562000a9d573d6000803e3d6000fd5b505060005460035460405163095ea7b360e01b81526001600160a01b03918216600482015260001960248201529116925063095ea7b39150604401602060405180830381600087803b15801562000af357600080fd5b505af115801562000b08573d6000803e3d6000fd5b505050506040513d601f19601f8201168201806040525081019062000b2e919062000ecc565b50600062000b3e60028362000f29565b60405163ca669fa760e01b815262020000600482015290915060008051602062009e968339815191529063ca669fa790602401600060405180830381600087803b15801562000b8c57600080fd5b505af115801562000ba1573d6000803e3d6000fd5b50506003546001600160a01b0316915063ded998b99050828062000bc7600a8262000f6c565b62000bd4600a8762000f6c565b6202000062000be542600162000f0e565b6040516001600160e01b031960e089901b16815260048101969096526024860194909452604485019290925260648401526001600160a01b0316608483015260a482015260c401600060405180830381600087803b15801562000c4757600080fd5b505af115801562000c5c573d6000803e3d6000fd5b5050505062000c7062000d7e60201b60201c565b60055560405163ca669fa760e01b815262030000600482015260008051602062009e968339815191529063ca669fa790602401600060405180830381600087803b15801562000cbe57600080fd5b505af115801562000cd3573d6000803e3d6000fd5b50506003546001600160a01b0316915063ded998b99050838080806203000062000cff42600162000f0e565b6040516001600160e01b031960e089901b16815260048101969096526024860194909452604485019290925260648401526001600160a01b0316608483015260a482015260c401600060405180830381600087803b15801562000d6157600080fd5b505af115801562000d76573d6000803e3d6000fd5b505050505050565b6001546040516370a0823160e01b81526203000060048201526000916001600160a01b0316906370a082319060240160206040518083038186803b15801562000dc657600080fd5b505afa15801562000ddb573d6000803e3d6000fd5b505050506040513d601f19601f8201168201806040525081019062000e01919062000ef5565b6000546040516370a0823160e01b81526203000060048201526001600160a01b03909116906370a082319060240160206040518083038186803b15801562000e4857600080fd5b505afa15801562000e5d573d6000803e3d6000fd5b505050506040513d601f19601f8201168201806040525081019062000e83919062000ef5565b62000e8f919062000f0e565b905090565b61100980620016f983390190565b610d36806200270283390190565b613af4806200343883390190565b612f6a8062006f2c83390190565b60006020828403121562000ede578081fd5b8151801515811462000eee578182fd5b9392505050565b60006020828403121562000f07578081fd5b5051919050565b6000821982111562000f245762000f2462000f86565b500190565b60008262000f4557634e487b7160e01b81526012600452602481fd5b500490565b600081600019048311821515161562000f675762000f6762000f86565b500290565b60008282101562000f815762000f8162000f86565b500390565b634e487b7160e01b600052601160045260246000fd5b61074d8062000fac6000396000f3fe608060405234801561001057600080fd5b50600436106100935760003560e01c8063b2d755f511610066578063b2d755f5146100e6578063e53dc745146100f9578063e5feaa991461010c578063ea32558814610128578063f7a2b8ec1461010c57600080fd5b806314470e4d146100985780635d5b250c146100ad57806369d1601e146100c057806373f2e610146100d3575b600080fd5b6100ab6100a636600461066d565b61013b565b005b6100ab6100bb3660046105e4565b6101d5565b6100ab6100ce36600461064c565b610261565b6100ab6100e13660046105e4565b6102e1565b6100ab6100f436600461064c565b61031a565b6100ab6101073660046105a9565b610338565b6101146103cc565b604051901515815260200160405180910390f35b6100ab6101363660046106ab565b6103e0565b6003546001600160a01b031663ed856cdc8585858561015b4260016106f3565b6040516001600160e01b031960e088901b1681526004810195909552602485019390935260448401919091526001600160a01b03166064830152608482015260a401600060405180830381600087803b1580156101b757600080fd5b505af11580156101cb573d6000803e3d6000fd5b5050505050505050565b60015460405163095ea7b360e01b81526001600160a01b038481166004830152602482018490529091169063095ea7b3906044015b602060405180830381600087803b15801561022457600080fd5b505af1158015610238573d6000803e3d6000fd5b505050506040513d601f19601f8201168201806040525081019061025c919061060d565b505050565b6003546001600160a01b0316632cd611bc838361027f4260016106f3565b6040516001600160e01b031960e086901b168152600481019390935260248301919091526044820152606401600060405180830381600087803b1580156102c557600080fd5b505af11580156102d9573d6000803e3d6000fd5b505050505050565b60015460405163a9059cbb60e01b81526001600160a01b038481166004830152602482018490529091169063a9059cbb9060440161020a565b6003546001600160a01b031663be7305a1838361027f4260016106f3565b6001546040516323b872dd60e01b81526001600160a01b038581166004830152848116602483015260448201849052909116906323b872dd90606401602060405180830381600087803b15801561038e57600080fd5b505af11580156103a2573d6000803e3d6000fd5b505050506040513d601f19601f820116820180604052508101906103c6919061060d565b50505050565b60006005546103d9610481565b1115905090565b6003546001600160a01b031663ded998b986868686866104014260016106f3565b6040516001600160e01b031960e089901b16815260048101969096526024860194909452604485019290925260648401526001600160a01b0316608483015260a482015260c401600060405180830381600087803b15801561046257600080fd5b505af1158015610476573d6000803e3d6000fd5b505050505050505050565b6001546040516370a0823160e01b81526203000060048201526000916001600160a01b0316906370a082319060240160206040518083038186803b1580156104c857600080fd5b505afa1580156104dc573d6000803e3d6000fd5b505050506040513d601f19601f820116820180604052508101906105009190610634565b6000546040516370a0823160e01b81526203000060048201526001600160a01b03909116906370a082319060240160206040518083038186803b15801561054657600080fd5b505afa15801561055a573d6000803e3d6000fd5b505050506040513d601f19601f8201168201806040525081019061057e9190610634565b61058891906106f3565b905090565b80356001600160a01b03811681146105a457600080fd5b919050565b6000806000606084860312156105bd578283fd5b6105c68461058d565b92506105d46020850161058d565b9150604084013590509250925092565b600080604083850312156105f6578182fd5b6105ff8361058d565b946020939093013593505050565b60006020828403121561061e578081fd5b8151801515811461062d578182fd5b9392505050565b600060208284031215610645578081fd5b5051919050565b6000806040838503121561065e578182fd5b50508035926020909101359150565b60008060008060808587031215610682578081fd5b8435935060208501359250604085013591506106a06060860161058d565b905092959194509250565b600080600080600060a086880312156106c2578081fd5b853594506020860135935060408601359250606086013591506106e76080870161058d565b90509295509295909350565b6000821982111561071257634e487b7160e01b81526011600452602481fd5b50019056fea2646970667358221220fc64587c52235ca41df25ce6f88411879525a36f7aad496c2c38a5e541f92f4064736f6c6343000804003360806040523480156200001157600080fd5b50604051620010093803806200100983398101604081905262000034916200031a565b838383838383816003908051906020019062000052929190620001c1565b50805162000068906004906020840190620001c1565b5050506200007d8183620000a560201b60201c565b505050506200009b620000956200016b60201b60201c565b6200016f565b5050505062000423565b6001600160a01b038216620001005760405162461bcd60e51b815260206004820152601f60248201527f45524332303a206d696e7420746f20746865207a65726f206164647265737300604482015260640160405180910390fd5b8060026000828254620001149190620003ab565b90915550506001600160a01b038216600081815260208181526040808320805486019055518481527fddf252ad1be2c89b69c2b068fc378daa952ba7f163c4a11628f55a4df523b3ef910160405180910390a35050565b3390565b600580546001600160a01b038381166001600160a01b0319831681179093556040519116919082907f8be0079c531659141344cd1fd0a4f28419497f9722a3daafe3b4186f6b6457e090600090a35050565b828054620001cf90620003d0565b90600052602060002090601f016020900481019282620001f357600085556200023e565b82601f106200020e57805160ff19168380011785556200023e565b828001600101855582156200023e579182015b828111156200023e57825182559160200191906001019062000221565b506200024c92915062000250565b5090565b5b808211156200024c576000815560010162000251565b600082601f83011262000278578081fd5b81516001600160401b03808211156200029557620002956200040d565b604051601f8301601f19908116603f01168101908282118183101715620002c057620002c06200040d565b81604052838152602092508683858801011115620002dc578485fd5b8491505b83821015620002ff5785820183015181830184015290820190620002e0565b838211156200031057848385830101525b9695505050505050565b6000806000806080858703121562000330578384fd5b84516001600160401b038082111562000347578586fd5b620003558883890162000267565b955060208701519150808211156200036b578485fd5b506200037a8782880162000267565b60408701516060880151919550935090506001600160a01b0381168114620003a0578182fd5b939692955090935050565b60008219821115620003cb57634e487b7160e01b81526011600452602481fd5b500190565b600181811c90821680620003e557607f821691505b602082108114156200040757634e487b7160e01b600052602260045260246000fd5b50919050565b634e487b7160e01b600052604160045260246000fd5b610bd680620004336000396000f3fe608060405234801561001057600080fd5b506004361061010b5760003560e01c806370a08231116100a257806395d89b411161007157806395d89b411461021f578063a457c2d714610227578063a9059cbb1461023a578063dd62ed3e1461024d578063f2fde38b1461026057600080fd5b806370a08231146101c0578063715018a6146101e957806379cc6790146101f15780638da5cb5b1461020457600080fd5b806323b872dd116100de57806323b872dd14610178578063313ce5671461018b578063395093511461019a57806342966c68146101ad57600080fd5b806306fdde0314610110578063095ea7b31461012e57806318160ddd14610151578063192a06d614610163575b600080fd5b610118610273565b6040516101259190610aee565b60405180910390f35b61014161013c366004610aad565b610305565b6040519015158152602001610125565b6002545b604051908152602001610125565b610176610171366004610aad565b61031d565b005b610141610186366004610a72565b610334565b60405160128152602001610125565b6101416101a8366004610aad565b610358565b6101766101bb366004610ad6565b61037a565b6101556101ce366004610a1f565b6001600160a01b031660009081526020819052604090205490565b610176610387565b6101766101ff366004610aad565b61039b565b6005546040516001600160a01b039091168152602001610125565b6101186103b0565b610141610235366004610aad565b6103bf565b610141610248366004610aad565b61043f565b61015561025b366004610a40565b61044d565b61017661026e366004610a1f565b610478565b60606003805461028290610b65565b80601f01602080910402602001604051908101604052809291908181526020018280546102ae90610b65565b80156102fb5780601f106102d0576101008083540402835291602001916102fb565b820191906000526020600020905b8154815290600101906020018083116102de57829003601f168201915b5050505050905090565b6000336103138185856104ee565b5060019392505050565b610325610613565b61033082308361066d565b5050565b600033610342858285610813565b61034d85858561066d565b506001949350505050565b60003361031381858561036b838361044d565b6103759190610b41565b6104ee565b6103843382610887565b50565b61038f610613565b61039960006109b1565b565b6103a6823383610813565b6103308282610887565b60606004805461028290610b65565b600033816103cd828661044d565b9050838110156104325760405162461bcd60e51b815260206004820152602560248201527f45524332303a2064656372656173656420616c6c6f77616e63652062656c6f77604482015264207a65726f60d81b60648201526084015b60405180910390fd5b61034d82868684036104ee565b60003361031381858561066d565b6001600160a01b03918216600090815260016020908152604080832093909416825291909152205490565b610480610613565b6001600160a01b0381166104e55760405162461bcd60e51b815260206004820152602660248201527f4f776e61626c653a206e6577206f776e657220697320746865207a65726f206160448201526564647265737360d01b6064820152608401610429565b610384816109b1565b6001600160a01b0383166105505760405162461bcd60e51b8152602060048201526024808201527f45524332303a20617070726f76652066726f6d20746865207a65726f206164646044820152637265737360e01b6064820152608401610429565b6001600160a01b0382166105b15760405162461bcd60e51b815260206004820152602260248201527f45524332303a20617070726f766520746f20746865207a65726f206164647265604482015261737360f01b6064820152608401610429565b6001600160a01b0383811660008181526001602090815260408083209487168084529482529182902085905590518481527f8c5be1e5ebec7d5bd14f71427d1e84f3dd0314c0f7b2291e5b200ac8c7c3b92591015b60405180910390a3505050565b6005546001600160a01b031633146103995760405162461bcd60e51b815260206004820181905260248201527f4f776e61626c653a2063616c6c6572206973206e6f7420746865206f776e65726044820152606401610429565b6001600160a01b0383166106d15760405162461bcd60e51b815260206004820152602560248201527f45524332303a207472616e736665722066726f6d20746865207a65726f206164604482015264647265737360d81b6064820152608401610429565b6001600160a01b0382166107335760405162461bcd60e51b815260206004820152602360248201527f45524332303a207472616e7366657220746f20746865207a65726f206164647260448201526265737360e81b6064820152608401610429565b6001600160a01b038316600090815260208190526040902054818110156107ab5760405162461bcd60e51b815260206004820152602660248201527f45524332303a207472616e7366657220616d6f756e7420657863656564732062604482015265616c616e636560d01b6064820152608401610429565b6001600160a01b03848116600081815260208181526040808320878703905593871680835291849020805487019055925185815290927fddf252ad1be2c89b69c2b068fc378daa952ba7f163c4a11628f55a4df523b3ef910160405180910390a35b50505050565b600061081f848461044d565b9050600019811461080d578181101561087a5760405162461bcd60e51b815260206004820152601d60248201527f45524332303a20696e73756666696369656e7420616c6c6f77616e63650000006044820152606401610429565b61080d84848484036104ee565b6001600160a01b0382166108e75760405162461bcd60e51b815260206004820152602160248201527f45524332303a206275726e2066726f6d20746865207a65726f206164647265736044820152607360f81b6064820152608401610429565b6001600160a01b0382166000908152602081905260409020548181101561095b5760405162461bcd60e51b815260206004820152602260248201527f45524332303a206275726e20616d6f756e7420657863656564732062616c616e604482015261636560f01b6064820152608401610429565b6001600160a01b0383166000818152602081815260408083208686039055600280548790039055518581529192917fddf252ad1be2c89b69c2b068fc378daa952ba7f163c4a11628f55a4df523b3ef9101610606565b600580546001600160a01b038381166001600160a01b0319831681179093556040519116919082907f8be0079c531659141344cd1fd0a4f28419497f9722a3daafe3b4186f6b6457e090600090a35050565b80356001600160a01b0381168114610a1a57600080fd5b919050565b600060208284031215610a30578081fd5b610a3982610a03565b9392505050565b60008060408385031215610a52578081fd5b610a5b83610a03565b9150610a6960208401610a03565b90509250929050565b600080600060608486031215610a86578081fd5b610a8f84610a03565b9250610a9d60208501610a03565b9150604084013590509250925092565b60008060408385031215610abf578182fd5b610ac883610a03565b946020939093013593505050565b600060208284031215610ae7578081fd5b5035919050565b6000602080835283518082850152825b81811015610b1a57858101830151858201604001528201610afe565b81811115610b2b5783604083870101525b50601f01601f1916929092016040019392505050565b60008219821115610b6057634e487b7160e01b81526011600452602481fd5b500190565b600181811c90821680610b7957607f821691505b60208210811415610b9a57634e487b7160e01b600052602260045260246000fd5b5091905056fea2646970667358221220360651fc0a37c701062633986a7a5354e233738d0ed80c38c4df092f9095476664736f6c6343000804003360806040523480156200001157600080fd5b5060405162000d3638038062000d368339810160408190526200003491620001c7565b8151829082906200004d9060039060208501906200006e565b508051620000639060049060208401906200006e565b505050505062000281565b8280546200007c906200022e565b90600052602060002090601f016020900481019282620000a05760008555620000eb565b82601f10620000bb57805160ff1916838001178555620000eb565b82800160010185558215620000eb579182015b82811115620000eb578251825591602001919060010190620000ce565b50620000f9929150620000fd565b5090565b5b80821115620000f95760008155600101620000fe565b600082601f83011262000125578081fd5b81516001600160401b03808211156200014257620001426200026b565b604051601f8301601f19908116603f011681019082821181831017156200016d576200016d6200026b565b8160405283815260209250868385880101111562000189578485fd5b8491505b83821015620001ac57858201830151818301840152908201906200018d565b83821115620001bd57848385830101525b9695505050505050565b60008060408385031215620001da578182fd5b82516001600160401b0380821115620001f1578384fd5b620001ff8683870162000114565b9350602085015191508082111562000215578283fd5b50620002248582860162000114565b9150509250929050565b600181811c908216806200024357607f821691505b602082108114156200026557634e487b7160e01b600052602260045260246000fd5b50919050565b634e487b7160e01b600052604160045260246000fd5b610aa580620002916000396000f3fe608060405234801561001057600080fd5b50600436106100cf5760003560e01c806340c10f191161008c5780639dc29fac116100665780639dc29fac146101a2578063a457c2d7146101b5578063a9059cbb146101c8578063dd62ed3e146101db57600080fd5b806340c10f191461015c57806370a082311461017157806395d89b411461019a57600080fd5b806306fdde03146100d4578063095ea7b3146100f257806318160ddd1461011557806323b872dd14610127578063313ce5671461013a5780633950935114610149575b600080fd5b6100dc6101ee565b6040516100e991906109bd565b60405180910390f35b610105610100366004610994565b610280565b60405190151581526020016100e9565b6002545b6040519081526020016100e9565b610105610135366004610959565b610298565b604051601281526020016100e9565b610105610157366004610994565b6102bc565b61016f61016a366004610994565b6102de565b005b61011961017f366004610906565b6001600160a01b031660009081526020819052604090205490565b6100dc6102ec565b61016f6101b0366004610994565b6102fb565b6101056101c3366004610994565b610305565b6101056101d6366004610994565b610385565b6101196101e9366004610927565b610393565b6060600380546101fd90610a34565b80601f016020809104026020016040519081016040528092919081815260200182805461022990610a34565b80156102765780601f1061024b57610100808354040283529160200191610276565b820191906000526020600020905b81548152906001019060200180831161025957829003601f168201915b5050505050905090565b60003361028e8185856103be565b5060019392505050565b6000336102a68582856104e3565b6102b185858561055d565b506001949350505050565b60003361028e8185856102cf8383610393565b6102d99190610a10565b6103be565b6102e88282610701565b5050565b6060600480546101fd90610a34565b6102e882826107c0565b600033816103138286610393565b9050838110156103785760405162461bcd60e51b815260206004820152602560248201527f45524332303a2064656372656173656420616c6c6f77616e63652062656c6f77604482015264207a65726f60d81b60648201526084015b60405180910390fd5b6102b182868684036103be565b60003361028e81858561055d565b6001600160a01b03918216600090815260016020908152604080832093909416825291909152205490565b6001600160a01b0383166104205760405162461bcd60e51b8152602060048201526024808201527f45524332303a20617070726f76652066726f6d20746865207a65726f206164646044820152637265737360e01b606482015260840161036f565b6001600160a01b0382166104815760405162461bcd60e51b815260206004820152602260248201527f45524332303a20617070726f766520746f20746865207a65726f206164647265604482015261737360f01b606482015260840161036f565b6001600160a01b0383811660008181526001602090815260408083209487168084529482529182902085905590518481527f8c5be1e5ebec7d5bd14f71427d1e84f3dd0314c0f7b2291e5b200ac8c7c3b92591015b60405180910390a3505050565b60006104ef8484610393565b90506000198114610557578181101561054a5760405162461bcd60e51b815260206004820152601d60248201527f45524332303a20696e73756666696369656e7420616c6c6f77616e6365000000604482015260640161036f565b61055784848484036103be565b50505050565b6001600160a01b0383166105c15760405162461bcd60e51b815260206004820152602560248201527f45524332303a207472616e736665722066726f6d20746865207a65726f206164604482015264647265737360d81b606482015260840161036f565b6001600160a01b0382166106235760405162461bcd60e51b815260206004820152602360248201527f45524332303a207472616e7366657220746f20746865207a65726f206164647260448201526265737360e81b606482015260840161036f565b6001600160a01b0383166000908152602081905260409020548181101561069b5760405162461bcd60e51b815260206004820152602660248201527f45524332303a207472616e7366657220616d6f756e7420657863656564732062604482015265616c616e636560d01b606482015260840161036f565b6001600160a01b03848116600081815260208181526040808320878703905593871680835291849020805487019055925185815290927fddf252ad1be2c89b69c2b068fc378daa952ba7f163c4a11628f55a4df523b3ef910160405180910390a3610557565b6001600160a01b0382166107575760405162461bcd60e51b815260206004820152601f60248201527f45524332303a206d696e7420746f20746865207a65726f206164647265737300604482015260640161036f565b80600260008282546107699190610a10565b90915550506001600160a01b038216600081815260208181526040808320805486019055518481527fddf252ad1be2c89b69c2b068fc378daa952ba7f163c4a11628f55a4df523b3ef910160405180910390a35050565b6001600160a01b0382166108205760405162461bcd60e51b815260206004820152602160248201527f45524332303a206275726e2066726f6d20746865207a65726f206164647265736044820152607360f81b606482015260840161036f565b6001600160a01b038216600090815260208190526040902054818110156108945760405162461bcd60e51b815260206004820152602260248201527f45524332303a206275726e20616d6f756e7420657863656564732062616c616e604482015261636560f01b606482015260840161036f565b6001600160a01b0383166000818152602081815260408083208686039055600280548790039055518581529192917fddf252ad1be2c89b69c2b068fc378daa952ba7f163c4a11628f55a4df523b3ef91016104d6565b80356001600160a01b038116811461090157600080fd5b919050565b600060208284031215610917578081fd5b610920826108ea565b9392505050565b60008060408385031215610939578081fd5b610942836108ea565b9150610950602084016108ea565b90509250929050565b60008060006060848603121561096d578081fd5b610976846108ea565b9250610984602085016108ea565b9150604084013590509250925092565b600080604083850312156109a6578182fd5b6109af836108ea565b946020939093013593505050565b6000602080835283518082850152825b818110156109e9578581018301518582016040015282016109cd565b818111156109fa5783604083870101525b50601f01601f1916929092016040019392505050565b60008219821115610a2f57634e487b7160e01b81526011600452602481fd5b500190565b600181811c90821680610a4857607f821691505b60208210811415610a6957634e487b7160e01b600052602260045260246000fd5b5091905056fea2646970667358221220c9cb9f3748405bc34bb285fe72fcdf6a7709afa716c741ed3a1f73cb08bddd7864736f6c63430008040033608060405234801561001057600080fd5b50604051613af4380380613af483398101604081905261002f91610107565b610038336100b7565b6001600160a01b0381166100925760405162461bcd60e51b815260206004820181905260248201527f45786368616e6765466163746f72793a20494e56414c49445f41444452455353604482015260640160405180910390fd5b600380546001600160a01b0319166001600160a01b0392909216919091179055610135565b600080546001600160a01b038381166001600160a01b0319831681178455604051919092169283917f8be0079c531659141344cd1fd0a4f28419497f9722a3daafe3b4186f6b6457e09190a35050565b600060208284031215610118578081fd5b81516001600160a01b038116811461012e578182fd5b9392505050565b6139b0806101446000396000f3fe60806040523480156200001157600080fd5b5060043610620000935760003560e01c80638705fcd411620000625780638705fcd4146200011c5780638cc774ec14620001335780638da5cb5b146200016a578063f2fde38b146200017c57600080fd5b80630a6b78ff14620000985780631016954e14620000b15780634127535814620000ec578063715018a61462000112575b600080fd5b620000af620000a936600462000780565b62000193565b005b620000d7620000c23660046200075c565b60026020526000908152604090205460ff1681565b60405190151581526020015b60405180910390f35b6003546001600160a01b03165b6040516001600160a01b039091168152602001620000e3565b620000af62000442565b620000af6200012d3660046200075c565b6200045a565b620000f96200014436600462000780565b60016020908152600092835260408084209091529082529020546001600160a01b031681565b6000546001600160a01b0316620000f9565b620000af6200018d3660046200075c565b6200052f565b806001600160a01b0316826001600160a01b03161415620002055760405162461bcd60e51b815260206004820152602160248201527f45786368616e6765466163746f72793a204944454e544943414c5f544f4b454e6044820152605360f81b60648201526084015b60405180910390fd5b6001600160a01b038216158015906200022657506001600160a01b03811615155b620002835760405162461bcd60e51b815260206004820152602660248201527f45786368616e6765466163746f72793a20494e56414c49445f544f4b454e5f4160448201526544445245535360d01b6064820152608401620001fc565b6001600160a01b03828116600090815260016020908152604080832085851684529091529020541615620003065760405162461bcd60e51b815260206004820152602360248201527f45786368616e6765466163746f72793a204455504c49434154455f45584348416044820152624e474560e81b6064820152608401620001fc565b60006200031c836001600160a01b0316620005ae565b9050600062000334836001600160a01b0316620005ae565b9050600082826040516020016200034d929190620008b8565b60405160208183030381529060405283836040516020016200037192919062000922565b604051602081830303815290604052868630604051620003919062000731565b620003a195949392919062000973565b604051809103906000f080158015620003be573d6000803e3d6000fd5b506001600160a01b0386811660009081526001602081815260408084208a86168552825280842080546001600160a01b03191695871695861790558484526002909152808320805460ff191690921790915551929350909133917f9d42cb017eb05bd8944ab536a8b35bc68085931dd5f4356489801453923953f991a35050505050565b6200044c62000685565b620004586000620006e1565b565b6200046462000685565b6001600160a01b038116158015906200048b57506003546001600160a01b03828116911614155b620004e55760405162461bcd60e51b8152602060048201526024808201527f45786368616e6765466163746f72793a20494e56416c49445f4645455f4144446044820152635245535360e01b6064820152608401620001fc565b600380546001600160a01b0319166001600160a01b0383169081179091556040517ffcb8a963756b148f85a52537b63147b6c4b40af694099c901ac3b99d317a2db890600090a250565b6200053962000685565b6001600160a01b038116620005a05760405162461bcd60e51b815260206004820152602660248201527f4f776e61626c653a206e6577206f776e657220697320746865207a65726f206160448201526564647265737360d01b6064820152608401620001fc565b620005ab81620006e1565b50565b60408051600481526024810182526020810180516001600160e01b03166395d89b4160e01b179052905160609160009182916001600160a01b03861691620005f791906200089a565b600060405180830381855afa9150503d806000811462000634576040519150601f19603f3d011682016040523d82523d6000602084013e62000639565b606091505b509150915081156200066357808060200190518101906200065b9190620007b7565b949350505050565b50506040805180820190915260038152622a25a760e91b602082015292915050565b6000546001600160a01b03163314620004585760405162461bcd60e51b815260206004820181905260248201527f4f776e61626c653a2063616c6c6572206973206e6f7420746865206f776e65726044820152606401620001fc565b600080546001600160a01b038381166001600160a01b0319831681178455604051919092169283917f8be0079c531659141344cd1fd0a4f28419497f9722a3daafe3b4186f6b6457e09190a35050565b612f6a8062000a1183390190565b80356001600160a01b03811681146200075757600080fd5b919050565b6000602082840312156200076e578081fd5b62000779826200073f565b9392505050565b6000806040838503121562000793578081fd5b6200079e836200073f565b9150620007ae602084016200073f565b90509250929050565b600060208284031215620007c9578081fd5b815167ffffffffffffffff80821115620007e1578283fd5b818401915084601f830112620007f5578283fd5b8151818111156200080a576200080a620009fa565b604051601f8201601f19908116603f01168101908382118183101715620008355762000835620009fa565b816040528281528760208487010111156200084e578586fd5b62000861836020830160208801620009c7565b979650505050505050565b6000815180845262000886816020860160208601620009c7565b601f01601f19169290920160200192915050565b60008251620008ae818460208701620009c7565b9190910192915050565b60008351620008cc818460208801620009c7565b603b60f91b9083019081528351620008ec816001840160208801620009c7565b7f20456c617374696353776170204c697175696469747920546f6b656e0000000060019290910191820152601d01949350505050565b6000835162000936818460208801620009c7565b603b60f91b908301908152835162000956816001840160208801620009c7565b6302d454c560e41b60019290910191820152600501949350505050565b60a0815260006200098860a08301886200086c565b82810360208401526200099c81886200086c565b6001600160a01b03968716604085015294861660608401525050921660809092019190915292915050565b60005b83811015620009e4578181015183820152602001620009ca565b83811115620009f4576000848401525b50505050565b634e487b7160e01b600052604160045260246000fdfe60e06040523480156200001157600080fd5b5060405162002f6a38038062002f6a83398101604081905262000034916200020c565b8451859085906200004d90600390602085019062000096565b5080516200006390600490602084019062000096565b50506001600555506001600160601b0319606093841b811660805291831b821660a05290911b1660c05250620002fe9050565b828054620000a490620002ab565b90600052602060002090601f016020900481019282620000c8576000855562000113565b82601f10620000e357805160ff191683800117855562000113565b8280016001018555821562000113579182015b8281111562000113578251825591602001919060010190620000f6565b506200012192915062000125565b5090565b5b8082111562000121576000815560010162000126565b80516001600160a01b03811681146200015457600080fd5b919050565b600082601f8301126200016a578081fd5b81516001600160401b0380821115620001875762000187620002e8565b604051601f8301601f19908116603f01168101908282118183101715620001b257620001b2620002e8565b81604052838152602092508683858801011115620001ce578485fd5b8491505b83821015620001f15785820183015181830184015290820190620001d2565b838211156200020257848385830101525b9695505050505050565b600080600080600060a0868803121562000224578081fd5b85516001600160401b03808211156200023b578283fd5b6200024989838a0162000159565b965060208801519150808211156200025f578283fd5b506200026e8882890162000159565b9450506200027f604087016200013c565b92506200028f606087016200013c565b91506200029f608087016200013c565b90509295509295909350565b600181811c90821680620002c057607f821691505b60208210811415620002e257634e487b7160e01b600052602260045260246000fd5b50919050565b634e487b7160e01b600052604160045260246000fd5b60805160601c60a05160601c60c05160601c612bca620003a06000396000818161030a015281816109b60152611139015260008181610194015281816104f70152818161077401528181610c2d01528181610ebb01526112190152600081816102bd015281816104c2015281816106e2015281816107a90152818161091001528181610aea01528181610b3101528181610e1601526111e50152612bca6000f3fe608060405234801561001057600080fd5b50600436106101375760003560e01c806395d89b41116100b8578063c55dae631161007c578063c55dae63146102b8578063dd62ed3e146102df578063ded998b9146102f2578063eb443eb014610305578063eba25b151461032c578063ed856cdc1461033457600080fd5b806395d89b411461026e578063a457c2d714610276578063a9059cbb14610289578063ba9a7a561461029c578063be7305a1146102a557600080fd5b80632cd611bc116100ff5780632cd611bc146101e1578063313ce567146101f657806339509351146102055780634d67a0a31461021857806370a082311461024557600080fd5b806306fdde031461013c578063095ea7b31461015a57806318160ddd1461017d578063217a4b701461018f57806323b872dd146101ce575b600080fd5b610144610347565b60405161015191906129b0565b60405180910390f35b61016d61016836600461286a565b6103d9565b6040519015158152602001610151565b6002545b604051908152602001610151565b6101b67f000000000000000000000000000000000000000000000000000000000000000081565b6040516001600160a01b039091168152602001610151565b61016d6101dc36600461282a565b6103f3565b6101f46101ef3660046128cd565b610417565b005b60405160128152602001610151565b61016d61021336600461286a565b61057d565b60065460075460085461022a92919083565b60408051938452602084019290925290820152606001610151565b6101816102533660046127ba565b6001600160a01b031660009081526020819052604090205490565b61014461059f565b61016d61028436600461286a565b6105ae565b61016d61029736600461286a565b610629565b6101816103e881565b6101f46102b33660046128cd565b610637565b6101b67f000000000000000000000000000000000000000000000000000000000000000081565b6101816102ed3660046127f2565b61081a565b6101f4610300366004612940565b610845565b6101b67f000000000000000000000000000000000000000000000000000000000000000081565b610181603281565b6101f46103423660046128f8565b610cad565b60606003805461035690612b31565b80601f016020809104026020016040519081016040528092919081815260200182805461038290612b31565b80156103cf5780601f106103a4576101008083540402835291602001916103cf565b820191906000526020600020905b8154815290600101906020018083116103b257829003601f168201915b5050505050905090565b6000336103e7818585611293565b60019150505b92915050565b6000336104018582856113b7565b61040c858585611431565b506001949350505050565b61041f6115d5565b80428110156104495760405162461bcd60e51b815260040161044090612a28565b60405180910390fd5b831580159061045757508215155b6104a35760405162461bcd60e51b815260206004820181905260248201527f45786368616e67653a20494e53554646494349454e545f544f4b454e5f5154596044820152606401610440565b60006104b385856032600661162f565b90506104ea6001600160a01b037f00000000000000000000000000000000000000000000000000000000000000001633308861173c565b61051e6001600160a01b037f00000000000000000000000000000000000000000000000000000000000000001633836117a7565b60408051868152600060208201819052918101919091526060810182905233907f49926bbebe8474393f434dfa4f78694c0923efa07d19f2284518bfabd06eb737906080015b60405180910390a250506105786001600555565b505050565b6000336103e7818585610590838361081a565b61059a9190612a97565b611293565b60606004805461035690612b31565b600033816105bc828661081a565b90508381101561061c5760405162461bcd60e51b815260206004820152602560248201527f45524332303a2064656372656173656420616c6c6f77616e63652062656c6f77604482015264207a65726f60d81b6064820152608401610440565b61040c8286868403611293565b6000336103e7818585611431565b61063f6115d5565b80428110156106605760405162461bcd60e51b815260040161044090612a28565b831580159061066e57508215155b6106ba5760405162461bcd60e51b815260206004820181905260248201527f45786368616e67653a20494e53554646494349454e545f544f4b454e5f5154596044820152606401610440565b6040516370a0823160e01b815230600482015260009061076590869086906001600160a01b037f000000000000000000000000000000000000000000000000000000000000000016906370a082319060240160206040518083038186803b15801561072457600080fd5b505afa158015610738573d6000803e3d6000fd5b505050506040513d601f19601f8201168201806040525081019061075c91906128b5565b603260066117d7565b905061079c6001600160a01b037f00000000000000000000000000000000000000000000000000000000000000001633308861173c565b6107d06001600160a01b037f00000000000000000000000000000000000000000000000000000000000000001633836117a7565b60408051600080825260208201889052918101839052606081019190915233907f49926bbebe8474393f434dfa4f78694c0923efa07d19f2284518bfabd06eb73790608001610564565b6001600160a01b03918216600090815260016020908152604080832093909416825291909152205490565b61084d6115d5565b804281101561086e5760405162461bcd60e51b815260040161044090612a28565b6000306001600160a01b03166318160ddd6040518163ffffffff1660e01b815260040160206040518083038186803b1580156108a957600080fd5b505afa1580156108bd573d6000803e3d6000fd5b505050506040513d601f19601f820116820180604052508101906108e191906128b5565b6040516370a0823160e01b8152306004820152909150600090610992908a908a908a908a906001600160a01b037f000000000000000000000000000000000000000000000000000000000000000016906370a082319060240160206040518083038186803b15801561095257600080fd5b505afa158015610966573d6000803e3d6000fd5b505050506040513d601f19601f8201168201806040525081019061098a91906128b5565b8760066118bb565b6007546006549192506109a491612acf565b600855606081015115610a4f57610a4f7f00000000000000000000000000000000000000000000000000000000000000006001600160a01b031663412753586040518163ffffffff1660e01b815260040160206040518083038186803b158015610a0d57600080fd5b505afa158015610a21573d6000803e3d6000fd5b505050506040513d601f19601f82011682018060405250810190610a4591906127d6565b8260600151611c40565b81158015610ac5576103e8826040015111610aac5760405162461bcd60e51b815260206004820152601d60248201527f45786368616e67653a20494e495449414c5f4445504f5349545f4d494e0000006044820152606401610440565b6040820180516103e719019052610ac5306103e8611c40565b610ad3868360400151611c40565b815115610c10578151610b14906001600160a01b037f000000000000000000000000000000000000000000000000000000000000000016903390309061173c565b8015610c105781516040516370a0823160e01b81523060048201527f00000000000000000000000000000000000000000000000000000000000000006001600160a01b0316906370a082319060240160206040518083038186803b158015610b7b57600080fd5b505afa158015610b8f573d6000803e3d6000fd5b505050506040513d601f19601f82011682018060405250810190610bb391906128b5565b14610c105760405162461bcd60e51b815260206004820152602760248201527f45786368616e67653a204645455f4f4e5f5452414e534645525f4e4f545f5355604482015266141413d495115160ca1b6064820152608401610440565b602082015115610c57576020820151610c57906001600160a01b037f000000000000000000000000000000000000000000000000000000000000000016903390309061173c565b8151602080840151604080519384529183015233917f06239653922ac7bea6aa2b19dc486b9361821d37712eb796adfd38d81de278ca910160405180910390a250505050610ca56001600555565b505050505050565b610cb56115d5565b8042811015610cd65760405162461bcd60e51b815260040161044090612a28565b306001600160a01b03166318160ddd6040518163ffffffff1660e01b815260040160206040518083038186803b158015610d0f57600080fd5b505afa158015610d23573d6000803e3d6000fd5b505050506040513d601f19601f82011682018060405250810190610d4791906128b5565b610d935760405162461bcd60e51b815260206004820181905260248201527f45786368616e67653a20494e53554646494349454e545f4c49515549444954596044820152606401610440565b8415801590610da157508315155b610dfe5760405162461bcd60e51b815260206004820152602860248201527f45786368616e67653a204d494e535f4d5553545f42455f475245415445525f5460448201526748414e5f5a45524f60c01b6064820152608401610440565b6040516370a0823160e01b81523060048201526000907f00000000000000000000000000000000000000000000000000000000000000006001600160a01b0316906370a082319060240160206040518083038186803b158015610e6057600080fd5b505afa158015610e74573d6000803e3d6000fd5b505050506040513d601f19601f82011682018060405250810190610e9891906128b5565b6040516370a0823160e01b81523060048201529091506000906001600160a01b037f000000000000000000000000000000000000000000000000000000000000000016906370a082319060240160206040518083038186803b158015610efd57600080fd5b505afa158015610f11573d6000803e3d6000fd5b505050506040513d601f19601f82011682018060405250810190610f3591906128b5565b90506000306001600160a01b03166318160ddd6040518163ffffffff1660e01b815260040160206040518083038186803b158015610f7257600080fd5b505afa158015610f86573d6000803e3d6000fd5b505050506040513d601f19601f82011682018060405250810190610faa91906128b5565b604080516060810182526006548152600754602082015260085491810191909152909150600090610fdc908390611cff565b9050610fe88183612a97565b9150600082610ff7868d612acf565b6110019190612aaf565b9050600083611010868e612acf565b61101a9190612aaf565b90508a82101561106c5760405162461bcd60e51b815260206004820152601f60248201527f45786368616e67653a20494e53554646494349454e545f424153455f515459006044820152606401610440565b898110156110bc5760405162461bcd60e51b815260206004820181905260248201527f45786368616e67653a20494e53554646494349454e545f51554f54455f5154596044820152606401610440565b60006006600001549050600085828f6110d59190612acf565b6110df9190612aaf565b90506110eb8183612aee565b60068190556007549092508084111561110b57506000600781905561111d565b6111158482612aee565b600781905590505b6111278184612acf565b6008555050831590506111ce576111ce7f00000000000000000000000000000000000000000000000000000000000000006001600160a01b031663412753586040518163ffffffff1660e01b815260040160206040518083038186803b15801561119057600080fd5b505afa1580156111a4573d6000803e3d6000fd5b505050506040513d601f19601f820116820180604052508101906111c891906127d6565b84611c40565b6111d8338d611d72565b61120c6001600160a01b037f0000000000000000000000000000000000000000000000000000000000000000168a846117a7565b6112406001600160a01b037f0000000000000000000000000000000000000000000000000000000000000000168a836117a7565b604080518381526020810183905233917f0fbf06c058b90cb038a618f8c2acbf6145f8b3570fd1fa56abb8f0f3f05b36e8910160405180910390a25050505050505061128c6001600555565b5050505050565b6001600160a01b0383166112f55760405162461bcd60e51b8152602060048201526024808201527f45524332303a20617070726f76652066726f6d20746865207a65726f206164646044820152637265737360e01b6064820152608401610440565b6001600160a01b0382166113565760405162461bcd60e51b815260206004820152602260248201527f45524332303a20617070726f766520746f20746865207a65726f206164647265604482015261737360f01b6064820152608401610440565b6001600160a01b0383811660008181526001602090815260408083209487168084529482529182902085905590518481527f8c5be1e5ebec7d5bd14f71427d1e84f3dd0314c0f7b2291e5b200ac8c7c3b925910160405180910390a3505050565b60006113c3848461081a565b9050600019811461142b578181101561141e5760405162461bcd60e51b815260206004820152601d60248201527f45524332303a20696e73756666696369656e7420616c6c6f77616e63650000006044820152606401610440565b61142b8484848403611293565b50505050565b6001600160a01b0383166114955760405162461bcd60e51b815260206004820152602560248201527f45524332303a207472616e736665722066726f6d20746865207a65726f206164604482015264647265737360d81b6064820152608401610440565b6001600160a01b0382166114f75760405162461bcd60e51b815260206004820152602360248201527f45524332303a207472616e7366657220746f20746865207a65726f206164647260448201526265737360e81b6064820152608401610440565b6001600160a01b0383166000908152602081905260409020548181101561156f5760405162461bcd60e51b815260206004820152602660248201527f45524332303a207472616e7366657220616d6f756e7420657863656564732062604482015265616c616e636560d01b6064820152608401610440565b6001600160a01b03848116600081815260208181526040808320878703905593871680835291849020805487019055925185815290927fddf252ad1be2c89b69c2b068fc378daa952ba7f163c4a11628f55a4df523b3ef910160405180910390a361142b565b600260055414156116285760405162461bcd60e51b815260206004820152601f60248201527f5265656e7472616e637947756172643a207265656e7472616e742063616c6c006044820152606401610440565b6002600555565b6000841580159061163f57508315155b61168b5760405162461bcd60e51b815260206004820152601f60248201527f4d6174684c69623a20494e53554646494349454e545f544f4b454e5f515459006044820152606401610440565b61169f858360000154846001015486611ea4565b9050838110156116ff5760405162461bcd60e51b815260206004820152602560248201527f4d6174684c69623a20494e53554646494349454e545f51554f54455f544f4b456044820152644e5f51545960d81b6064820152608401610440565b848260000160008282546117139190612a97565b925050819055508082600101600082825461172e9190612aee565b909155509095945050505050565b6040516001600160a01b038085166024830152831660448201526064810182905261142b9085906323b872dd60e01b906084015b60408051601f198184030181529190526020810180516001600160e01b03166001600160e01b031990931692909217909152611ef4565b6040516001600160a01b03831660248201526044810182905261057890849063a9059cbb60e01b90606401611770565b600083158015906117e85750815415155b6118045760405162461bcd60e51b815260040161044090612a53565b815484101561184657600061182183600001548460010154611fc9565b9050600061182f8683611fc9565b905061183d88828888611ea4565b9250505061185d565b61185a868360010154846000015486611ea4565b90505b8481101561187d5760405162461bcd60e51b815260040161044090612a53565b808260000160008282546118919190612aee565b92505081905550858260010160008282546118ac9190612a97565b90915550909695505050505050565b6118e66040518060800160405280600081526020016000815260200160008152602001600081525090565b8215611b235760408051606081018252835481526001840154602082015260028401549181019190915261191b908490611cff565b6060820181905261192c9084612a97565b925061196184836040518060600160405290816000820154815260200160018201548152602001600282015481525050612004565b15611b04576000806000846000015487111561198d576119838a888888612053565b90925090506119ca565b6119c48b60008989896040518060600160405290816000820154815260200160018201548152602001600282015481525050612147565b90935090505b89821080156119d857508a83105b15611a1457611a076119ea848d612aee565b6119f4848d612aee565b600080611a01868c612a97565b8a6122a7565b6040870152602086015284525b8284600001818151611a269190612a97565b905250602084018051839190611a3d908390612a97565b905250604084018051829190611a54908390612a97565b9052508351891115611aa85760405162461bcd60e51b815260206004820152601e60248201527f4d6174684c69623a20494e53554646494349454e545f424153455f51545900006044820152606401610440565b8784602001511015611afc5760405162461bcd60e51b815260206004820152601f60248201527f4d6174684c69623a20494e53554646494349454e545f51554f54455f515459006044820152606401610440565b505050611c35565b611b128888888887876122a7565b604084015260208301528152611c35565b87611b7f5760405162461bcd60e51b815260206004820152602660248201527f4d6174684c69623a20494e53554646494349454e545f424153455f5154595f446044820152651154d254915160d21b6064820152608401610440565b86611bdc5760405162461bcd60e51b815260206004820152602760248201527f4d6174684c69623a20494e53554646494349454e545f51554f54455f5154595f604482015266111154d254915160ca1b6064820152608401610440565b87815260208101879052611bf8611bf3888a612acf565b6123e5565b6040820152805182548390600090611c11908490612a97565b90915550506020810151600183018054600090611c2f908490612a97565b90915550505b979650505050505050565b6001600160a01b038216611c965760405162461bcd60e51b815260206004820152601f60248201527f45524332303a206d696e7420746f20746865207a65726f2061646472657373006044820152606401610440565b8060026000828254611ca89190612a97565b90915550506001600160a01b038216600081815260208181526040808320805486019055518481527fddf252ad1be2c89b69c2b068fc378daa952ba7f163c4a11628f55a4df523b3ef910160405180910390a35050565b600080611d1983602001518460000151611bf39190612acf565b90506000611d2a84604001516123e5565b905080821115611d6a576000611d408284612aee565b611d4a9087612acf565b90506000611d59846002612acf565b9050611d658183612aaf565b945050505b505092915050565b6001600160a01b038216611dd25760405162461bcd60e51b815260206004820152602160248201527f45524332303a206275726e2066726f6d20746865207a65726f206164647265736044820152607360f81b6064820152608401610440565b6001600160a01b03821660009081526020819052604090205481811015611e465760405162461bcd60e51b815260206004820152602260248201527f45524332303a206275726e20616d6f756e7420657863656564732062616c616e604482015261636560f01b6064820152608401610440565b6001600160a01b0383166000818152602081815260408083208686039055600280548790039055518581529192917fddf252ad1be2c89b69c2b068fc378daa952ba7f163c4a11628f55a4df523b3ef910160405180910390a3505050565b600080611eb383612710612aee565b611ebd9087612acf565b905080611ecc61271087612acf565b611ed69190612a97565b611ee08583612acf565b611eea9190612aaf565b9695505050505050565b6000611f49826040518060400160405280602081526020017f5361666545524332303a206c6f772d6c6576656c2063616c6c206661696c6564815250856001600160a01b031661243e9092919063ffffffff16565b9050805160001480611f6a575080806020019051810190611f6a9190612895565b6105785760405162461bcd60e51b815260206004820152602a60248201527f5361666545524332303a204552433230206f7065726174696f6e20646964206e6044820152691bdd081cdd58d8d9595960b21b6064820152608401610440565b600081611fd7600282612aaf565b611fe9670de0b6b3a764000086612acf565b611ff39190612a97565b611ffd9190612aaf565b9392505050565b6000670de0b6b3a764000061204a670de0b6b3a7640000612029868660000151612455565b6120339190612acf565b61204585600001518660200151611fc9565b611fc9565b10159392505050565b60008060008360000154866120689190612aee565b9050600061207e85600001548660010154611fc9565b9050600061208c8383611fc9565b90508089111561209e578094506120a2565b8894505b6000670de0b6b3a76400006120c86120ba8589612acf565b670de0b6b3a7640000612479565b6120d29190612aaf565b9050806120f15760405162461bcd60e51b8152600401610440906129e3565b808760000160008282546121059190612a97565b92505081905550858760010160008282546121209190612a97565b925050819055506121388989888a60010154876124a6565b94505050505094509492505050565b600080600085846000015161215c9190612aee565b9050808711156121ae5760405162461bcd60e51b815260206004820152601b60248201527f4d6174684c69623a20494e53554646494349454e545f444543415900000000006044820152606401610440565b808811156121be578092506121c2565b8792505b60006121d685602001518660000151611fc9565b90506000670de0b6b3a76400006121f06120ba8488612acf565b6121fa9190612aaf565b9050806122195760405162461bcd60e51b8152600401610440906129e3565b6000670de0b6b3a764000061222e8486612acf565b6122389190612aaf565b9050806122875760405162461bcd60e51b815260206004820152601760248201527f4d6174684c69623a204e4f5f51554f54455f44454341590000000000000000006044820152606401610440565b6122978989888a60000151612519565b9450505050509550959350505050565b6000806000806122c08a86600001548760010154612564565b905088811161232457868110156123195760405162461bcd60e51b815260206004820152601f60248201527f4d6174684c69623a20494e53554646494349454e545f51554f54455f515459006044820152606401610440565b899350809250612391565b60006123398a87600101548860000154612564565b90508881101561238b5760405162461bcd60e51b815260206004820152601e60248201527f4d6174684c69623a20494e53554646494349454e545f424153455f51545900006044820152606401610440565b93508892505b6123a086848760010154612622565b9150838560000160008282546123b69190612a97565b92505081905550828560010160008282546123d19190612a97565b925050819055505096509650969350505050565b60008060026123f5846001612a97565b6123ff9190612aaf565b90508291505b818110156124385790508060028161241d8186612aaf565b6124279190612a97565b6124319190612aaf565b9050612405565b50919050565b606061244d848460008561262f565b949350505050565b600081831061246f576124688284612aee565b90506103ed565b611ffd8383612aee565b60008180612488600282612aaf565b6124929086612a97565b61249c9190612aaf565b611ffd9190612acf565b6000806124b38784611fc9565b905060006124c18583612a97565b905060006124cf8783611fc9565b9050670de0b6b3a76400006125026124f06124ea838c612acf565b846126ff565b61204584670de0b6b3a7640000612aee565b61250c9190612aaf565b9998505050505050505050565b600080836125278785612a97565b6125319190612a97565b9050600061253f8583611fc9565b9050670de0b6b3a764000061255a6124f06124ea838a612acf565b611c359190612aaf565b6000836125b35760405162461bcd60e51b815260206004820152601960248201527f4d6174684c69623a20494e53554646494349454e545f515459000000000000006044820152606401610440565b82158015906125c157508115155b61260d5760405162461bcd60e51b815260206004820152601f60248201527f4d6174684c69623a20494e53554646494349454e545f4c4951554944495459006044820152606401610440565b826126188386612acf565b61244d9190612aaf565b6000816126188585612acf565b6060824710156126905760405162461bcd60e51b815260206004820152602660248201527f416464726573733a20696e73756666696369656e742062616c616e636520666f6044820152651c8818d85b1b60d21b6064820152608401610440565b600080866001600160a01b031685876040516126ac9190612994565b60006040518083038185875af1925050503d80600081146126e9576040519150601f19603f3d011682016040523d82523d6000602084013e6126ee565b606091505b5091509150611c358783838761271f565b6000670de0b6b3a7640000612715600282612aaf565b611fe98486612acf565b6060831561278b578251612784576001600160a01b0385163b6127845760405162461bcd60e51b815260206004820152601d60248201527f416464726573733a2063616c6c20746f206e6f6e2d636f6e74726163740000006044820152606401610440565b508161244d565b61244d83838151156127a05781518083602001fd5b8060405162461bcd60e51b815260040161044091906129b0565b6000602082840312156127cb578081fd5b8135611ffd81612b7c565b6000602082840312156127e7578081fd5b8151611ffd81612b7c565b60008060408385031215612804578081fd5b823561280f81612b7c565b9150602083013561281f81612b7c565b809150509250929050565b60008060006060848603121561283e578081fd5b833561284981612b7c565b9250602084013561285981612b7c565b929592945050506040919091013590565b6000806040838503121561287c578182fd5b823561288781612b7c565b946020939093013593505050565b6000602082840312156128a6578081fd5b81518015158114611ffd578182fd5b6000602082840312156128c6578081fd5b5051919050565b6000806000606084860312156128e1578283fd5b505081359360208301359350604090920135919050565b600080600080600060a0868803121561290f578081fd5b853594506020860135935060408601359250606086013561292f81612b7c565b949793965091946080013592915050565b60008060008060008060c08789031215612958578081fd5b86359550602087013594506040870135935060608701359250608087013561297f81612b7c565b8092505060a087013590509295509295509295565b600082516129a6818460208701612b05565b9190910192915050565b60208152600082518060208401526129cf816040850160208701612b05565b601f01601f19169190910160400192915050565b60208082526025908201527f4d6174684c69623a20494e53554646494349454e545f4348414e47455f494e5f604082015264444543415960d81b606082015260800190565b602080825260119082015270115e18da185b99d94e8811561412549151607a1b604082015260600190565b60208082526024908201527f4d6174684c69623a20494e53554646494349454e545f424153455f544f4b454e6040820152635f51545960e01b606082015260800190565b60008219821115612aaa57612aaa612b66565b500190565b600082612aca57634e487b7160e01b81526012600452602481fd5b500490565b6000816000190483118215151615612ae957612ae9612b66565b500290565b600082821015612b0057612b00612b66565b500390565b60005b83811015612b20578181015183820152602001612b08565b8381111561142b5750506000910152565b600181811c90821680612b4557607f821691505b6020821081141561243857634e487b7160e01b600052602260045260246000fd5b634e487b7160e01b600052601160045260246000fd5b6001600160a01b0381168114612b9157600080fd5b5056fea2646970667358221220eacc1a7704f595fb65f692d0b7c12b1f641ba4040ad12abbdf698c9b56d3cc2364736f6c63430008040033a2646970667358221220009c05dbb060bfabcb4f53761d8abb3282b5bc59cf74d7b0fefecba175b400cd64736f6c6343000804003360e06040523480156200001157600080fd5b5060405162002f6a38038062002f6a83398101604081905262000034916200020c565b8451859085906200004d90600390602085019062000096565b5080516200006390600490602084019062000096565b50506001600555506001600160601b0319606093841b811660805291831b821660a05290911b1660c05250620002fe9050565b828054620000a490620002ab565b90600052602060002090601f016020900481019282620000c8576000855562000113565b82601f10620000e357805160ff191683800117855562000113565b8280016001018555821562000113579182015b8281111562000113578251825591602001919060010190620000f6565b506200012192915062000125565b5090565b5b8082111562000121576000815560010162000126565b80516001600160a01b03811681146200015457600080fd5b919050565b600082601f8301126200016a578081fd5b81516001600160401b0380821115620001875762000187620002e8565b604051601f8301601f19908116603f01168101908282118183101715620001b257620001b2620002e8565b81604052838152602092508683858801011115620001ce578485fd5b8491505b83821015620001f15785820183015181830184015290820190620001d2565b838211156200020257848385830101525b9695505050505050565b600080600080600060a0868803121562000224578081fd5b85516001600160401b03808211156200023b578283fd5b6200024989838a0162000159565b965060208801519150808211156200025f578283fd5b506200026e8882890162000159565b9450506200027f604087016200013c565b92506200028f606087016200013c565b91506200029f608087016200013c565b90509295509295909350565b600181811c90821680620002c057607f821691505b60208210811415620002e257634e487b7160e01b600052602260045260246000fd5b50919050565b634e487b7160e01b600052604160045260246000fd5b60805160601c60a05160601c60c05160601c612bca620003a06000396000818161030a015281816109b60152611139015260008181610194015281816104f70152818161077401528181610c2d01528181610ebb01526112190152600081816102bd015281816104c2015281816106e2015281816107a90152818161091001528181610aea01528181610b3101528181610e1601526111e50152612bca6000f3fe608060405234801561001057600080fd5b50600436106101375760003560e01c806395d89b41116100b8578063c55dae631161007c578063c55dae63146102b8578063dd62ed3e146102df578063ded998b9146102f2578063eb443eb014610305578063eba25b151461032c578063ed856cdc1461033457600080fd5b806395d89b411461026e578063a457c2d714610276578063a9059cbb14610289578063ba9a7a561461029c578063be7305a1146102a557600080fd5b80632cd611bc116100ff5780632cd611bc146101e1578063313ce567146101f657806339509351146102055780634d67a0a31461021857806370a082311461024557600080fd5b806306fdde031461013c578063095ea7b31461015a57806318160ddd1461017d578063217a4b701461018f57806323b872dd146101ce575b600080fd5b610144610347565b60405161015191906129b0565b60405180910390f35b61016d61016836600461286a565b6103d9565b6040519015158152602001610151565b6002545b604051908152602001610151565b6101b67f000000000000000000000000000000000000000000000000000000000000000081565b6040516001600160a01b039091168152602001610151565b61016d6101dc36600461282a565b6103f3565b6101f46101ef3660046128cd565b610417565b005b60405160128152602001610151565b61016d61021336600461286a565b61057d565b60065460075460085461022a92919083565b60408051938452602084019290925290820152606001610151565b6101816102533660046127ba565b6001600160a01b031660009081526020819052604090205490565b61014461059f565b61016d61028436600461286a565b6105ae565b61016d61029736600461286a565b610629565b6101816103e881565b6101f46102b33660046128cd565b610637565b6101b67f000000000000000000000000000000000000000000000000000000000000000081565b6101816102ed3660046127f2565b61081a565b6101f4610300366004612940565b610845565b6101b67f000000000000000000000000000000000000000000000000000000000000000081565b610181603281565b6101f46103423660046128f8565b610cad565b60606003805461035690612b31565b80601f016020809104026020016040519081016040528092919081815260200182805461038290612b31565b80156103cf5780601f106103a4576101008083540402835291602001916103cf565b820191906000526020600020905b8154815290600101906020018083116103b257829003601f168201915b5050505050905090565b6000336103e7818585611293565b60019150505b92915050565b6000336104018582856113b7565b61040c858585611431565b506001949350505050565b61041f6115d5565b80428110156104495760405162461bcd60e51b815260040161044090612a28565b60405180910390fd5b831580159061045757508215155b6104a35760405162461bcd60e51b815260206004820181905260248201527f45786368616e67653a20494e53554646494349454e545f544f4b454e5f5154596044820152606401610440565b60006104b385856032600661162f565b90506104ea6001600160a01b037f00000000000000000000000000000000000000000000000000000000000000001633308861173c565b61051e6001600160a01b037f00000000000000000000000000000000000000000000000000000000000000001633836117a7565b60408051868152600060208201819052918101919091526060810182905233907f49926bbebe8474393f434dfa4f78694c0923efa07d19f2284518bfabd06eb737906080015b60405180910390a250506105786001600555565b505050565b6000336103e7818585610590838361081a565b61059a9190612a97565b611293565b60606004805461035690612b31565b600033816105bc828661081a565b90508381101561061c5760405162461bcd60e51b815260206004820152602560248201527f45524332303a2064656372656173656420616c6c6f77616e63652062656c6f77604482015264207a65726f60d81b6064820152608401610440565b61040c8286868403611293565b6000336103e7818585611431565b61063f6115d5565b80428110156106605760405162461bcd60e51b815260040161044090612a28565b831580159061066e57508215155b6106ba5760405162461bcd60e51b815260206004820181905260248201527f45786368616e67653a20494e53554646494349454e545f544f4b454e5f5154596044820152606401610440565b6040516370a0823160e01b815230600482015260009061076590869086906001600160a01b037f000000000000000000000000000000000000000000000000000000000000000016906370a082319060240160206040518083038186803b15801561072457600080fd5b505afa158015610738573d6000803e3d6000fd5b505050506040513d601f19601f8201168201806040525081019061075c91906128b5565b603260066117d7565b905061079c6001600160a01b037f00000000000000000000000000000000000000000000000000000000000000001633308861173c565b6107d06001600160a01b037f00000000000000000000000000000000000000000000000000000000000000001633836117a7565b60408051600080825260208201889052918101839052606081019190915233907f49926bbebe8474393f434dfa4f78694c0923efa07d19f2284518bfabd06eb73790608001610564565b6001600160a01b03918216600090815260016020908152604080832093909416825291909152205490565b61084d6115d5565b804281101561086e5760405162461bcd60e51b815260040161044090612a28565b6000306001600160a01b03166318160ddd6040518163ffffffff1660e01b815260040160206040518083038186803b1580156108a957600080fd5b505afa1580156108bd573d6000803e3d6000fd5b505050506040513d601f19601f820116820180604052508101906108e191906128b5565b6040516370a0823160e01b8152306004820152909150600090610992908a908a908a908a906001600160a01b037f000000000000000000000000000000000000000000000000000000000000000016906370a082319060240160206040518083038186803b15801561095257600080fd5b505afa158015610966573d6000803e3d6000fd5b505050506040513d601f19601f8201168201806040525081019061098a91906128b5565b8760066118bb565b6007546006549192506109a491612acf565b600855606081015115610a4f57610a4f7f00000000000000000000000000000000000000000000000000000000000000006001600160a01b031663412753586040518163ffffffff1660e01b815260040160206040518083038186803b158015610a0d57600080fd5b505afa158015610a21573d6000803e3d6000fd5b505050506040513d601f19601f82011682018060405250810190610a4591906127d6565b8260600151611c40565b81158015610ac5576103e8826040015111610aac5760405162461bcd60e51b815260206004820152601d60248201527f45786368616e67653a20494e495449414c5f4445504f5349545f4d494e0000006044820152606401610440565b6040820180516103e719019052610ac5306103e8611c40565b610ad3868360400151611c40565b815115610c10578151610b14906001600160a01b037f000000000000000000000000000000000000000000000000000000000000000016903390309061173c565b8015610c105781516040516370a0823160e01b81523060048201527f00000000000000000000000000000000000000000000000000000000000000006001600160a01b0316906370a082319060240160206040518083038186803b158015610b7b57600080fd5b505afa158015610b8f573d6000803e3d6000fd5b505050506040513d601f19601f82011682018060405250810190610bb391906128b5565b14610c105760405162461bcd60e51b815260206004820152602760248201527f45786368616e67653a204645455f4f4e5f5452414e534645525f4e4f545f5355604482015266141413d495115160ca1b6064820152608401610440565b602082015115610c57576020820151610c57906001600160a01b037f000000000000000000000000000000000000000000000000000000000000000016903390309061173c565b8151602080840151604080519384529183015233917f06239653922ac7bea6aa2b19dc486b9361821d37712eb796adfd38d81de278ca910160405180910390a250505050610ca56001600555565b505050505050565b610cb56115d5565b8042811015610cd65760405162461bcd60e51b815260040161044090612a28565b306001600160a01b03166318160ddd6040518163ffffffff1660e01b815260040160206040518083038186803b158015610d0f57600080fd5b505afa158015610d23573d6000803e3d6000fd5b505050506040513d601f19601f82011682018060405250810190610d4791906128b5565b610d935760405162461bcd60e51b815260206004820181905260248201527f45786368616e67653a20494e53554646494349454e545f4c49515549444954596044820152606401610440565b8415801590610da157508315155b610dfe5760405162461bcd60e51b815260206004820152602860248201527f45786368616e67653a204d494e535f4d5553545f42455f475245415445525f5460448201526748414e5f5a45524f60c01b6064820152608401610440565b6040516370a0823160e01b81523060048201526000907f00000000000000000000000000000000000000000000000000000000000000006001600160a01b0316906370a082319060240160206040518083038186803b158015610e6057600080fd5b505afa158015610e74573d6000803e3d6000fd5b505050506040513d601f19601f82011682018060405250810190610e9891906128b5565b6040516370a0823160e01b81523060048201529091506000906001600160a01b037f000000000000000000000000000000000000000000000000000000000000000016906370a082319060240160206040518083038186803b158015610efd57600080fd5b505afa158015610f11573d6000803e3d6000fd5b505050506040513d601f19601f82011682018060405250810190610f3591906128b5565b90506000306001600160a01b03166318160ddd6040518163ffffffff1660e01b815260040160206040518083038186803b158015610f7257600080fd5b505afa158015610f86573d6000803e3d6000fd5b505050506040513d601f19601f82011682018060405250810190610faa91906128b5565b604080516060810182526006548152600754602082015260085491810191909152909150600090610fdc908390611cff565b9050610fe88183612a97565b9150600082610ff7868d612acf565b6110019190612aaf565b9050600083611010868e612acf565b61101a9190612aaf565b90508a82101561106c5760405162461bcd60e51b815260206004820152601f60248201527f45786368616e67653a20494e53554646494349454e545f424153455f515459006044820152606401610440565b898110156110bc5760405162461bcd60e51b815260206004820181905260248201527f45786368616e67653a20494e53554646494349454e545f51554f54455f5154596044820152606401610440565b60006006600001549050600085828f6110d59190612acf565b6110df9190612aaf565b90506110eb8183612aee565b60068190556007549092508084111561110b57506000600781905561111d565b6111158482612aee565b600781905590505b6111278184612acf565b6008555050831590506111ce576111ce7f00000000000000000000000000000000000000000000000000000000000000006001600160a01b031663412753586040518163ffffffff1660e01b815260040160206040518083038186803b15801561119057600080fd5b505afa1580156111a4573d6000803e3d6000fd5b505050506040513d601f19601f820116820180604052508101906111c891906127d6565b84611c40565b6111d8338d611d72565b61120c6001600160a01b037f0000000000000000000000000000000000000000000000000000000000000000168a846117a7565b6112406001600160a01b037f0000000000000000000000000000000000000000000000000000000000000000168a836117a7565b604080518381526020810183905233917f0fbf06c058b90cb038a618f8c2acbf6145f8b3570fd1fa56abb8f0f3f05b36e8910160405180910390a25050505050505061128c6001600555565b5050505050565b6001600160a01b0383166112f55760405162461bcd60e51b8152602060048201526024808201527f45524332303a20617070726f76652066726f6d20746865207a65726f206164646044820152637265737360e01b6064820152608401610440565b6001600160a01b0382166113565760405162461bcd60e51b815260206004820152602260248201527f45524332303a20617070726f766520746f20746865207a65726f206164647265604482015261737360f01b6064820152608401610440565b6001600160a01b0383811660008181526001602090815260408083209487168084529482529182902085905590518481527f8c5be1e5ebec7d5bd14f71427d1e84f3dd0314c0f7b2291e5b200ac8c7c3b925910160405180910390a3505050565b60006113c3848461081a565b9050600019811461142b578181101561141e5760405162461bcd60e51b815260206004820152601d60248201527f45524332303a20696e73756666696369656e7420616c6c6f77616e63650000006044820152606401610440565b61142b8484848403611293565b50505050565b6001600160a01b0383166114955760405162461bcd60e51b815260206004820152602560248201527f45524332303a207472616e736665722066726f6d20746865207a65726f206164604482015264647265737360d81b6064820152608401610440565b6001600160a01b0382166114f75760405162461bcd60e51b815260206004820152602360248201527f45524332303a207472616e7366657220746f20746865207a65726f206164647260448201526265737360e81b6064820152608401610440565b6001600160a01b0383166000908152602081905260409020548181101561156f5760405162461bcd60e51b815260206004820152602660248201527f45524332303a207472616e7366657220616d6f756e7420657863656564732062604482015265616c616e636560d01b6064820152608401610440565b6001600160a01b03848116600081815260208181526040808320878703905593871680835291849020805487019055925185815290927fddf252ad1be2c89b69c2b068fc378daa952ba7f163c4a11628f55a4df523b3ef910160405180910390a361142b565b600260055414156116285760405162461bcd60e51b815260206004820152601f60248201527f5265656e7472616e637947756172643a207265656e7472616e742063616c6c006044820152606401610440565b6002600555565b6000841580159061163f57508315155b61168b5760405162461bcd60e51b815260206004820152601f60248201527f4d6174684c69623a20494e53554646494349454e545f544f4b454e5f515459006044820152606401610440565b61169f858360000154846001015486611ea4565b9050838110156116ff5760405162461bcd60e51b815260206004820152602560248201527f4d6174684c69623a20494e53554646494349454e545f51554f54455f544f4b456044820152644e5f51545960d81b6064820152608401610440565b848260000160008282546117139190612a97565b925050819055508082600101600082825461172e9190612aee565b909155509095945050505050565b6040516001600160a01b038085166024830152831660448201526064810182905261142b9085906323b872dd60e01b906084015b60408051601f198184030181529190526020810180516001600160e01b03166001600160e01b031990931692909217909152611ef4565b6040516001600160a01b03831660248201526044810182905261057890849063a9059cbb60e01b90606401611770565b600083158015906117e85750815415155b6118045760405162461bcd60e51b815260040161044090612a53565b815484101561184657600061182183600001548460010154611fc9565b9050600061182f8683611fc9565b905061183d88828888611ea4565b9250505061185d565b61185a868360010154846000015486611ea4565b90505b8481101561187d5760405162461bcd60e51b815260040161044090612a53565b808260000160008282546118919190612aee565b92505081905550858260010160008282546118ac9190612a97565b90915550909695505050505050565b6118e66040518060800160405280600081526020016000815260200160008152602001600081525090565b8215611b235760408051606081018252835481526001840154602082015260028401549181019190915261191b908490611cff565b6060820181905261192c9084612a97565b925061196184836040518060600160405290816000820154815260200160018201548152602001600282015481525050612004565b15611b04576000806000846000015487111561198d576119838a888888612053565b90925090506119ca565b6119c48b60008989896040518060600160405290816000820154815260200160018201548152602001600282015481525050612147565b90935090505b89821080156119d857508a83105b15611a1457611a076119ea848d612aee565b6119f4848d612aee565b600080611a01868c612a97565b8a6122a7565b6040870152602086015284525b8284600001818151611a269190612a97565b905250602084018051839190611a3d908390612a97565b905250604084018051829190611a54908390612a97565b9052508351891115611aa85760405162461bcd60e51b815260206004820152601e60248201527f4d6174684c69623a20494e53554646494349454e545f424153455f51545900006044820152606401610440565b8784602001511015611afc5760405162461bcd60e51b815260206004820152601f60248201527f4d6174684c69623a20494e53554646494349454e545f51554f54455f515459006044820152606401610440565b505050611c35565b611b128888888887876122a7565b604084015260208301528152611c35565b87611b7f5760405162461bcd60e51b815260206004820152602660248201527f4d6174684c69623a20494e53554646494349454e545f424153455f5154595f446044820152651154d254915160d21b6064820152608401610440565b86611bdc5760405162461bcd60e51b815260206004820152602760248201527f4d6174684c69623a20494e53554646494349454e545f51554f54455f5154595f604482015266111154d254915160ca1b6064820152608401610440565b87815260208101879052611bf8611bf3888a612acf565b6123e5565b6040820152805182548390600090611c11908490612a97565b90915550506020810151600183018054600090611c2f908490612a97565b90915550505b979650505050505050565b6001600160a01b038216611c965760405162461bcd60e51b815260206004820152601f60248201527f45524332303a206d696e7420746f20746865207a65726f2061646472657373006044820152606401610440565b8060026000828254611ca89190612a97565b90915550506001600160a01b038216600081815260208181526040808320805486019055518481527fddf252ad1be2c89b69c2b068fc378daa952ba7f163c4a11628f55a4df523b3ef910160405180910390a35050565b600080611d1983602001518460000151611bf39190612acf565b90506000611d2a84604001516123e5565b905080821115611d6a576000611d408284612aee565b611d4a9087612acf565b90506000611d59846002612acf565b9050611d658183612aaf565b945050505b505092915050565b6001600160a01b038216611dd25760405162461bcd60e51b815260206004820152602160248201527f45524332303a206275726e2066726f6d20746865207a65726f206164647265736044820152607360f81b6064820152608401610440565b6001600160a01b03821660009081526020819052604090205481811015611e465760405162461bcd60e51b815260206004820152602260248201527f45524332303a206275726e20616d6f756e7420657863656564732062616c616e604482015261636560f01b6064820152608401610440565b6001600160a01b0383166000818152602081815260408083208686039055600280548790039055518581529192917fddf252ad1be2c89b69c2b068fc378daa952ba7f163c4a11628f55a4df523b3ef910160405180910390a3505050565b600080611eb383612710612aee565b611ebd9087612acf565b905080611ecc61271087612acf565b611ed69190612a97565b611ee08583612acf565b611eea9190612aaf565b9695505050505050565b6000611f49826040518060400160405280602081526020017f5361666545524332303a206c6f772d6c6576656c2063616c6c206661696c6564815250856001600160a01b031661243e9092919063ffffffff16565b9050805160001480611f6a575080806020019051810190611f6a9190612895565b6105785760405162461bcd60e51b815260206004820152602a60248201527f5361666545524332303a204552433230206f7065726174696f6e20646964206e6044820152691bdd081cdd58d8d9595960b21b6064820152608401610440565b600081611fd7600282612aaf565b611fe9670de0b6b3a764000086612acf565b611ff39190612a97565b611ffd9190612aaf565b9392505050565b6000670de0b6b3a764000061204a670de0b6b3a7640000612029868660000151612455565b6120339190612acf565b61204585600001518660200151611fc9565b611fc9565b10159392505050565b60008060008360000154866120689190612aee565b9050600061207e85600001548660010154611fc9565b9050600061208c8383611fc9565b90508089111561209e578094506120a2565b8894505b6000670de0b6b3a76400006120c86120ba8589612acf565b670de0b6b3a7640000612479565b6120d29190612aaf565b9050806120f15760405162461bcd60e51b8152600401610440906129e3565b808760000160008282546121059190612a97565b92505081905550858760010160008282546121209190612a97565b925050819055506121388989888a60010154876124a6565b94505050505094509492505050565b600080600085846000015161215c9190612aee565b9050808711156121ae5760405162461bcd60e51b815260206004820152601b60248201527f4d6174684c69623a20494e53554646494349454e545f444543415900000000006044820152606401610440565b808811156121be578092506121c2565b8792505b60006121d685602001518660000151611fc9565b90506000670de0b6b3a76400006121f06120ba8488612acf565b6121fa9190612aaf565b9050806122195760405162461bcd60e51b8152600401610440906129e3565b6000670de0b6b3a764000061222e8486612acf565b6122389190612aaf565b9050806122875760405162461bcd60e51b815260206004820152601760248201527f4d6174684c69623a204e4f5f51554f54455f44454341590000000000000000006044820152606401610440565b6122978989888a60000151612519565b9450505050509550959350505050565b6000806000806122c08a86600001548760010154612564565b905088811161232457868110156123195760405162461bcd60e51b815260206004820152601f60248201527f4d6174684c69623a20494e53554646494349454e545f51554f54455f515459006044820152606401610440565b899350809250612391565b60006123398a87600101548860000154612564565b90508881101561238b5760405162461bcd60e51b815260206004820152601e60248201527f4d6174684c69623a20494e53554646494349454e545f424153455f51545900006044820152606401610440565b93508892505b6123a086848760010154612622565b9150838560000160008282546123b69190612a97565b92505081905550828560010160008282546123d19190612a97565b925050819055505096509650969350505050565b60008060026123f5846001612a97565b6123ff9190612aaf565b90508291505b818110156124385790508060028161241d8186612aaf565b6124279190612a97565b6124319190612aaf565b9050612405565b50919050565b606061244d848460008561262f565b949350505050565b600081831061246f576124688284612aee565b90506103ed565b611ffd8383612aee565b60008180612488600282612aaf565b6124929086612a97565b61249c9190612aaf565b611ffd9190612acf565b6000806124b38784611fc9565b905060006124c18583612a97565b905060006124cf8783611fc9565b9050670de0b6b3a76400006125026124f06124ea838c612acf565b846126ff565b61204584670de0b6b3a7640000612aee565b61250c9190612aaf565b9998505050505050505050565b600080836125278785612a97565b6125319190612a97565b9050600061253f8583611fc9565b9050670de0b6b3a764000061255a6124f06124ea838a612acf565b611c359190612aaf565b6000836125b35760405162461bcd60e51b815260206004820152601960248201527f4d6174684c69623a20494e53554646494349454e545f515459000000000000006044820152606401610440565b82158015906125c157508115155b61260d5760405162461bcd60e51b815260206004820152601f60248201527f4d6174684c69623a20494e53554646494349454e545f4c4951554944495459006044820152606401610440565b826126188386612acf565b61244d9190612aaf565b6000816126188585612acf565b6060824710156126905760405162461bcd60e51b815260206004820152602660248201527f416464726573733a20696e73756666696369656e742062616c616e636520666f6044820152651c8818d85b1b60d21b6064820152608401610440565b600080866001600160a01b031685876040516126ac9190612994565b60006040518083038185875af1925050503d80600081146126e9576040519150601f19603f3d011682016040523d82523d6000602084013e6126ee565b606091505b5091509150611c358783838761271f565b6000670de0b6b3a7640000612715600282612aaf565b611fe98486612acf565b6060831561278b578251612784576001600160a01b0385163b6127845760405162461bcd60e51b815260206004820152601d60248201527f416464726573733a2063616c6c20746f206e6f6e2d636f6e74726163740000006044820152606401610440565b508161244d565b61244d83838151156127a05781518083602001fd5b8060405162461bcd60e51b815260040161044091906129b0565b6000602082840312156127cb578081fd5b8135611ffd81612b7c565b6000602082840312156127e7578081fd5b8151611ffd81612b7c565b60008060408385031215612804578081fd5b823561280f81612b7c565b9150602083013561281f81612b7c565b809150509250929050565b60008060006060848603121561283e578081fd5b833561284981612b7c565b9250602084013561285981612b7c565b929592945050506040919091013590565b6000806040838503121561287c578182fd5b823561288781612b7c565b946020939093013593505050565b6000602082840312156128a6578081fd5b81518015158114611ffd578182fd5b6000602082840312156128c6578081fd5b5051919050565b6000806000606084860312156128e1578283fd5b505081359360208301359350604090920135919050565b600080600080600060a0868803121561290f578081fd5b853594506020860135935060408601359250606086013561292f81612b7c565b949793965091946080013592915050565b60008060008060008060c08789031215612958578081fd5b86359550602087013594506040870135935060608701359250608087013561297f81612b7c565b8092505060a087013590509295509295509295565b600082516129a6818460208701612b05565b9190910192915050565b60208152600082518060208401526129cf816040850160208701612b05565b601f01601f19169190910160400192915050565b60208082526025908201527f4d6174684c69623a20494e53554646494349454e545f4348414e47455f494e5f604082015264444543415960d81b606082015260800190565b602080825260119082015270115e18da185b99d94e8811561412549151607a1b604082015260600190565b60208082526024908201527f4d6174684c69623a20494e53554646494349454e545f424153455f544f4b454e6040820152635f51545960e01b606082015260800190565b60008219821115612aaa57612aaa612b66565b500190565b600082612aca57634e487b7160e01b81526012600452602481fd5b500490565b6000816000190483118215151615612ae957612ae9612b66565b500290565b600082821015612b0057612b00612b66565b500390565b60005b83811015612b20578181015183820152602001612b08565b8381111561142b5750506000910152565b600181811c90821680612b4557607f821691505b6020821081141561243857634e487b7160e01b600052602260045260246000fd5b634e487b7160e01b600052601160045260246000fd5b6001600160a01b0381168114612b9157600080fd5b5056fea2646970667358221220eacc1a7704f595fb65f692d0b7c12b1f641ba4040ad12abbdf698c9b56d3cc2364736f6c634300080400330000000000000000000000007109709ecfa91a80626ff3989d68f67f5b1dd12d","linkReferences":{}},"methodIdentifiers":{"crytic_user_cant_gain_value()":"f7a2b8ec","eRC20_approve(address,uint256)":"5d5b250c","eRC20_transfer(address,uint256)":"73f2e610","eRC20_transferFrom(address,address,uint256)":"e53dc745","exchange_addLiquidity(uint256,uint256,uint256,uint256,address)":"ea325588","exchange_removeLiquidity(uint256,uint256,uint256,address)":"14470e4d","exchange_swapBaseTokenForQuoteToken(uint256,uint256)":"69d1601e","exchange_swapQuoteTokenForBaseToken(uint256,uint256)":"b2d755f5","invariant_user_cant_gain_value()":"e5feaa99"},"id":47}