{"abi":[{"type":"constructor","inputs":[],"stateMutability":"payable"},{"type":"function","name":"eRC20_transfer","inputs":[{"name":"amount","type":"uint256","internalType":"uint256"}],"outputs":[],"stateMutability":"nonpayable"},{"type":"function","name":"exchange_addLiquidity","inputs":[{"name":"_baseTokenQtyDesired","type":"uint256","internalType":"uint256"},{"name":"_quoteTokenQtyDesired","type":"uint256","internalType":"uint256"}],"outputs":[],"stateMutability":"nonpayable"},{"type":"function","name":"exchange_removeLiquidity","inputs":[{"name":"_liquidityTokenQty","type":"uint256","internalType":"uint256"},{"name":"_baseTokenQtyMin","type":"uint256","internalType":"uint256"},{"name":"_quoteTokenQtyMin","type":"uint256","internalType":"uint256"}],"outputs":[],"stateMutability":"nonpayable"},{"type":"function","name":"invariant_spot_price_doesnt_change","inputs":[],"outputs":[{"name":"","type":"bool","internalType":"bool"}],"stateMutability":"nonpayable"},{"type":"event","name":"Log","inputs":[{"name":"","type":"string","indexed":false,"internalType":"string"}],"anonymous":false}],"bytecode":{"object":"0x60806040526200000e62000014565b62000a29565b6b033b2e3c9fd0803ce80000006200002c816200027e565b620000378162000429565b610456604051620000489062000926565b6001600160a01b039091168152602001604051809103906000f08015801562000075573d6000803e3d6000fd5b50600280546001600160a01b0319166001600160a01b0392831690811790915560005460015460405191841693169190620000b09062000934565b60a0808252600c908201526b22a3aa102628102a37b5b2b760a11b60c082015260e060208201819052600690820152654547544c505360d01b6101008201526001600160a01b0393841660408201529183166060830152909116608082015261012001604051809103906000f08015801562000130573d6000803e3d6000fd5b50600380546001600160a01b0319166001600160a01b03929092169190911790556200015b62000572565b60405163ca669fa760e01b8152620100006004820152737109709ecfa91a80626ff3989d68f67f5b1dd12d9063ca669fa790602401600060405180830381600087803b158015620001ab57600080fd5b505af1158015620001c0573d6000803e3d6000fd5b50506003546001600160a01b0316915063ded998b99050828060008062010000620001ed426001620009b5565b6040516001600160e01b031960e089901b16815260048101969096526024860194909452604485019290925260648401526001600160a01b0316608483015260a482015260c401600060405180830381600087803b1580156200024f57600080fd5b505af115801562000264573d6000803e3d6000fd5b50505050620002786200087e60201b60201c565b60045550565b6200028b816002620009f1565b620100006040516200029d9062000942565b60808082526010908201526f456c6173746963546f6b656e4d6f636b60801b60a082015260c0602082018190526003908201526245544d60e81b60e082015260408101929092526001600160a01b0316606082015261010001604051809103906000f08015801562000313573d6000803e3d6000fd5b50600080546001600160a01b0319166001600160a01b039290921691909117905560405163ca669fa760e01b8152620100006004820152737109709ecfa91a80626ff3989d68f67f5b1dd12d9063ca669fa790602401600060405180830381600087803b1580156200038457600080fd5b505af115801562000399573d6000803e3d6000fd5b505060005460405163a9059cbb60e01b8152306004820152602481018590526001600160a01b03909116925063a9059cbb9150604401602060405180830381600087803b158015620003ea57600080fd5b505af1158015620003ff573d6000803e3d6000fd5b505050506040513d601f19601f820116820180604052508101906200042591906200095e565b5050565b604051620004379062000950565b60408082526008908201526711985ad94b5554d160c21b606082015260806020820181905260049082015263119554d160e21b60a082015260c001604051809103906000f0801580156200048f573d6000803e3d6000fd5b50600180546001600160a01b0319166001600160a01b039290921691821790556040516340c10f1960e01b8152620100006004820152602481018390526340c10f1990604401600060405180830381600087803b158015620004f057600080fd5b505af115801562000505573d6000803e3d6000fd5b50506001546040516340c10f1960e01b8152306004820152602481018590526001600160a01b0390911692506340c10f199150604401600060405180830381600087803b1580156200055657600080fd5b505af11580156200056b573d6000803e3d6000fd5b5050505050565b60405163ca669fa760e01b8152620100006004820152737109709ecfa91a80626ff3989d68f67f5b1dd12d9063ca669fa790602401600060405180830381600087803b158015620005c257600080fd5b505af1158015620005d7573d6000803e3d6000fd5b505060015460035460405163095ea7b360e01b81526001600160a01b03918216600482015260001960248201529116925063095ea7b39150604401602060405180830381600087803b1580156200062d57600080fd5b505af115801562000642573d6000803e3d6000fd5b505050506040513d601f19601f820116820180604052508101906200066891906200095e565b5060405163ca669fa760e01b8152620100006004820152737109709ecfa91a80626ff3989d68f67f5b1dd12d9063ca669fa790602401600060405180830381600087803b158015620006b957600080fd5b505af1158015620006ce573d6000803e3d6000fd5b505060005460035460405163095ea7b360e01b81526001600160a01b03918216600482015260001960248201529116925063095ea7b39150604401602060405180830381600087803b1580156200072457600080fd5b505af115801562000739573d6000803e3d6000fd5b505050506040513d601f19601f820116820180604052508101906200075f91906200095e565b5060015460035460405163095ea7b360e01b81526001600160a01b039182166004820152600019602482015291169063095ea7b390604401602060405180830381600087803b158015620007b257600080fd5b505af1158015620007c7573d6000803e3d6000fd5b505050506040513d601f19601f82011682018060405250810190620007ed91906200095e565b5060005460035460405163095ea7b360e01b81526001600160a01b039182166004820152600019602482015291169063095ea7b390604401602060405180830381600087803b1580156200084057600080fd5b505af115801562000855573d6000803e3d6000fd5b505050506040513d601f19601f820116820180604052508101906200087b91906200095e565b50565b6000806000600360009054906101000a90046001600160a01b03166001600160a01b0316634d67a0a36040518163ffffffff1660e01b815260040160606040518083038186803b158015620008d257600080fd5b505afa158015620008e7573d6000803e3d6000fd5b505050506040513d601f19601f820116820180604052508101906200090d919062000987565b5090925090506200091f8282620009d0565b9250505090565b613bea8062000e8e83390190565b6130608062004a7883390190565b6110098062007ad883390190565b610bd38062008ae183390190565b60006020828403121562000970578081fd5b8151801515811462000980578182fd5b9392505050565b6000806000606084860312156200099c578182fd5b8351925060208401519150604084015190509250925092565b60008219821115620009cb57620009cb62000a13565b500190565b600082620009ec57634e487b7160e01b81526012600452602481fd5b500490565b600081600019048311821515161562000a0e5762000a0e62000a13565b500290565b634e487b7160e01b600052601160045260246000fd5b6104558062000a396000396000f3fe608060405234801561001057600080fd5b506004361061004c5760003560e01c806323fccd06146100515780634ecf6bf1146100665780636c7383da14610079578063bfa2f2311461008c575b600080fd5b61006461005f366004610383565b6100a8565b005b61006461007436600461034a565b610141565b610064610087366004610362565b6101cd565b61009461026c565b604051901515815260200160405180910390f35b6003546001600160a01b031663ed856cdc848484306100c84260016103db565b6040516001600160e01b031960e088901b1681526004810195909552602485019390935260448401919091526001600160a01b03166064830152608482015260a401600060405180830381600087803b15801561012457600080fd5b505af1158015610138573d6000803e3d6000fd5b50505050505050565b60015460035460405163a9059cbb60e01b81526001600160a01b0391821660048201526024810184905291169063a9059cbb90604401602060405180830381600087803b15801561019157600080fd5b505af11580156101a5573d6000803e3d6000fd5b505050506040513d601f19601f820116820180604052508101906101c99190610323565b5050565b6003546001600160a01b031663ded998b98383600080306101ef4260016103db565b6040516001600160e01b031960e089901b16815260048101969096526024860194909452604485019290925260648401526001600160a01b0316608483015260a482015260c401600060405180830381600087803b15801561025057600080fd5b505af1158015610264573d6000803e3d6000fd5b505050505050565b600080610277610281565b6004541492915050565b6000806000600360009054906101000a90046001600160a01b03166001600160a01b0316634d67a0a36040518163ffffffff1660e01b815260040160606040518083038186803b1580156102d457600080fd5b505afa1580156102e8573d6000803e3d6000fd5b505050506040513d601f19601f8201168201806040525081019061030c91906103ae565b50909250905061031c82826103ff565b9250505090565b600060208284031215610334578081fd5b81518015158114610343578182fd5b9392505050565b60006020828403121561035b578081fd5b5035919050565b60008060408385031215610374578081fd5b50508035926020909101359150565b600080600060608486031215610397578081fd5b505081359360208301359350604090920135919050565b6000806000606084860312156103c2578283fd5b8351925060208401519150604084015190509250925092565b600082198211156103fa57634e487b7160e01b81526011600452602481fd5b500190565b60008261041a57634e487b7160e01b81526012600452602481fd5b50049056fea2646970667358221220527add5fcdeb403d642e4ffd5fd9aa531d8ee4579a1897db1968d0674064ab4f64736f6c63430008040033608060405234801561001057600080fd5b50604051613bea380380613bea83398101604081905261002f91610107565b610038336100b7565b6001600160a01b0381166100925760405162461bcd60e51b815260206004820181905260248201527f45786368616e6765466163746f72793a20494e56414c49445f41444452455353604482015260640160405180910390fd5b600380546001600160a01b0319166001600160a01b0392909216919091179055610135565b600080546001600160a01b038381166001600160a01b0319831681178455604051919092169283917f8be0079c531659141344cd1fd0a4f28419497f9722a3daafe3b4186f6b6457e09190a35050565b600060208284031215610118578081fd5b81516001600160a01b038116811461012e578182fd5b9392505050565b613aa6806101446000396000f3fe60806040523480156200001157600080fd5b5060043610620000935760003560e01c80638705fcd411620000625780638705fcd4146200011c5780638cc774ec14620001335780638da5cb5b146200016a578063f2fde38b146200017c57600080fd5b80630a6b78ff14620000985780631016954e14620000b15780634127535814620000ec578063715018a61462000112575b600080fd5b620000af620000a936600462000780565b62000193565b005b620000d7620000c23660046200075c565b60026020526000908152604090205460ff1681565b60405190151581526020015b60405180910390f35b6003546001600160a01b03165b6040516001600160a01b039091168152602001620000e3565b620000af62000442565b620000af6200012d3660046200075c565b6200045a565b620000f96200014436600462000780565b60016020908152600092835260408084209091529082529020546001600160a01b031681565b6000546001600160a01b0316620000f9565b620000af6200018d3660046200075c565b6200052f565b806001600160a01b0316826001600160a01b03161415620002055760405162461bcd60e51b815260206004820152602160248201527f45786368616e6765466163746f72793a204944454e544943414c5f544f4b454e6044820152605360f81b60648201526084015b60405180910390fd5b6001600160a01b038216158015906200022657506001600160a01b03811615155b620002835760405162461bcd60e51b815260206004820152602660248201527f45786368616e6765466163746f72793a20494e56414c49445f544f4b454e5f4160448201526544445245535360d01b6064820152608401620001fc565b6001600160a01b03828116600090815260016020908152604080832085851684529091529020541615620003065760405162461bcd60e51b815260206004820152602360248201527f45786368616e6765466163746f72793a204455504c49434154455f45584348416044820152624e474560e81b6064820152608401620001fc565b60006200031c836001600160a01b0316620005ae565b9050600062000334836001600160a01b0316620005ae565b9050600082826040516020016200034d929190620008b8565b60405160208183030381529060405283836040516020016200037192919062000922565b604051602081830303815290604052868630604051620003919062000731565b620003a195949392919062000973565b604051809103906000f080158015620003be573d6000803e3d6000fd5b506001600160a01b0386811660009081526001602081815260408084208a86168552825280842080546001600160a01b03191695871695861790558484526002909152808320805460ff191690921790915551929350909133917f9d42cb017eb05bd8944ab536a8b35bc68085931dd5f4356489801453923953f991a35050505050565b6200044c62000685565b620004586000620006e1565b565b6200046462000685565b6001600160a01b038116158015906200048b57506003546001600160a01b03828116911614155b620004e55760405162461bcd60e51b8152602060048201526024808201527f45786368616e6765466163746f72793a20494e56416c49445f4645455f4144446044820152635245535360e01b6064820152608401620001fc565b600380546001600160a01b0319166001600160a01b0383169081179091556040517ffcb8a963756b148f85a52537b63147b6c4b40af694099c901ac3b99d317a2db890600090a250565b6200053962000685565b6001600160a01b038116620005a05760405162461bcd60e51b815260206004820152602660248201527f4f776e61626c653a206e6577206f776e657220697320746865207a65726f206160448201526564647265737360d01b6064820152608401620001fc565b620005ab81620006e1565b50565b60408051600481526024810182526020810180516001600160e01b03166395d89b4160e01b179052905160609160009182916001600160a01b03861691620005f791906200089a565b600060405180830381855afa9150503d806000811462000634576040519150601f19603f3d011682016040523d82523d6000602084013e62000639565b606091505b509150915081156200066357808060200190518101906200065b9190620007b7565b949350505050565b50506040805180820190915260038152622a25a760e91b602082015292915050565b6000546001600160a01b03163314620004585760405162461bcd60e51b815260206004820181905260248201527f4f776e61626c653a2063616c6c6572206973206e6f7420746865206f776e65726044820152606401620001fc565b600080546001600160a01b038381166001600160a01b0319831681178455604051919092169283917f8be0079c531659141344cd1fd0a4f28419497f9722a3daafe3b4186f6b6457e09190a35050565b6130608062000a1183390190565b80356001600160a01b03811681146200075757600080fd5b919050565b6000602082840312156200076e578081fd5b62000779826200073f565b9392505050565b6000806040838503121562000793578081fd5b6200079e836200073f565b9150620007ae602084016200073f565b90509250929050565b600060208284031215620007c9578081fd5b815167ffffffffffffffff80821115620007e1578283fd5b818401915084601f830112620007f5578283fd5b8151818111156200080a576200080a620009fa565b604051601f8201601f19908116603f01168101908382118183101715620008355762000835620009fa565b816040528281528760208487010111156200084e578586fd5b62000861836020830160208801620009c7565b979650505050505050565b6000815180845262000886816020860160208601620009c7565b601f01601f19169290920160200192915050565b60008251620008ae818460208701620009c7565b9190910192915050565b60008351620008cc818460208801620009c7565b603b60f91b9083019081528351620008ec816001840160208801620009c7565b7f20456c617374696353776170204c697175696469747920546f6b656e0000000060019290910191820152601d01949350505050565b6000835162000936818460208801620009c7565b603b60f91b908301908152835162000956816001840160208801620009c7565b6302d454c560e41b60019290910191820152600501949350505050565b60a0815260006200098860a08301886200086c565b82810360208401526200099c81886200086c565b6001600160a01b03968716604085015294861660608401525050921660809092019190915292915050565b60005b83811015620009e4578181015183820152602001620009ca565b83811115620009f4576000848401525b50505050565b634e487b7160e01b600052604160045260246000fdfe60e06040523480156200001157600080fd5b50604051620030603803806200306083398101604081905262000034916200020c565b8451859085906200004d90600390602085019062000096565b5080516200006390600490602084019062000096565b50506001600555506001600160601b0319606093841b811660805291831b821660a05290911b1660c05250620002fe9050565b828054620000a490620002ab565b90600052602060002090601f016020900481019282620000c8576000855562000113565b82601f10620000e357805160ff191683800117855562000113565b8280016001018555821562000113579182015b8281111562000113578251825591602001919060010190620000f6565b506200012192915062000125565b5090565b5b8082111562000121576000815560010162000126565b80516001600160a01b03811681146200015457600080fd5b919050565b600082601f8301126200016a578081fd5b81516001600160401b0380821115620001875762000187620002e8565b604051601f8301601f19908116603f01168101908282118183101715620001b257620001b2620002e8565b81604052838152602092508683858801011115620001ce578485fd5b8491505b83821015620001f15785820183015181830184015290820190620001d2565b838211156200020257848385830101525b9695505050505050565b600080600080600060a0868803121562000224578081fd5b85516001600160401b03808211156200023b578283fd5b6200024989838a0162000159565b965060208801519150808211156200025f578283fd5b506200026e8882890162000159565b9450506200027f604087016200013c565b92506200028f606087016200013c565b91506200029f608087016200013c565b90509295509295909350565b600181811c90821680620002c057607f821691505b60208210811415620002e257634e487b7160e01b600052602260045260246000fd5b50919050565b634e487b7160e01b600052604160045260246000fd5b60805160601c60a05160601c60c05160601c612cc0620003a06000396000818161030a015281816109b60152611139015260008181610194015281816104f70152818161077401528181610c2d01528181610ebb01526112190152600081816102bd015281816104c2015281816106e2015281816107a90152818161091001528181610aea01528181610b3101528181610e1601526111e50152612cc06000f3fe608060405234801561001057600080fd5b50600436106101375760003560e01c806395d89b41116100b8578063c55dae631161007c578063c55dae63146102b8578063dd62ed3e146102df578063ded998b9146102f2578063eb443eb014610305578063eba25b151461032c578063ed856cdc1461033457600080fd5b806395d89b411461026e578063a457c2d714610276578063a9059cbb14610289578063ba9a7a561461029c578063be7305a1146102a557600080fd5b80632cd611bc116100ff5780632cd611bc146101e1578063313ce567146101f657806339509351146102055780634d67a0a31461021857806370a082311461024557600080fd5b806306fdde031461013c578063095ea7b31461015a57806318160ddd1461017d578063217a4b701461018f57806323b872dd146101ce575b600080fd5b610144610347565b6040516101519190612aa4565b60405180910390f35b61016d610168366004612932565b6103d9565b6040519015158152602001610151565b6002545b604051908152602001610151565b6101b67f000000000000000000000000000000000000000000000000000000000000000081565b6040516001600160a01b039091168152602001610151565b61016d6101dc3660046128f2565b6103f3565b6101f46101ef366004612995565b610417565b005b60405160128152602001610151565b61016d610213366004612932565b61057d565b60065460075460085461022a92919083565b60408051938452602084019290925290820152606001610151565b610181610253366004612882565b6001600160a01b031660009081526020819052604090205490565b61014461059f565b61016d610284366004612932565b6105ae565b61016d610297366004612932565b610629565b6101816103e881565b6101f46102b3366004612995565b610637565b6101b67f000000000000000000000000000000000000000000000000000000000000000081565b6101816102ed3660046128ba565b61081a565b6101f4610300366004612a08565b610845565b6101b67f000000000000000000000000000000000000000000000000000000000000000081565b610181603281565b6101f46103423660046129c0565b610cad565b60606003805461035690612c27565b80601f016020809104026020016040519081016040528092919081815260200182805461038290612c27565b80156103cf5780601f106103a4576101008083540402835291602001916103cf565b820191906000526020600020905b8154815290600101906020018083116103b257829003601f168201915b5050505050905090565b6000336103e7818585611293565b60019150505b92915050565b6000336104018582856113b7565b61040c858585611431565b506001949350505050565b61041f6115d5565b80428110156104495760405162461bcd60e51b815260040161044090612b1e565b60405180910390fd5b831580159061045757508215155b6104a35760405162461bcd60e51b815260206004820181905260248201527f45786368616e67653a20494e53554646494349454e545f544f4b454e5f5154596044820152606401610440565b60006104b385856032600661162f565b90506104ea6001600160a01b037f00000000000000000000000000000000000000000000000000000000000000001633308861176d565b61051e6001600160a01b037f00000000000000000000000000000000000000000000000000000000000000001633836117d8565b60408051868152600060208201819052918101919091526060810182905233907f49926bbebe8474393f434dfa4f78694c0923efa07d19f2284518bfabd06eb737906080015b60405180910390a250506105786001600555565b505050565b6000336103e7818585610590838361081a565b61059a9190612b8d565b611293565b60606004805461035690612c27565b600033816105bc828661081a565b90508381101561061c5760405162461bcd60e51b815260206004820152602560248201527f45524332303a2064656372656173656420616c6c6f77616e63652062656c6f77604482015264207a65726f60d81b6064820152608401610440565b61040c8286868403611293565b6000336103e7818585611431565b61063f6115d5565b80428110156106605760405162461bcd60e51b815260040161044090612b1e565b831580159061066e57508215155b6106ba5760405162461bcd60e51b815260206004820181905260248201527f45786368616e67653a20494e53554646494349454e545f544f4b454e5f5154596044820152606401610440565b6040516370a0823160e01b815230600482015260009061076590869086906001600160a01b037f000000000000000000000000000000000000000000000000000000000000000016906370a082319060240160206040518083038186803b15801561072457600080fd5b505afa158015610738573d6000803e3d6000fd5b505050506040513d601f19601f8201168201806040525081019061075c919061297d565b60326006611808565b905061079c6001600160a01b037f00000000000000000000000000000000000000000000000000000000000000001633308861176d565b6107d06001600160a01b037f00000000000000000000000000000000000000000000000000000000000000001633836117d8565b60408051600080825260208201889052918101839052606081019190915233907f49926bbebe8474393f434dfa4f78694c0923efa07d19f2284518bfabd06eb73790608001610564565b6001600160a01b03918216600090815260016020908152604080832093909416825291909152205490565b61084d6115d5565b804281101561086e5760405162461bcd60e51b815260040161044090612b1e565b6000306001600160a01b03166318160ddd6040518163ffffffff1660e01b815260040160206040518083038186803b1580156108a957600080fd5b505afa1580156108bd573d6000803e3d6000fd5b505050506040513d601f19601f820116820180604052508101906108e1919061297d565b6040516370a0823160e01b8152306004820152909150600090610992908a908a908a908a906001600160a01b037f000000000000000000000000000000000000000000000000000000000000000016906370a082319060240160206040518083038186803b15801561095257600080fd5b505afa158015610966573d6000803e3d6000fd5b505050506040513d601f19601f8201168201806040525081019061098a919061297d565b87600661191c565b6007546006549192506109a491612bc5565b600855606081015115610a4f57610a4f7f00000000000000000000000000000000000000000000000000000000000000006001600160a01b031663412753586040518163ffffffff1660e01b815260040160206040518083038186803b158015610a0d57600080fd5b505afa158015610a21573d6000803e3d6000fd5b505050506040513d601f19601f82011682018060405250810190610a45919061289e565b8260600151611ca1565b81158015610ac5576103e8826040015111610aac5760405162461bcd60e51b815260206004820152601d60248201527f45786368616e67653a20494e495449414c5f4445504f5349545f4d494e0000006044820152606401610440565b6040820180516103e719019052610ac5306103e8611ca1565b610ad3868360400151611ca1565b815115610c10578151610b14906001600160a01b037f000000000000000000000000000000000000000000000000000000000000000016903390309061176d565b8015610c105781516040516370a0823160e01b81523060048201527f00000000000000000000000000000000000000000000000000000000000000006001600160a01b0316906370a082319060240160206040518083038186803b158015610b7b57600080fd5b505afa158015610b8f573d6000803e3d6000fd5b505050506040513d601f19601f82011682018060405250810190610bb3919061297d565b14610c105760405162461bcd60e51b815260206004820152602760248201527f45786368616e67653a204645455f4f4e5f5452414e534645525f4e4f545f5355604482015266141413d495115160ca1b6064820152608401610440565b602082015115610c57576020820151610c57906001600160a01b037f000000000000000000000000000000000000000000000000000000000000000016903390309061176d565b8151602080840151604080519384529183015233917f06239653922ac7bea6aa2b19dc486b9361821d37712eb796adfd38d81de278ca910160405180910390a250505050610ca56001600555565b505050505050565b610cb56115d5565b8042811015610cd65760405162461bcd60e51b815260040161044090612b1e565b306001600160a01b03166318160ddd6040518163ffffffff1660e01b815260040160206040518083038186803b158015610d0f57600080fd5b505afa158015610d23573d6000803e3d6000fd5b505050506040513d601f19601f82011682018060405250810190610d47919061297d565b610d935760405162461bcd60e51b815260206004820181905260248201527f45786368616e67653a20494e53554646494349454e545f4c49515549444954596044820152606401610440565b8415801590610da157508315155b610dfe5760405162461bcd60e51b815260206004820152602860248201527f45786368616e67653a204d494e535f4d5553545f42455f475245415445525f5460448201526748414e5f5a45524f60c01b6064820152608401610440565b6040516370a0823160e01b81523060048201526000907f00000000000000000000000000000000000000000000000000000000000000006001600160a01b0316906370a082319060240160206040518083038186803b158015610e6057600080fd5b505afa158015610e74573d6000803e3d6000fd5b505050506040513d601f19601f82011682018060405250810190610e98919061297d565b6040516370a0823160e01b81523060048201529091506000906001600160a01b037f000000000000000000000000000000000000000000000000000000000000000016906370a082319060240160206040518083038186803b158015610efd57600080fd5b505afa158015610f11573d6000803e3d6000fd5b505050506040513d601f19601f82011682018060405250810190610f35919061297d565b90506000306001600160a01b03166318160ddd6040518163ffffffff1660e01b815260040160206040518083038186803b158015610f7257600080fd5b505afa158015610f86573d6000803e3d6000fd5b505050506040513d601f19601f82011682018060405250810190610faa919061297d565b604080516060810182526006548152600754602082015260085491810191909152909150600090610fdc908390611d61565b9050610fe88183612b8d565b9150600082610ff7868d612bc5565b6110019190612ba5565b9050600083611010868e612bc5565b61101a9190612ba5565b90508a82101561106c5760405162461bcd60e51b815260206004820152601f60248201527f45786368616e67653a20494e53554646494349454e545f424153455f515459006044820152606401610440565b898110156110bc5760405162461bcd60e51b815260206004820181905260248201527f45786368616e67653a20494e53554646494349454e545f51554f54455f5154596044820152606401610440565b60006006600001549050600085828f6110d59190612bc5565b6110df9190612ba5565b90506110eb8183612be4565b60068190556007549092508084111561110b57506000600781905561111d565b6111158482612be4565b600781905590505b6111278184612bc5565b6008555050831590506111ce576111ce7f00000000000000000000000000000000000000000000000000000000000000006001600160a01b031663412753586040518163ffffffff1660e01b815260040160206040518083038186803b15801561119057600080fd5b505afa1580156111a4573d6000803e3d6000fd5b505050506040513d601f19601f820116820180604052508101906111c8919061289e565b84611ca1565b6111d8338d611dd4565b61120c6001600160a01b037f0000000000000000000000000000000000000000000000000000000000000000168a846117d8565b6112406001600160a01b037f0000000000000000000000000000000000000000000000000000000000000000168a836117d8565b604080518381526020810183905233917f0fbf06c058b90cb038a618f8c2acbf6145f8b3570fd1fa56abb8f0f3f05b36e8910160405180910390a25050505050505061128c6001600555565b5050505050565b6001600160a01b0383166112f55760405162461bcd60e51b8152602060048201526024808201527f45524332303a20617070726f76652066726f6d20746865207a65726f206164646044820152637265737360e01b6064820152608401610440565b6001600160a01b0382166113565760405162461bcd60e51b815260206004820152602260248201527f45524332303a20617070726f766520746f20746865207a65726f206164647265604482015261737360f01b6064820152608401610440565b6001600160a01b0383811660008181526001602090815260408083209487168084529482529182902085905590518481527f8c5be1e5ebec7d5bd14f71427d1e84f3dd0314c0f7b2291e5b200ac8c7c3b925910160405180910390a3505050565b60006113c3848461081a565b9050600019811461142b578181101561141e5760405162461bcd60e51b815260206004820152601d60248201527f45524332303a20696e73756666696369656e7420616c6c6f77616e63650000006044820152606401610440565b61142b8484848403611293565b50505050565b6001600160a01b0383166114955760405162461bcd60e51b815260206004820152602560248201527f45524332303a207472616e736665722066726f6d20746865207a65726f206164604482015264647265737360d81b6064820152608401610440565b6001600160a01b0382166114f75760405162461bcd60e51b815260206004820152602360248201527f45524332303a207472616e7366657220746f20746865207a65726f206164647260448201526265737360e81b6064820152608401610440565b6001600160a01b0383166000908152602081905260409020548181101561156f5760405162461bcd60e51b815260206004820152602660248201527f45524332303a207472616e7366657220616d6f756e7420657863656564732062604482015265616c616e636560d01b6064820152608401610440565b6001600160a01b03848116600081815260208181526040808320878703905593871680835291849020805487019055925185815290927fddf252ad1be2c89b69c2b068fc378daa952ba7f163c4a11628f55a4df523b3ef910160405180910390a361142b565b600260055414156116285760405162461bcd60e51b815260206004820152601f60248201527f5265656e7472616e637947756172643a207265656e7472616e742063616c6c006044820152606401610440565b6002600555565b6000841580159061163f57508315155b61168b5760405162461bcd60e51b815260206004820152601f60248201527f4d6174684c69623a20494e53554646494349454e545f544f4b454e5f515459006044820152606401610440565b61169f858360000154846001015486611f06565b90506116d26040518060400160405280600f81526020016e038bab7ba32aa37b5b2b728ba3c9d1608d1b81525082611f56565b838110156117305760405162461bcd60e51b815260206004820152602560248201527f4d6174684c69623a20494e53554646494349454e545f51554f54455f544f4b456044820152644e5f51545960d81b6064820152608401610440565b848260000160008282546117449190612b8d565b925050819055508082600101600082825461175f9190612be4565b909155509095945050505050565b6040516001600160a01b038085166024830152831660448201526064810182905261142b9085906323b872dd60e01b906084015b60408051601f198184030181529190526020810180516001600160e01b03166001600160e01b031990931692909217909152611f9b565b6040516001600160a01b03831660248201526044810182905261057890849063a9059cbb60e01b906064016117a1565b600083158015906118195750815415155b6118355760405162461bcd60e51b815260040161044090612b49565b815484101561187757600061185283600001548460010154612070565b905060006118608683612070565b905061186e88828888611f06565b9250505061188e565b61188b868360010154846000015486611f06565b90505b6118be6040518060400160405280600e81526020016d03130b9b2aa37b5b2b728ba3c9d160951b81525082611f56565b848110156118de5760405162461bcd60e51b815260040161044090612b49565b808260000160008282546118f29190612be4565b925050819055508582600101600082825461190d9190612b8d565b90915550909695505050505050565b6119476040518060800160405280600081526020016000815260200160008152602001600081525090565b8215611b845760408051606081018252835481526001840154602082015260028401549181019190915261197c908490611d61565b6060820181905261198d9084612b8d565b92506119c2848360405180606001604052908160008201548152602001600182015481526020016002820154815250506120ab565b15611b6557600080600084600001548711156119ee576119e48a8888886120fa565b9092509050611a2b565b611a258b600089898960405180606001604052908160008201548152602001600182015481526020016002820154815250506121ee565b90935090505b8982108015611a3957508a83105b15611a7557611a68611a4b848d612be4565b611a55848d612be4565b600080611a62868c612b8d565b8a61234e565b6040870152602086015284525b8284600001818151611a879190612b8d565b905250602084018051839190611a9e908390612b8d565b905250604084018051829190611ab5908390612b8d565b9052508351891115611b095760405162461bcd60e51b815260206004820152601e60248201527f4d6174684c69623a20494e53554646494349454e545f424153455f51545900006044820152606401610440565b8784602001511015611b5d5760405162461bcd60e51b815260206004820152601f60248201527f4d6174684c69623a20494e53554646494349454e545f51554f54455f515459006044820152606401610440565b505050611c96565b611b7388888888878761234e565b604084015260208301528152611c96565b87611be05760405162461bcd60e51b815260206004820152602660248201527f4d6174684c69623a20494e53554646494349454e545f424153455f5154595f446044820152651154d254915160d21b6064820152608401610440565b86611c3d5760405162461bcd60e51b815260206004820152602760248201527f4d6174684c69623a20494e53554646494349454e545f51554f54455f5154595f604482015266111154d254915160ca1b6064820152608401610440565b87815260208101879052611c59611c54888a612bc5565b61248c565b6040820152805182548390600090611c72908490612b8d565b90915550506020810151600183018054600090611c90908490612b8d565b90915550505b979650505050505050565b6001600160a01b038216611cf75760405162461bcd60e51b815260206004820152601f60248201527f45524332303a206d696e7420746f20746865207a65726f2061646472657373006044820152606401610440565b8060026000828254611d099190612b8d565b90915550506001600160a01b038216600081815260208181526040808320805486019055518481527fddf252ad1be2c89b69c2b068fc378daa952ba7f163c4a11628f55a4df523b3ef910160405180910390a35b5050565b600080611d7b83602001518460000151611c549190612bc5565b90506000611d8c846040015161248c565b905080821115611dcc576000611da28284612be4565b611dac9087612bc5565b90506000611dbb846002612bc5565b9050611dc78183612ba5565b945050505b505092915050565b6001600160a01b038216611e345760405162461bcd60e51b815260206004820152602160248201527f45524332303a206275726e2066726f6d20746865207a65726f206164647265736044820152607360f81b6064820152608401610440565b6001600160a01b03821660009081526020819052604090205481811015611ea85760405162461bcd60e51b815260206004820152602260248201527f45524332303a206275726e20616d6f756e7420657863656564732062616c616e604482015261636560f01b6064820152608401610440565b6001600160a01b0383166000818152602081815260408083208686039055600280548790039055518581529192917fddf252ad1be2c89b69c2b068fc378daa952ba7f163c4a11628f55a4df523b3ef910160405180910390a3505050565b600080611f1583612710612be4565b611f1f9087612bc5565b905080611f2e61271087612bc5565b611f389190612b8d565b611f428583612bc5565b611f4c9190612ba5565b9695505050505050565b611d5d8282604051602401611f6c929190612ab7565b60408051601f198184030181529190526020810180516001600160e01b03166309710a9d60e41b1790526124e5565b6000611ff0826040518060400160405280602081526020017f5361666545524332303a206c6f772d6c6576656c2063616c6c206661696c6564815250856001600160a01b03166125069092919063ffffffff16565b9050805160001480612011575080806020019051810190612011919061295d565b6105785760405162461bcd60e51b815260206004820152602a60248201527f5361666545524332303a204552433230206f7065726174696f6e20646964206e6044820152691bdd081cdd58d8d9595960b21b6064820152608401610440565b60008161207e600282612ba5565b612090670de0b6b3a764000086612bc5565b61209a9190612b8d565b6120a49190612ba5565b9392505050565b6000670de0b6b3a76400006120f1670de0b6b3a76400006120d086866000015161251d565b6120da9190612bc5565b6120ec85600001518660200151612070565b612070565b10159392505050565b600080600083600001548661210f9190612be4565b9050600061212585600001548660010154612070565b905060006121338383612070565b90508089111561214557809450612149565b8894505b6000670de0b6b3a764000061216f6121618589612bc5565b670de0b6b3a7640000612541565b6121799190612ba5565b9050806121985760405162461bcd60e51b815260040161044090612ad9565b808760000160008282546121ac9190612b8d565b92505081905550858760010160008282546121c79190612b8d565b925050819055506121df8989888a600101548761256e565b94505050505094509492505050565b60008060008584600001516122039190612be4565b9050808711156122555760405162461bcd60e51b815260206004820152601b60248201527f4d6174684c69623a20494e53554646494349454e545f444543415900000000006044820152606401610440565b8088111561226557809250612269565b8792505b600061227d85602001518660000151612070565b90506000670de0b6b3a76400006122976121618488612bc5565b6122a19190612ba5565b9050806122c05760405162461bcd60e51b815260040161044090612ad9565b6000670de0b6b3a76400006122d58486612bc5565b6122df9190612ba5565b90508061232e5760405162461bcd60e51b815260206004820152601760248201527f4d6174684c69623a204e4f5f51554f54455f44454341590000000000000000006044820152606401610440565b61233e8989888a600001516125e1565b9450505050509550959350505050565b6000806000806123678a8660000154876001015461262c565b90508881116123cb57868110156123c05760405162461bcd60e51b815260206004820152601f60248201527f4d6174684c69623a20494e53554646494349454e545f51554f54455f515459006044820152606401610440565b899350809250612438565b60006123e08a8760010154886000015461262c565b9050888110156124325760405162461bcd60e51b815260206004820152601e60248201527f4d6174684c69623a20494e53554646494349454e545f424153455f51545900006044820152606401610440565b93508892505b612447868487600101546126ea565b91508385600001600082825461245d9190612b8d565b92505081905550828560010160008282546124789190612b8d565b925050819055505096509650969350505050565b600080600261249c846001612b8d565b6124a69190612ba5565b90508291505b818110156124df579050806002816124c48186612ba5565b6124ce9190612b8d565b6124d89190612ba5565b90506124ac565b50919050565b80516a636f6e736f6c652e6c6f67602083016000808483855afa5050505050565b606061251584846000856126f7565b949350505050565b6000818310612537576125308284612be4565b90506103ed565b6120a48383612be4565b60008180612550600282612ba5565b61255a9086612b8d565b6125649190612ba5565b6120a49190612bc5565b60008061257b8784612070565b905060006125898583612b8d565b905060006125978783612070565b9050670de0b6b3a76400006125ca6125b86125b2838c612bc5565b846127c7565b6120ec84670de0b6b3a7640000612be4565b6125d49190612ba5565b9998505050505050505050565b600080836125ef8785612b8d565b6125f99190612b8d565b905060006126078583612070565b9050670de0b6b3a76400006126226125b86125b2838a612bc5565b611c969190612ba5565b60008361267b5760405162461bcd60e51b815260206004820152601960248201527f4d6174684c69623a20494e53554646494349454e545f515459000000000000006044820152606401610440565b821580159061268957508115155b6126d55760405162461bcd60e51b815260206004820152601f60248201527f4d6174684c69623a20494e53554646494349454e545f4c4951554944495459006044820152606401610440565b826126e08386612bc5565b6125159190612ba5565b6000816126e08585612bc5565b6060824710156127585760405162461bcd60e51b815260206004820152602660248201527f416464726573733a20696e73756666696369656e742062616c616e636520666f6044820152651c8818d85b1b60d21b6064820152608401610440565b600080866001600160a01b031685876040516127749190612a88565b60006040518083038185875af1925050503d80600081146127b1576040519150601f19603f3d011682016040523d82523d6000602084013e6127b6565b606091505b5091509150611c96878383876127e7565b6000670de0b6b3a76400006127dd600282612ba5565b6120908486612bc5565b6060831561285357825161284c576001600160a01b0385163b61284c5760405162461bcd60e51b815260206004820152601d60248201527f416464726573733a2063616c6c20746f206e6f6e2d636f6e74726163740000006044820152606401610440565b5081612515565b61251583838151156128685781518083602001fd5b8060405162461bcd60e51b81526004016104409190612aa4565b600060208284031215612893578081fd5b81356120a481612c72565b6000602082840312156128af578081fd5b81516120a481612c72565b600080604083850312156128cc578081fd5b82356128d781612c72565b915060208301356128e781612c72565b809150509250929050565b600080600060608486031215612906578081fd5b833561291181612c72565b9250602084013561292181612c72565b929592945050506040919091013590565b60008060408385031215612944578182fd5b823561294f81612c72565b946020939093013593505050565b60006020828403121561296e578081fd5b815180151581146120a4578182fd5b60006020828403121561298e578081fd5b5051919050565b6000806000606084860312156129a9578283fd5b505081359360208301359350604090920135919050565b600080600080600060a086880312156129d7578081fd5b85359450602086013593506040860135925060608601356129f781612c72565b949793965091946080013592915050565b60008060008060008060c08789031215612a20578081fd5b863595506020870135945060408701359350606087013592506080870135612a4781612c72565b8092505060a087013590509295509295509295565b60008151808452612a74816020860160208601612bfb565b601f01601f19169290920160200192915050565b60008251612a9a818460208701612bfb565b9190910192915050565b6020815260006120a46020830184612a5c565b604081526000612aca6040830185612a5c565b90508260208301529392505050565b60208082526025908201527f4d6174684c69623a20494e53554646494349454e545f4348414e47455f494e5f604082015264444543415960d81b606082015260800190565b602080825260119082015270115e18da185b99d94e8811561412549151607a1b604082015260600190565b60208082526024908201527f4d6174684c69623a20494e53554646494349454e545f424153455f544f4b454e6040820152635f51545960e01b606082015260800190565b60008219821115612ba057612ba0612c5c565b500190565b600082612bc057634e487b7160e01b81526012600452602481fd5b500490565b6000816000190483118215151615612bdf57612bdf612c5c565b500290565b600082821015612bf657612bf6612c5c565b500390565b60005b83811015612c16578181015183820152602001612bfe565b8381111561142b5750506000910152565b600181811c90821680612c3b57607f821691505b602082108114156124df57634e487b7160e01b600052602260045260246000fd5b634e487b7160e01b600052601160045260246000fd5b6001600160a01b0381168114612c8757600080fd5b5056fea2646970667358221220d3e426e768871233dee807235cd09739a06fe2ab7a76dd8877c037fb29878fad64736f6c63430008040033a264697066735822122080a69e5f764ba4891b37076cd8a803e0a00107f70d4c8ae288c34219b9baa48a64736f6c6343000804003360e06040523480156200001157600080fd5b50604051620030603803806200306083398101604081905262000034916200020c565b8451859085906200004d90600390602085019062000096565b5080516200006390600490602084019062000096565b50506001600555506001600160601b0319606093841b811660805291831b821660a05290911b1660c05250620002fe9050565b828054620000a490620002ab565b90600052602060002090601f016020900481019282620000c8576000855562000113565b82601f10620000e357805160ff191683800117855562000113565b8280016001018555821562000113579182015b8281111562000113578251825591602001919060010190620000f6565b506200012192915062000125565b5090565b5b8082111562000121576000815560010162000126565b80516001600160a01b03811681146200015457600080fd5b919050565b600082601f8301126200016a578081fd5b81516001600160401b0380821115620001875762000187620002e8565b604051601f8301601f19908116603f01168101908282118183101715620001b257620001b2620002e8565b81604052838152602092508683858801011115620001ce578485fd5b8491505b83821015620001f15785820183015181830184015290820190620001d2565b838211156200020257848385830101525b9695505050505050565b600080600080600060a0868803121562000224578081fd5b85516001600160401b03808211156200023b578283fd5b6200024989838a0162000159565b965060208801519150808211156200025f578283fd5b506200026e8882890162000159565b9450506200027f604087016200013c565b92506200028f606087016200013c565b91506200029f608087016200013c565b90509295509295909350565b600181811c90821680620002c057607f821691505b60208210811415620002e257634e487b7160e01b600052602260045260246000fd5b50919050565b634e487b7160e01b600052604160045260246000fd5b60805160601c60a05160601c60c05160601c612cc0620003a06000396000818161030a015281816109b60152611139015260008181610194015281816104f70152818161077401528181610c2d01528181610ebb01526112190152600081816102bd015281816104c2015281816106e2015281816107a90152818161091001528181610aea01528181610b3101528181610e1601526111e50152612cc06000f3fe608060405234801561001057600080fd5b50600436106101375760003560e01c806395d89b41116100b8578063c55dae631161007c578063c55dae63146102b8578063dd62ed3e146102df578063ded998b9146102f2578063eb443eb014610305578063eba25b151461032c578063ed856cdc1461033457600080fd5b806395d89b411461026e578063a457c2d714610276578063a9059cbb14610289578063ba9a7a561461029c578063be7305a1146102a557600080fd5b80632cd611bc116100ff5780632cd611bc146101e1578063313ce567146101f657806339509351146102055780634d67a0a31461021857806370a082311461024557600080fd5b806306fdde031461013c578063095ea7b31461015a57806318160ddd1461017d578063217a4b701461018f57806323b872dd146101ce575b600080fd5b610144610347565b6040516101519190612aa4565b60405180910390f35b61016d610168366004612932565b6103d9565b6040519015158152602001610151565b6002545b604051908152602001610151565b6101b67f000000000000000000000000000000000000000000000000000000000000000081565b6040516001600160a01b039091168152602001610151565b61016d6101dc3660046128f2565b6103f3565b6101f46101ef366004612995565b610417565b005b60405160128152602001610151565b61016d610213366004612932565b61057d565b60065460075460085461022a92919083565b60408051938452602084019290925290820152606001610151565b610181610253366004612882565b6001600160a01b031660009081526020819052604090205490565b61014461059f565b61016d610284366004612932565b6105ae565b61016d610297366004612932565b610629565b6101816103e881565b6101f46102b3366004612995565b610637565b6101b67f000000000000000000000000000000000000000000000000000000000000000081565b6101816102ed3660046128ba565b61081a565b6101f4610300366004612a08565b610845565b6101b67f000000000000000000000000000000000000000000000000000000000000000081565b610181603281565b6101f46103423660046129c0565b610cad565b60606003805461035690612c27565b80601f016020809104026020016040519081016040528092919081815260200182805461038290612c27565b80156103cf5780601f106103a4576101008083540402835291602001916103cf565b820191906000526020600020905b8154815290600101906020018083116103b257829003601f168201915b5050505050905090565b6000336103e7818585611293565b60019150505b92915050565b6000336104018582856113b7565b61040c858585611431565b506001949350505050565b61041f6115d5565b80428110156104495760405162461bcd60e51b815260040161044090612b1e565b60405180910390fd5b831580159061045757508215155b6104a35760405162461bcd60e51b815260206004820181905260248201527f45786368616e67653a20494e53554646494349454e545f544f4b454e5f5154596044820152606401610440565b60006104b385856032600661162f565b90506104ea6001600160a01b037f00000000000000000000000000000000000000000000000000000000000000001633308861176d565b61051e6001600160a01b037f00000000000000000000000000000000000000000000000000000000000000001633836117d8565b60408051868152600060208201819052918101919091526060810182905233907f49926bbebe8474393f434dfa4f78694c0923efa07d19f2284518bfabd06eb737906080015b60405180910390a250506105786001600555565b505050565b6000336103e7818585610590838361081a565b61059a9190612b8d565b611293565b60606004805461035690612c27565b600033816105bc828661081a565b90508381101561061c5760405162461bcd60e51b815260206004820152602560248201527f45524332303a2064656372656173656420616c6c6f77616e63652062656c6f77604482015264207a65726f60d81b6064820152608401610440565b61040c8286868403611293565b6000336103e7818585611431565b61063f6115d5565b80428110156106605760405162461bcd60e51b815260040161044090612b1e565b831580159061066e57508215155b6106ba5760405162461bcd60e51b815260206004820181905260248201527f45786368616e67653a20494e53554646494349454e545f544f4b454e5f5154596044820152606401610440565b6040516370a0823160e01b815230600482015260009061076590869086906001600160a01b037f000000000000000000000000000000000000000000000000000000000000000016906370a082319060240160206040518083038186803b15801561072457600080fd5b505afa158015610738573d6000803e3d6000fd5b505050506040513d601f19601f8201168201806040525081019061075c919061297d565b60326006611808565b905061079c6001600160a01b037f00000000000000000000000000000000000000000000000000000000000000001633308861176d565b6107d06001600160a01b037f00000000000000000000000000000000000000000000000000000000000000001633836117d8565b60408051600080825260208201889052918101839052606081019190915233907f49926bbebe8474393f434dfa4f78694c0923efa07d19f2284518bfabd06eb73790608001610564565b6001600160a01b03918216600090815260016020908152604080832093909416825291909152205490565b61084d6115d5565b804281101561086e5760405162461bcd60e51b815260040161044090612b1e565b6000306001600160a01b03166318160ddd6040518163ffffffff1660e01b815260040160206040518083038186803b1580156108a957600080fd5b505afa1580156108bd573d6000803e3d6000fd5b505050506040513d601f19601f820116820180604052508101906108e1919061297d565b6040516370a0823160e01b8152306004820152909150600090610992908a908a908a908a906001600160a01b037f000000000000000000000000000000000000000000000000000000000000000016906370a082319060240160206040518083038186803b15801561095257600080fd5b505afa158015610966573d6000803e3d6000fd5b505050506040513d601f19601f8201168201806040525081019061098a919061297d565b87600661191c565b6007546006549192506109a491612bc5565b600855606081015115610a4f57610a4f7f00000000000000000000000000000000000000000000000000000000000000006001600160a01b031663412753586040518163ffffffff1660e01b815260040160206040518083038186803b158015610a0d57600080fd5b505afa158015610a21573d6000803e3d6000fd5b505050506040513d601f19601f82011682018060405250810190610a45919061289e565b8260600151611ca1565b81158015610ac5576103e8826040015111610aac5760405162461bcd60e51b815260206004820152601d60248201527f45786368616e67653a20494e495449414c5f4445504f5349545f4d494e0000006044820152606401610440565b6040820180516103e719019052610ac5306103e8611ca1565b610ad3868360400151611ca1565b815115610c10578151610b14906001600160a01b037f000000000000000000000000000000000000000000000000000000000000000016903390309061176d565b8015610c105781516040516370a0823160e01b81523060048201527f00000000000000000000000000000000000000000000000000000000000000006001600160a01b0316906370a082319060240160206040518083038186803b158015610b7b57600080fd5b505afa158015610b8f573d6000803e3d6000fd5b505050506040513d601f19601f82011682018060405250810190610bb3919061297d565b14610c105760405162461bcd60e51b815260206004820152602760248201527f45786368616e67653a204645455f4f4e5f5452414e534645525f4e4f545f5355604482015266141413d495115160ca1b6064820152608401610440565b602082015115610c57576020820151610c57906001600160a01b037f000000000000000000000000000000000000000000000000000000000000000016903390309061176d565b8151602080840151604080519384529183015233917f06239653922ac7bea6aa2b19dc486b9361821d37712eb796adfd38d81de278ca910160405180910390a250505050610ca56001600555565b505050505050565b610cb56115d5565b8042811015610cd65760405162461bcd60e51b815260040161044090612b1e565b306001600160a01b03166318160ddd6040518163ffffffff1660e01b815260040160206040518083038186803b158015610d0f57600080fd5b505afa158015610d23573d6000803e3d6000fd5b505050506040513d601f19601f82011682018060405250810190610d47919061297d565b610d935760405162461bcd60e51b815260206004820181905260248201527f45786368616e67653a20494e53554646494349454e545f4c49515549444954596044820152606401610440565b8415801590610da157508315155b610dfe5760405162461bcd60e51b815260206004820152602860248201527f45786368616e67653a204d494e535f4d5553545f42455f475245415445525f5460448201526748414e5f5a45524f60c01b6064820152608401610440565b6040516370a0823160e01b81523060048201526000907f00000000000000000000000000000000000000000000000000000000000000006001600160a01b0316906370a082319060240160206040518083038186803b158015610e6057600080fd5b505afa158015610e74573d6000803e3d6000fd5b505050506040513d601f19601f82011682018060405250810190610e98919061297d565b6040516370a0823160e01b81523060048201529091506000906001600160a01b037f000000000000000000000000000000000000000000000000000000000000000016906370a082319060240160206040518083038186803b158015610efd57600080fd5b505afa158015610f11573d6000803e3d6000fd5b505050506040513d601f19601f82011682018060405250810190610f35919061297d565b90506000306001600160a01b03166318160ddd6040518163ffffffff1660e01b815260040160206040518083038186803b158015610f7257600080fd5b505afa158015610f86573d6000803e3d6000fd5b505050506040513d601f19601f82011682018060405250810190610faa919061297d565b604080516060810182526006548152600754602082015260085491810191909152909150600090610fdc908390611d61565b9050610fe88183612b8d565b9150600082610ff7868d612bc5565b6110019190612ba5565b9050600083611010868e612bc5565b61101a9190612ba5565b90508a82101561106c5760405162461bcd60e51b815260206004820152601f60248201527f45786368616e67653a20494e53554646494349454e545f424153455f515459006044820152606401610440565b898110156110bc5760405162461bcd60e51b815260206004820181905260248201527f45786368616e67653a20494e53554646494349454e545f51554f54455f5154596044820152606401610440565b60006006600001549050600085828f6110d59190612bc5565b6110df9190612ba5565b90506110eb8183612be4565b60068190556007549092508084111561110b57506000600781905561111d565b6111158482612be4565b600781905590505b6111278184612bc5565b6008555050831590506111ce576111ce7f00000000000000000000000000000000000000000000000000000000000000006001600160a01b031663412753586040518163ffffffff1660e01b815260040160206040518083038186803b15801561119057600080fd5b505afa1580156111a4573d6000803e3d6000fd5b505050506040513d601f19601f820116820180604052508101906111c8919061289e565b84611ca1565b6111d8338d611dd4565b61120c6001600160a01b037f0000000000000000000000000000000000000000000000000000000000000000168a846117d8565b6112406001600160a01b037f0000000000000000000000000000000000000000000000000000000000000000168a836117d8565b604080518381526020810183905233917f0fbf06c058b90cb038a618f8c2acbf6145f8b3570fd1fa56abb8f0f3f05b36e8910160405180910390a25050505050505061128c6001600555565b5050505050565b6001600160a01b0383166112f55760405162461bcd60e51b8152602060048201526024808201527f45524332303a20617070726f76652066726f6d20746865207a65726f206164646044820152637265737360e01b6064820152608401610440565b6001600160a01b0382166113565760405162461bcd60e51b815260206004820152602260248201527f45524332303a20617070726f766520746f20746865207a65726f206164647265604482015261737360f01b6064820152608401610440565b6001600160a01b0383811660008181526001602090815260408083209487168084529482529182902085905590518481527f8c5be1e5ebec7d5bd14f71427d1e84f3dd0314c0f7b2291e5b200ac8c7c3b925910160405180910390a3505050565b60006113c3848461081a565b9050600019811461142b578181101561141e5760405162461bcd60e51b815260206004820152601d60248201527f45524332303a20696e73756666696369656e7420616c6c6f77616e63650000006044820152606401610440565b61142b8484848403611293565b50505050565b6001600160a01b0383166114955760405162461bcd60e51b815260206004820152602560248201527f45524332303a207472616e736665722066726f6d20746865207a65726f206164604482015264647265737360d81b6064820152608401610440565b6001600160a01b0382166114f75760405162461bcd60e51b815260206004820152602360248201527f45524332303a207472616e7366657220746f20746865207a65726f206164647260448201526265737360e81b6064820152608401610440565b6001600160a01b0383166000908152602081905260409020548181101561156f5760405162461bcd60e51b815260206004820152602660248201527f45524332303a207472616e7366657220616d6f756e7420657863656564732062604482015265616c616e636560d01b6064820152608401610440565b6001600160a01b03848116600081815260208181526040808320878703905593871680835291849020805487019055925185815290927fddf252ad1be2c89b69c2b068fc378daa952ba7f163c4a11628f55a4df523b3ef910160405180910390a361142b565b600260055414156116285760405162461bcd60e51b815260206004820152601f60248201527f5265656e7472616e637947756172643a207265656e7472616e742063616c6c006044820152606401610440565b6002600555565b6000841580159061163f57508315155b61168b5760405162461bcd60e51b815260206004820152601f60248201527f4d6174684c69623a20494e53554646494349454e545f544f4b454e5f515459006044820152606401610440565b61169f858360000154846001015486611f06565b90506116d26040518060400160405280600f81526020016e038bab7ba32aa37b5b2b728ba3c9d1608d1b81525082611f56565b838110156117305760405162461bcd60e51b815260206004820152602560248201527f4d6174684c69623a20494e53554646494349454e545f51554f54455f544f4b456044820152644e5f51545960d81b6064820152608401610440565b848260000160008282546117449190612b8d565b925050819055508082600101600082825461175f9190612be4565b909155509095945050505050565b6040516001600160a01b038085166024830152831660448201526064810182905261142b9085906323b872dd60e01b906084015b60408051601f198184030181529190526020810180516001600160e01b03166001600160e01b031990931692909217909152611f9b565b6040516001600160a01b03831660248201526044810182905261057890849063a9059cbb60e01b906064016117a1565b600083158015906118195750815415155b6118355760405162461bcd60e51b815260040161044090612b49565b815484101561187757600061185283600001548460010154612070565b905060006118608683612070565b905061186e88828888611f06565b9250505061188e565b61188b868360010154846000015486611f06565b90505b6118be6040518060400160405280600e81526020016d03130b9b2aa37b5b2b728ba3c9d160951b81525082611f56565b848110156118de5760405162461bcd60e51b815260040161044090612b49565b808260000160008282546118f29190612be4565b925050819055508582600101600082825461190d9190612b8d565b90915550909695505050505050565b6119476040518060800160405280600081526020016000815260200160008152602001600081525090565b8215611b845760408051606081018252835481526001840154602082015260028401549181019190915261197c908490611d61565b6060820181905261198d9084612b8d565b92506119c2848360405180606001604052908160008201548152602001600182015481526020016002820154815250506120ab565b15611b6557600080600084600001548711156119ee576119e48a8888886120fa565b9092509050611a2b565b611a258b600089898960405180606001604052908160008201548152602001600182015481526020016002820154815250506121ee565b90935090505b8982108015611a3957508a83105b15611a7557611a68611a4b848d612be4565b611a55848d612be4565b600080611a62868c612b8d565b8a61234e565b6040870152602086015284525b8284600001818151611a879190612b8d565b905250602084018051839190611a9e908390612b8d565b905250604084018051829190611ab5908390612b8d565b9052508351891115611b095760405162461bcd60e51b815260206004820152601e60248201527f4d6174684c69623a20494e53554646494349454e545f424153455f51545900006044820152606401610440565b8784602001511015611b5d5760405162461bcd60e51b815260206004820152601f60248201527f4d6174684c69623a20494e53554646494349454e545f51554f54455f515459006044820152606401610440565b505050611c96565b611b7388888888878761234e565b604084015260208301528152611c96565b87611be05760405162461bcd60e51b815260206004820152602660248201527f4d6174684c69623a20494e53554646494349454e545f424153455f5154595f446044820152651154d254915160d21b6064820152608401610440565b86611c3d5760405162461bcd60e51b815260206004820152602760248201527f4d6174684c69623a20494e53554646494349454e545f51554f54455f5154595f604482015266111154d254915160ca1b6064820152608401610440565b87815260208101879052611c59611c54888a612bc5565b61248c565b6040820152805182548390600090611c72908490612b8d565b90915550506020810151600183018054600090611c90908490612b8d565b90915550505b979650505050505050565b6001600160a01b038216611cf75760405162461bcd60e51b815260206004820152601f60248201527f45524332303a206d696e7420746f20746865207a65726f2061646472657373006044820152606401610440565b8060026000828254611d099190612b8d565b90915550506001600160a01b038216600081815260208181526040808320805486019055518481527fddf252ad1be2c89b69c2b068fc378daa952ba7f163c4a11628f55a4df523b3ef910160405180910390a35b5050565b600080611d7b83602001518460000151611c549190612bc5565b90506000611d8c846040015161248c565b905080821115611dcc576000611da28284612be4565b611dac9087612bc5565b90506000611dbb846002612bc5565b9050611dc78183612ba5565b945050505b505092915050565b6001600160a01b038216611e345760405162461bcd60e51b815260206004820152602160248201527f45524332303a206275726e2066726f6d20746865207a65726f206164647265736044820152607360f81b6064820152608401610440565b6001600160a01b03821660009081526020819052604090205481811015611ea85760405162461bcd60e51b815260206004820152602260248201527f45524332303a206275726e20616d6f756e7420657863656564732062616c616e604482015261636560f01b6064820152608401610440565b6001600160a01b0383166000818152602081815260408083208686039055600280548790039055518581529192917fddf252ad1be2c89b69c2b068fc378daa952ba7f163c4a11628f55a4df523b3ef910160405180910390a3505050565b600080611f1583612710612be4565b611f1f9087612bc5565b905080611f2e61271087612bc5565b611f389190612b8d565b611f428583612bc5565b611f4c9190612ba5565b9695505050505050565b611d5d8282604051602401611f6c929190612ab7565b60408051601f198184030181529190526020810180516001600160e01b03166309710a9d60e41b1790526124e5565b6000611ff0826040518060400160405280602081526020017f5361666545524332303a206c6f772d6c6576656c2063616c6c206661696c6564815250856001600160a01b03166125069092919063ffffffff16565b9050805160001480612011575080806020019051810190612011919061295d565b6105785760405162461bcd60e51b815260206004820152602a60248201527f5361666545524332303a204552433230206f7065726174696f6e20646964206e6044820152691bdd081cdd58d8d9595960b21b6064820152608401610440565b60008161207e600282612ba5565b612090670de0b6b3a764000086612bc5565b61209a9190612b8d565b6120a49190612ba5565b9392505050565b6000670de0b6b3a76400006120f1670de0b6b3a76400006120d086866000015161251d565b6120da9190612bc5565b6120ec85600001518660200151612070565b612070565b10159392505050565b600080600083600001548661210f9190612be4565b9050600061212585600001548660010154612070565b905060006121338383612070565b90508089111561214557809450612149565b8894505b6000670de0b6b3a764000061216f6121618589612bc5565b670de0b6b3a7640000612541565b6121799190612ba5565b9050806121985760405162461bcd60e51b815260040161044090612ad9565b808760000160008282546121ac9190612b8d565b92505081905550858760010160008282546121c79190612b8d565b925050819055506121df8989888a600101548761256e565b94505050505094509492505050565b60008060008584600001516122039190612be4565b9050808711156122555760405162461bcd60e51b815260206004820152601b60248201527f4d6174684c69623a20494e53554646494349454e545f444543415900000000006044820152606401610440565b8088111561226557809250612269565b8792505b600061227d85602001518660000151612070565b90506000670de0b6b3a76400006122976121618488612bc5565b6122a19190612ba5565b9050806122c05760405162461bcd60e51b815260040161044090612ad9565b6000670de0b6b3a76400006122d58486612bc5565b6122df9190612ba5565b90508061232e5760405162461bcd60e51b815260206004820152601760248201527f4d6174684c69623a204e4f5f51554f54455f44454341590000000000000000006044820152606401610440565b61233e8989888a600001516125e1565b9450505050509550959350505050565b6000806000806123678a8660000154876001015461262c565b90508881116123cb57868110156123c05760405162461bcd60e51b815260206004820152601f60248201527f4d6174684c69623a20494e53554646494349454e545f51554f54455f515459006044820152606401610440565b899350809250612438565b60006123e08a8760010154886000015461262c565b9050888110156124325760405162461bcd60e51b815260206004820152601e60248201527f4d6174684c69623a20494e53554646494349454e545f424153455f51545900006044820152606401610440565b93508892505b612447868487600101546126ea565b91508385600001600082825461245d9190612b8d565b92505081905550828560010160008282546124789190612b8d565b925050819055505096509650969350505050565b600080600261249c846001612b8d565b6124a69190612ba5565b90508291505b818110156124df579050806002816124c48186612ba5565b6124ce9190612b8d565b6124d89190612ba5565b90506124ac565b50919050565b80516a636f6e736f6c652e6c6f67602083016000808483855afa5050505050565b606061251584846000856126f7565b949350505050565b6000818310612537576125308284612be4565b90506103ed565b6120a48383612be4565b60008180612550600282612ba5565b61255a9086612b8d565b6125649190612ba5565b6120a49190612bc5565b60008061257b8784612070565b905060006125898583612b8d565b905060006125978783612070565b9050670de0b6b3a76400006125ca6125b86125b2838c612bc5565b846127c7565b6120ec84670de0b6b3a7640000612be4565b6125d49190612ba5565b9998505050505050505050565b600080836125ef8785612b8d565b6125f99190612b8d565b905060006126078583612070565b9050670de0b6b3a76400006126226125b86125b2838a612bc5565b611c969190612ba5565b60008361267b5760405162461bcd60e51b815260206004820152601960248201527f4d6174684c69623a20494e53554646494349454e545f515459000000000000006044820152606401610440565b821580159061268957508115155b6126d55760405162461bcd60e51b815260206004820152601f60248201527f4d6174684c69623a20494e53554646494349454e545f4c4951554944495459006044820152606401610440565b826126e08386612bc5565b6125159190612ba5565b6000816126e08585612bc5565b6060824710156127585760405162461bcd60e51b815260206004820152602660248201527f416464726573733a20696e73756666696369656e742062616c616e636520666f6044820152651c8818d85b1b60d21b6064820152608401610440565b600080866001600160a01b031685876040516127749190612a88565b60006040518083038185875af1925050503d80600081146127b1576040519150601f19603f3d011682016040523d82523d6000602084013e6127b6565b606091505b5091509150611c96878383876127e7565b6000670de0b6b3a76400006127dd600282612ba5565b6120908486612bc5565b6060831561285357825161284c576001600160a01b0385163b61284c5760405162461bcd60e51b815260206004820152601d60248201527f416464726573733a2063616c6c20746f206e6f6e2d636f6e74726163740000006044820152606401610440565b5081612515565b61251583838151156128685781518083602001fd5b8060405162461bcd60e51b81526004016104409190612aa4565b600060208284031215612893578081fd5b81356120a481612c72565b6000602082840312156128af578081fd5b81516120a481612c72565b600080604083850312156128cc578081fd5b82356128d781612c72565b915060208301356128e781612c72565b809150509250929050565b600080600060608486031215612906578081fd5b833561291181612c72565b9250602084013561292181612c72565b929592945050506040919091013590565b60008060408385031215612944578182fd5b823561294f81612c72565b946020939093013593505050565b60006020828403121561296e578081fd5b815180151581146120a4578182fd5b60006020828403121561298e578081fd5b5051919050565b6000806000606084860312156129a9578283fd5b505081359360208301359350604090920135919050565b600080600080600060a086880312156129d7578081fd5b85359450602086013593506040860135925060608601356129f781612c72565b949793965091946080013592915050565b60008060008060008060c08789031215612a20578081fd5b863595506020870135945060408701359350606087013592506080870135612a4781612c72565b8092505060a087013590509295509295509295565b60008151808452612a74816020860160208601612bfb565b601f01601f19169290920160200192915050565b60008251612a9a818460208701612bfb565b9190910192915050565b6020815260006120a46020830184612a5c565b604081526000612aca6040830185612a5c565b90508260208301529392505050565b60208082526025908201527f4d6174684c69623a20494e53554646494349454e545f4348414e47455f494e5f604082015264444543415960d81b606082015260800190565b602080825260119082015270115e18da185b99d94e8811561412549151607a1b604082015260600190565b60208082526024908201527f4d6174684c69623a20494e53554646494349454e545f424153455f544f4b454e6040820152635f51545960e01b606082015260800190565b60008219821115612ba057612ba0612c5c565b500190565b600082612bc057634e487b7160e01b81526012600452602481fd5b500490565b6000816000190483118215151615612bdf57612bdf612c5c565b500290565b600082821015612bf657612bf6612c5c565b500390565b60005b83811015612c16578181015183820152602001612bfe565b8381111561142b5750506000910152565b600181811c90821680612c3b57607f821691505b602082108114156124df57634e487b7160e01b600052602260045260246000fd5b634e487b7160e01b600052601160045260246000fd5b6001600160a01b0381168114612c8757600080fd5b5056fea2646970667358221220d3e426e768871233dee807235cd09739a06fe2ab7a76dd8877c037fb29878fad64736f6c6343000804003360806040523480156200001157600080fd5b50604051620010093803806200100983398101604081905262000034916200031a565b838383838383816003908051906020019062000052929190620001c1565b50805162000068906004906020840190620001c1565b5050506200007d8183620000a560201b60201c565b505050506200009b620000956200016b60201b60201c565b6200016f565b5050505062000423565b6001600160a01b038216620001005760405162461bcd60e51b815260206004820152601f60248201527f45524332303a206d696e7420746f20746865207a65726f206164647265737300604482015260640160405180910390fd5b8060026000828254620001149190620003ab565b90915550506001600160a01b038216600081815260208181526040808320805486019055518481527fddf252ad1be2c89b69c2b068fc378daa952ba7f163c4a11628f55a4df523b3ef910160405180910390a35050565b3390565b600580546001600160a01b038381166001600160a01b0319831681179093556040519116919082907f8be0079c531659141344cd1fd0a4f28419497f9722a3daafe3b4186f6b6457e090600090a35050565b828054620001cf90620003d0565b90600052602060002090601f016020900481019282620001f357600085556200023e565b82601f106200020e57805160ff19168380011785556200023e565b828001600101855582156200023e579182015b828111156200023e57825182559160200191906001019062000221565b506200024c92915062000250565b5090565b5b808211156200024c576000815560010162000251565b600082601f83011262000278578081fd5b81516001600160401b03808211156200029557620002956200040d565b604051601f8301601f19908116603f01168101908282118183101715620002c057620002c06200040d565b81604052838152602092508683858801011115620002dc578485fd5b8491505b83821015620002ff5785820183015181830184015290820190620002e0565b838211156200031057848385830101525b9695505050505050565b6000806000806080858703121562000330578384fd5b84516001600160401b038082111562000347578586fd5b620003558883890162000267565b955060208701519150808211156200036b578485fd5b506200037a8782880162000267565b60408701516060880151919550935090506001600160a01b0381168114620003a0578182fd5b939692955090935050565b60008219821115620003cb57634e487b7160e01b81526011600452602481fd5b500190565b600181811c90821680620003e557607f821691505b602082108114156200040757634e487b7160e01b600052602260045260246000fd5b50919050565b634e487b7160e01b600052604160045260246000fd5b610bd680620004336000396000f3fe608060405234801561001057600080fd5b506004361061010b5760003560e01c806370a08231116100a257806395d89b411161007157806395d89b411461021f578063a457c2d714610227578063a9059cbb1461023a578063dd62ed3e1461024d578063f2fde38b1461026057600080fd5b806370a08231146101c0578063715018a6146101e957806379cc6790146101f15780638da5cb5b1461020457600080fd5b806323b872dd116100de57806323b872dd14610178578063313ce5671461018b578063395093511461019a57806342966c68146101ad57600080fd5b806306fdde0314610110578063095ea7b31461012e57806318160ddd14610151578063192a06d614610163575b600080fd5b610118610273565b6040516101259190610aee565b60405180910390f35b61014161013c366004610aad565b610305565b6040519015158152602001610125565b6002545b604051908152602001610125565b610176610171366004610aad565b61031d565b005b610141610186366004610a72565b610334565b60405160128152602001610125565b6101416101a8366004610aad565b610358565b6101766101bb366004610ad6565b61037a565b6101556101ce366004610a1f565b6001600160a01b031660009081526020819052604090205490565b610176610387565b6101766101ff366004610aad565b61039b565b6005546040516001600160a01b039091168152602001610125565b6101186103b0565b610141610235366004610aad565b6103bf565b610141610248366004610aad565b61043f565b61015561025b366004610a40565b61044d565b61017661026e366004610a1f565b610478565b60606003805461028290610b65565b80601f01602080910402602001604051908101604052809291908181526020018280546102ae90610b65565b80156102fb5780601f106102d0576101008083540402835291602001916102fb565b820191906000526020600020905b8154815290600101906020018083116102de57829003601f168201915b5050505050905090565b6000336103138185856104ee565b5060019392505050565b610325610613565b61033082308361066d565b5050565b600033610342858285610813565b61034d85858561066d565b506001949350505050565b60003361031381858561036b838361044d565b6103759190610b41565b6104ee565b6103843382610887565b50565b61038f610613565b61039960006109b1565b565b6103a6823383610813565b6103308282610887565b60606004805461028290610b65565b600033816103cd828661044d565b9050838110156104325760405162461bcd60e51b815260206004820152602560248201527f45524332303a2064656372656173656420616c6c6f77616e63652062656c6f77604482015264207a65726f60d81b60648201526084015b60405180910390fd5b61034d82868684036104ee565b60003361031381858561066d565b6001600160a01b03918216600090815260016020908152604080832093909416825291909152205490565b610480610613565b6001600160a01b0381166104e55760405162461bcd60e51b815260206004820152602660248201527f4f776e61626c653a206e6577206f776e657220697320746865207a65726f206160448201526564647265737360d01b6064820152608401610429565b610384816109b1565b6001600160a01b0383166105505760405162461bcd60e51b8152602060048201526024808201527f45524332303a20617070726f76652066726f6d20746865207a65726f206164646044820152637265737360e01b6064820152608401610429565b6001600160a01b0382166105b15760405162461bcd60e51b815260206004820152602260248201527f45524332303a20617070726f766520746f20746865207a65726f206164647265604482015261737360f01b6064820152608401610429565b6001600160a01b0383811660008181526001602090815260408083209487168084529482529182902085905590518481527f8c5be1e5ebec7d5bd14f71427d1e84f3dd0314c0f7b2291e5b200ac8c7c3b92591015b60405180910390a3505050565b6005546001600160a01b031633146103995760405162461bcd60e51b815260206004820181905260248201527f4f776e61626c653a2063616c6c6572206973206e6f7420746865206f776e65726044820152606401610429565b6001600160a01b0383166106d15760405162461bcd60e51b815260206004820152602560248201527f45524332303a207472616e736665722066726f6d20746865207a65726f206164604482015264647265737360d81b6064820152608401610429565b6001600160a01b0382166107335760405162461bcd60e51b815260206004820152602360248201527f45524332303a207472616e7366657220746f20746865207a65726f206164647260448201526265737360e81b6064820152608401610429565b6001600160a01b038316600090815260208190526040902054818110156107ab5760405162461bcd60e51b815260206004820152602660248201527f45524332303a207472616e7366657220616d6f756e7420657863656564732062604482015265616c616e636560d01b6064820152608401610429565b6001600160a01b03848116600081815260208181526040808320878703905593871680835291849020805487019055925185815290927fddf252ad1be2c89b69c2b068fc378daa952ba7f163c4a11628f55a4df523b3ef910160405180910390a35b50505050565b600061081f848461044d565b9050600019811461080d578181101561087a5760405162461bcd60e51b815260206004820152601d60248201527f45524332303a20696e73756666696369656e7420616c6c6f77616e63650000006044820152606401610429565b61080d84848484036104ee565b6001600160a01b0382166108e75760405162461bcd60e51b815260206004820152602160248201527f45524332303a206275726e2066726f6d20746865207a65726f206164647265736044820152607360f81b6064820152608401610429565b6001600160a01b0382166000908152602081905260409020548181101561095b5760405162461bcd60e51b815260206004820152602260248201527f45524332303a206275726e20616d6f756e7420657863656564732062616c616e604482015261636560f01b6064820152608401610429565b6001600160a01b0383166000818152602081815260408083208686039055600280548790039055518581529192917fddf252ad1be2c89b69c2b068fc378daa952ba7f163c4a11628f55a4df523b3ef9101610606565b600580546001600160a01b038381166001600160a01b0319831681179093556040519116919082907f8be0079c531659141344cd1fd0a4f28419497f9722a3daafe3b4186f6b6457e090600090a35050565b80356001600160a01b0381168114610a1a57600080fd5b919050565b600060208284031215610a30578081fd5b610a3982610a03565b9392505050565b60008060408385031215610a52578081fd5b610a5b83610a03565b9150610a6960208401610a03565b90509250929050565b600080600060608486031215610a86578081fd5b610a8f84610a03565b9250610a9d60208501610a03565b9150604084013590509250925092565b60008060408385031215610abf578182fd5b610ac883610a03565b946020939093013593505050565b600060208284031215610ae7578081fd5b5035919050565b6000602080835283518082850152825b81811015610b1a57858101830151858201604001528201610afe565b81811115610b2b5783604083870101525b50601f01601f1916929092016040019392505050565b60008219821115610b6057634e487b7160e01b81526011600452602481fd5b500190565b600181811c90821680610b7957607f821691505b60208210811415610b9a57634e487b7160e01b600052602260045260246000fd5b5091905056fea26469706673582212204a87f0f00a1552d028f2994e2de88dbddc52429234e4e0ccdb7ef58bb9c5284664736f6c6343000804003360806040523480156200001157600080fd5b5060405162000bd338038062000bd38339810160408190526200003491620001c7565b8151829082906200004d9060039060208501906200006e565b508051620000639060049060208401906200006e565b505050505062000281565b8280546200007c906200022e565b90600052602060002090601f016020900481019282620000a05760008555620000eb565b82601f10620000bb57805160ff1916838001178555620000eb565b82800160010185558215620000eb579182015b82811115620000eb578251825591602001919060010190620000ce565b50620000f9929150620000fd565b5090565b5b80821115620000f95760008155600101620000fe565b600082601f83011262000125578081fd5b81516001600160401b03808211156200014257620001426200026b565b604051601f8301601f19908116603f011681019082821181831017156200016d576200016d6200026b565b8160405283815260209250868385880101111562000189578485fd5b8491505b83821015620001ac57858201830151818301840152908201906200018d565b83821115620001bd57848385830101525b9695505050505050565b60008060408385031215620001da578182fd5b82516001600160401b0380821115620001f1578384fd5b620001ff8683870162000114565b9350602085015191508082111562000215578283fd5b50620002248582860162000114565b9150509250929050565b600181811c908216806200024357607f821691505b602082108114156200026557634e487b7160e01b600052602260045260246000fd5b50919050565b634e487b7160e01b600052604160045260246000fd5b61094280620002916000396000f3fe608060405234801561001057600080fd5b50600436106100b45760003560e01c806340c10f191161007157806340c10f191461014157806370a082311461015657806395d89b411461017f578063a457c2d714610187578063a9059cbb1461019a578063dd62ed3e146101ad57600080fd5b806306fdde03146100b9578063095ea7b3146100d757806318160ddd146100fa57806323b872dd1461010c578063313ce5671461011f578063395093511461012e575b600080fd5b6100c16101c0565b6040516100ce919061085a565b60405180910390f35b6100ea6100e5366004610831565b610252565b60405190151581526020016100ce565b6002545b6040519081526020016100ce565b6100ea61011a3660046107f6565b61026a565b604051601281526020016100ce565b6100ea61013c366004610831565b61028e565b61015461014f366004610831565b6102b0565b005b6100fe6101643660046107a3565b6001600160a01b031660009081526020819052604090205490565b6100c16102be565b6100ea610195366004610831565b6102cd565b6100ea6101a8366004610831565b61034d565b6100fe6101bb3660046107c4565b61035b565b6060600380546101cf906108d1565b80601f01602080910402602001604051908101604052809291908181526020018280546101fb906108d1565b80156102485780601f1061021d57610100808354040283529160200191610248565b820191906000526020600020905b81548152906001019060200180831161022b57829003601f168201915b5050505050905090565b600033610260818585610386565b5060019392505050565b6000336102788582856104aa565b610283858585610524565b506001949350505050565b6000336102608185856102a1838361035b565b6102ab91906108ad565b610386565b6102ba82826106c8565b5050565b6060600480546101cf906108d1565b600033816102db828661035b565b9050838110156103405760405162461bcd60e51b815260206004820152602560248201527f45524332303a2064656372656173656420616c6c6f77616e63652062656c6f77604482015264207a65726f60d81b60648201526084015b60405180910390fd5b6102838286868403610386565b600033610260818585610524565b6001600160a01b03918216600090815260016020908152604080832093909416825291909152205490565b6001600160a01b0383166103e85760405162461bcd60e51b8152602060048201526024808201527f45524332303a20617070726f76652066726f6d20746865207a65726f206164646044820152637265737360e01b6064820152608401610337565b6001600160a01b0382166104495760405162461bcd60e51b815260206004820152602260248201527f45524332303a20617070726f766520746f20746865207a65726f206164647265604482015261737360f01b6064820152608401610337565b6001600160a01b0383811660008181526001602090815260408083209487168084529482529182902085905590518481527f8c5be1e5ebec7d5bd14f71427d1e84f3dd0314c0f7b2291e5b200ac8c7c3b925910160405180910390a3505050565b60006104b6848461035b565b9050600019811461051e57818110156105115760405162461bcd60e51b815260206004820152601d60248201527f45524332303a20696e73756666696369656e7420616c6c6f77616e63650000006044820152606401610337565b61051e8484848403610386565b50505050565b6001600160a01b0383166105885760405162461bcd60e51b815260206004820152602560248201527f45524332303a207472616e736665722066726f6d20746865207a65726f206164604482015264647265737360d81b6064820152608401610337565b6001600160a01b0382166105ea5760405162461bcd60e51b815260206004820152602360248201527f45524332303a207472616e7366657220746f20746865207a65726f206164647260448201526265737360e81b6064820152608401610337565b6001600160a01b038316600090815260208190526040902054818110156106625760405162461bcd60e51b815260206004820152602660248201527f45524332303a207472616e7366657220616d6f756e7420657863656564732062604482015265616c616e636560d01b6064820152608401610337565b6001600160a01b03848116600081815260208181526040808320878703905593871680835291849020805487019055925185815290927fddf252ad1be2c89b69c2b068fc378daa952ba7f163c4a11628f55a4df523b3ef910160405180910390a361051e565b6001600160a01b03821661071e5760405162461bcd60e51b815260206004820152601f60248201527f45524332303a206d696e7420746f20746865207a65726f2061646472657373006044820152606401610337565b806002600082825461073091906108ad565b90915550506001600160a01b038216600081815260208181526040808320805486019055518481527fddf252ad1be2c89b69c2b068fc378daa952ba7f163c4a11628f55a4df523b3ef910160405180910390a35050565b80356001600160a01b038116811461079e57600080fd5b919050565b6000602082840312156107b4578081fd5b6107bd82610787565b9392505050565b600080604083850312156107d6578081fd5b6107df83610787565b91506107ed60208401610787565b90509250929050565b60008060006060848603121561080a578081fd5b61081384610787565b925061082160208501610787565b9150604084013590509250925092565b60008060408385031215610843578182fd5b61084c83610787565b946020939093013593505050565b6000602080835283518082850152825b818110156108865785810183015185820160400152820161086a565b818111156108975783604083870101525b50601f01601f1916929092016040019392505050565b600082198211156108cc57634e487b7160e01b81526011600452602481fd5b500190565b600181811c908216806108e557607f821691505b6020821081141561090657634e487b7160e01b600052602260045260246000fd5b5091905056fea2646970667358221220582c10db76d53704ab86d1860702dde6224df9bf4cd276ac5af39c99b459de8664736f6c63430008040033","linkReferences":{}},"methodIdentifiers":{"eRC20_transfer(uint256)":"4ecf6bf1","exchange_addLiquidity(uint256,uint256)":"6c7383da","exchange_removeLiquidity(uint256,uint256,uint256)":"23fccd06","invariant_spot_price_doesnt_change()":"bfa2f231"},"id":47}