{"abi":[{"type":"function","name":"DOMAIN_SEPARATOR","inputs":[],"outputs":[{"name":"","type":"bytes32","internalType":"bytes32"}],"stateMutability":"view"},{"type":"function","name":"allowance","inputs":[{"name":"","type":"address","internalType":"address"},{"name":"","type":"address","internalType":"address"}],"outputs":[{"name":"","type":"uint256","internalType":"uint256"}],"stateMutability":"view"},{"type":"function","name":"approve","inputs":[{"name":"spender","type":"address","internalType":"address"},{"name":"amount","type":"uint256","internalType":"uint256"}],"outputs":[{"name":"","type":"bool","internalType":"bool"}],"stateMutability":"nonpayable"},{"type":"function","name":"balanceOf","inputs":[{"name":"","type":"address","internalType":"address"}],"outputs":[{"name":"","type":"uint256","internalType":"uint256"}],"stateMutability":"view"},{"type":"function","name":"decimals","inputs":[],"outputs":[{"name":"","type":"uint8","internalType":"uint8"}],"stateMutability":"view"},{"type":"function","name":"initialize","inputs":[{"name":"_name","type":"string","internalType":"string"},{"name":"_symbol","type":"string","internalType":"string"},{"name":"_decimals","type":"uint8","internalType":"uint8"}],"outputs":[],"stateMutability":"nonpayable"},{"type":"function","name":"name","inputs":[],"outputs":[{"name":"","type":"string","internalType":"string"}],"stateMutability":"view"},{"type":"function","name":"nonces","inputs":[{"name":"","type":"address","internalType":"address"}],"outputs":[{"name":"","type":"uint256","internalType":"uint256"}],"stateMutability":"view"},{"type":"function","name":"permit","inputs":[{"name":"owner","type":"address","internalType":"address"},{"name":"spender","type":"address","internalType":"address"},{"name":"value","type":"uint256","internalType":"uint256"},{"name":"deadline","type":"uint256","internalType":"uint256"},{"name":"v","type":"uint8","internalType":"uint8"},{"name":"r","type":"bytes32","internalType":"bytes32"},{"name":"s","type":"bytes32","internalType":"bytes32"}],"outputs":[],"stateMutability":"nonpayable"},{"type":"function","name":"symbol","inputs":[],"outputs":[{"name":"","type":"string","internalType":"string"}],"stateMutability":"view"},{"type":"function","name":"totalSupply","inputs":[],"outputs":[{"name":"","type":"uint256","internalType":"uint256"}],"stateMutability":"view"},{"type":"function","name":"transfer","inputs":[{"name":"to","type":"address","internalType":"address"},{"name":"amount","type":"uint256","internalType":"uint256"}],"outputs":[{"name":"","type":"bool","internalType":"bool"}],"stateMutability":"nonpayable"},{"type":"function","name":"transferFrom","inputs":[{"name":"from","type":"address","internalType":"address"},{"name":"to","type":"address","internalType":"address"},{"name":"amount","type":"uint256","internalType":"uint256"}],"outputs":[{"name":"","type":"bool","internalType":"bool"}],"stateMutability":"nonpayable"},{"type":"event","name":"Approval","inputs":[{"name":"owner","type":"address","indexed":true,"internalType":"address"},{"name":"spender","type":"address","indexed":true,"internalType":"address"},{"name":"amount","type":"uint256","indexed":false,"internalType":"uint256"}],"anonymous":false},{"type":"event","name":"Transfer","inputs":[{"name":"from","type":"address","indexed":true,"internalType":"address"},{"name":"to","type":"address","indexed":true,"internalType":"address"},{"name":"amount","type":"uint256","indexed":false,"internalType":"uint256"}],"anonymous":false}],"bytecode":{"object":"0x608060405234801561001057600080fd5b50610e26806100206000396000f3fe608060405234801561001057600080fd5b50600436106100cf5760003560e01c80633644e5151161008c57806395d89b411161006657806395d89b41146101bb578063a9059cbb146101c3578063d505accf146101d6578063dd62ed3e146101e957600080fd5b80633644e5151461017357806370a082311461017b5780637ecebe001461019b57600080fd5b806306fdde03146100d4578063095ea7b3146100f25780631624f6c61461011557806318160ddd1461012a57806323b872dd14610141578063313ce56714610154575b600080fd5b6100dc610214565b6040516100e99190610cec565b60405180910390f35b610105610100366004610bb7565b6102a2565b60405190151581526020016100e9565b610128610123366004610be0565b61030e565b005b61013360035481565b6040519081526020016100e9565b61010561014f366004610b13565b6103bb565b6002546101619060ff1681565b60405160ff90911681526020016100e9565b6101336104d0565b610133610189366004610ac7565b60046020526000908152604090205481565b6101336101a9366004610ac7565b60086020526000908152604090205481565b6100dc6104f6565b6101056101d1366004610bb7565b610503565b6101286101e4366004610b4e565b61059a565b6101336101f7366004610ae1565b600560209081526000928352604080842090915290825290205481565b6000805461022190610d6e565b80601f016020809104026020016040519081016040528092919081815260200182805461024d90610d6e565b801561029a5780601f1061026f5761010080835404028352916020019161029a565b820191906000526020600020905b81548152906001019060200180831161027d57829003601f168201915b505050505081565b3360008181526005602090815260408083206001600160a01b038716808552925280832085905551919290917f8c5be1e5ebec7d5bd14f71427d1e84f3dd0314c0f7b2291e5b200ac8c7c3b925906102fd9086815260200190565b60405180910390a350600192915050565b60095460ff161561035c5760405162461bcd60e51b81526020600482015260136024820152721053149150511657d253925512505312569151606a1b60448201526064015b60405180910390fd5b825161036f90600090602086019061097a565b50815161038390600190602085019061097a565b506002805460ff191660ff831617905561039b6107f8565b6006556103a6610811565b60075550506009805460ff1916600117905550565b6001600160a01b03831660009081526005602090815260408083203384529091528120546000198114610417576103f281846108b4565b6001600160a01b03861660009081526005602090815260408083203384529091529020555b6001600160a01b03851660009081526004602052604090205461043a90846108b4565b6001600160a01b0380871660009081526004602052604080822093909355908616815220546104699084610917565b6001600160a01b0380861660008181526004602052604090819020939093559151908716907fddf252ad1be2c89b69c2b068fc378daa952ba7f163c4a11628f55a4df523b3ef906104bd9087815260200190565b60405180910390a3506001949350505050565b60006006546104dd6107f8565b146104ef576104ea610811565b905090565b5060075490565b6001805461022190610d6e565b3360009081526004602052604081205461051d90836108b4565b33600090815260046020526040808220929092556001600160a01b038516815220546105499083610917565b6001600160a01b0384166000818152600460205260409081902092909255905133907fddf252ad1be2c89b69c2b068fc378daa952ba7f163c4a11628f55a4df523b3ef906102fd9086815260200190565b428410156105ea5760405162461bcd60e51b815260206004820152601760248201527f5045524d49545f444541444c494e455f455850495245440000000000000000006044820152606401610353565b600060016105f66104d0565b6001600160a01b038a16600090815260086020526040812080547f6e71edae12b1b97f4d1f60370fef10105fa2faae0126114a169c64845d6126c9928d928d928d9290919061064483610da9565b909155506040805160208101969096526001600160a01b0394851690860152929091166060840152608083015260a082015260c0810188905260e001604051602081830303815290604052805190602001206040516020016106bd92919061190160f01b81526002810192909252602282015260420190565b60408051601f198184030181528282528051602091820120600084529083018083525260ff871690820152606081018590526080810184905260a0016020604051602081039080840390855afa15801561071b573d6000803e3d6000fd5b5050604051601f1901519150506001600160a01b038116158015906107515750876001600160a01b0316816001600160a01b0316145b61078e5760405162461bcd60e51b815260206004820152600e60248201526d24a72b20a624a22fa9a4a3a722a960911b6044820152606401610353565b6001600160a01b0381811660009081526005602090815260408083208b8516808552908352928190208a90555189815291928b16917f8c5be1e5ebec7d5bd14f71427d1e84f3dd0314c0f7b2291e5b200ac8c7c3b925910160405180910390a35050505050505050565b60006109768061080a63ffffffff8216565b9250505090565b60007f8b73c3c69bb8fe3d512ecc4cf759cc79239f7b179b0ffacaa9a75d522b39400f60006040516108439190610c51565b60405180910390207fc89efdaa54c0f20c7adf612882df0950f5a951637e0307cdcb4c672f298b8bc66108746107f8565b604080516020810195909552840192909252606083015260808201523060a082015260c00160405160208183030381529060405280519060200120905090565b6000818310156109065760405162461bcd60e51b815260206004820152601c60248201527f45524332303a207375627472616374696f6e20756e646572666c6f77000000006044820152606401610353565b6109108284610d57565b9392505050565b6000806109248385610d3f565b9050838110156109105760405162461bcd60e51b815260206004820152601860248201527f45524332303a206164646974696f6e206f766572666c6f7700000000000000006044820152606401610353565b4690565b82805461098690610d6e565b90600052602060002090601f0160209004810192826109a857600085556109ee565b82601f106109c157805160ff19168380011785556109ee565b828001600101855582156109ee579182015b828111156109ee5782518255916020019190600101906109d3565b506109fa9291506109fe565b5090565b5b808211156109fa57600081556001016109ff565b80356001600160a01b0381168114610a2a57600080fd5b919050565b600082601f830112610a3f578081fd5b813567ffffffffffffffff80821115610a5a57610a5a610dda565b604051601f8301601f19908116603f01168101908282118183101715610a8257610a82610dda565b81604052838152866020858801011115610a9a578485fd5b8360208701602083013792830160200193909352509392505050565b803560ff81168114610a2a57600080fd5b600060208284031215610ad8578081fd5b61091082610a13565b60008060408385031215610af3578081fd5b610afc83610a13565b9150610b0a60208401610a13565b90509250929050565b600080600060608486031215610b27578081fd5b610b3084610a13565b9250610b3e60208501610a13565b9150604084013590509250925092565b600080600080600080600060e0888a031215610b68578283fd5b610b7188610a13565b9650610b7f60208901610a13565b95506040880135945060608801359350610b9b60808901610ab6565b925060a0880135915060c0880135905092959891949750929550565b60008060408385031215610bc9578182fd5b610bd283610a13565b946020939093013593505050565b600080600060608486031215610bf4578283fd5b833567ffffffffffffffff80821115610c0b578485fd5b610c1787838801610a2f565b94506020860135915080821115610c2c578384fd5b50610c3986828701610a2f565b925050610c4860408501610ab6565b90509250925092565b600080835482600182811c915080831680610c6d57607f831692505b6020808410821415610c8d57634e487b7160e01b87526022600452602487fd5b818015610ca15760018114610cb257610cde565b60ff19861689528489019650610cde565b60008a815260209020885b86811015610cd65781548b820152908501908301610cbd565b505084890196505b509498975050505050505050565b6000602080835283518082850152825b81811015610d1857858101830151858201604001528201610cfc565b81811115610d295783604083870101525b50601f01601f1916929092016040019392505050565b60008219821115610d5257610d52610dc4565b500190565b600082821015610d6957610d69610dc4565b500390565b600181811c90821680610d8257607f821691505b60208210811415610da357634e487b7160e01b600052602260045260246000fd5b50919050565b6000600019821415610dbd57610dbd610dc4565b5060010190565b634e487b7160e01b600052601160045260246000fd5b634e487b7160e01b600052604160045260246000fdfea2646970667358221220c93cdf3a20a5afa1247383f144ae1d0dd99a28d50b0350d563e8db167ef4b90564736f6c63430008040033","linkReferences":{}},"methodIdentifiers":{"DOMAIN_SEPARATOR()":"3644e515","allowance(address,address)":"dd62ed3e","approve(address,uint256)":"095ea7b3","balanceOf(address)":"70a08231","decimals()":"313ce567","initialize(string,string,uint8)":"1624f6c6","name()":"06fdde03","nonces(address)":"7ecebe00","permit(address,address,uint256,uint256,uint8,bytes32,bytes32)":"d505accf","symbol()":"95d89b41","totalSupply()":"18160ddd","transfer(address,uint256)":"a9059cbb","transferFrom(address,address,uint256)":"23b872dd"},"id":24}