{
  "_format": "hh-sol-artifact-1",
  "contractName": "MathLib",
  "sourceName": "src/libraries/MathLib.sol",
  "abi": [
    {
      "inputs": [],
      "name": "BASIS_POINTS",
      "outputs": [
        {
          "internalType": "uint256",
          "name": "",
          "type": "uint256"
        }
      ],
      "stateMutability": "view",
      "type": "function"
    },
    {
      "inputs": [],
      "name": "WAD",
      "outputs": [
        {
          "internalType": "uint256",
          "name": "",
          "type": "uint256"
        }
      ],
      "stateMutability": "view",
      "type": "function"
    },
    {
      "inputs": [
        {
          "internalType": "uint256",
          "name": "_baseTokenQtyDesired",
          "type": "uint256"
        },
        {
          "internalType": "uint256",
          "name": "_baseTokenQtyMin",
          "type": "uint256"
        },
        {
          "internalType": "uint256",
          "name": "_baseTokenReserveQty",
          "type": "uint256"
        },
        {
          "internalType": "uint256",
          "name": "_totalSupplyOfLiquidityTokens",
          "type": "uint256"
        },
        {
          "components": [
            {
              "internalType": "uint256",
              "name": "baseTokenReserveQty",
              "type": "uint256"
            },
            {
              "internalType": "uint256",
              "name": "quoteTokenReserveQty",
              "type": "uint256"
            },
            {
              "internalType": "uint256",
              "name": "kLast",
              "type": "uint256"
            }
          ],
          "internalType": "struct MathLib.InternalBalances",
          "name": "_internalBalances",
          "type": "tuple"
        }
      ],
      "name": "calculateAddBaseTokenLiquidityQuantities",
      "outputs": [
        {
          "internalType": "uint256",
          "name": "baseTokenQty",
          "type": "uint256"
        },
        {
          "internalType": "uint256",
          "name": "liquidityTokenQty",
          "type": "uint256"
        }
      ],
      "stateMutability": "pure",
      "type": "function"
    },
    {
      "inputs": [
        {
          "internalType": "uint256",
          "name": "_totalSupplyOfLiquidityTokens",
          "type": "uint256"
        },
        {
          "components": [
            {
              "internalType": "uint256",
              "name": "baseTokenReserveQty",
              "type": "uint256"
            },
            {
              "internalType": "uint256",
              "name": "quoteTokenReserveQty",
              "type": "uint256"
            },
            {
              "internalType": "uint256",
              "name": "kLast",
              "type": "uint256"
            }
          ],
          "internalType": "struct MathLib.InternalBalances",
          "name": "_internalBalances",
          "type": "tuple"
        }
      ],
      "name": "calculateLiquidityTokenFees",
      "outputs": [
        {
          "internalType": "uint256",
          "name": "liquidityTokenFeeQty",
          "type": "uint256"
        }
      ],
      "stateMutability": "pure",
      "type": "function"
    },
    {
      "inputs": [
        {
          "internalType": "uint256",
          "name": "_totalSupplyOfLiquidityTokens",
          "type": "uint256"
        },
        {
          "internalType": "uint256",
          "name": "_quoteTokenQty",
          "type": "uint256"
        },
        {
          "internalType": "uint256",
          "name": "_quoteTokenReserveBalance",
          "type": "uint256"
        }
      ],
      "name": "calculateLiquidityTokenQtyForDoubleAssetEntry",
      "outputs": [
        {
          "internalType": "uint256",
          "name": "liquidityTokenQty",
          "type": "uint256"
        }
      ],
      "stateMutability": "pure",
      "type": "function"
    },
    {
      "inputs": [
        {
          "internalType": "uint256",
          "name": "_baseTokenReserveBalance",
          "type": "uint256"
        },
        {
          "internalType": "uint256",
          "name": "_totalSupplyOfLiquidityTokens",
          "type": "uint256"
        },
        {
          "internalType": "uint256",
          "name": "_tokenQtyAToAdd",
          "type": "uint256"
        },
        {
          "internalType": "uint256",
          "name": "_internalTokenAReserveQty",
          "type": "uint256"
        },
        {
          "internalType": "uint256",
          "name": "_omega",
          "type": "uint256"
        }
      ],
      "name": "calculateLiquidityTokenQtyForSingleAssetEntryWithBaseTokenDecay",
      "outputs": [
        {
          "internalType": "uint256",
          "name": "liquidityTokenQty",
          "type": "uint256"
        }
      ],
      "stateMutability": "pure",
      "type": "function"
    },
    {
      "inputs": [
        {
          "internalType": "uint256",
          "name": "_baseTokenReserveBalance",
          "type": "uint256"
        },
        {
          "internalType": "uint256",
          "name": "_totalSupplyOfLiquidityTokens",
          "type": "uint256"
        },
        {
          "internalType": "uint256",
          "name": "_tokenQtyAToAdd",
          "type": "uint256"
        },
        {
          "internalType": "uint256",
          "name": "_internalTokenAReserveQty",
          "type": "uint256"
        }
      ],
      "name": "calculateLiquidityTokenQtyForSingleAssetEntryWithQuoteTokenDecay",
      "outputs": [
        {
          "internalType": "uint256",
          "name": "liquidityTokenQty",
          "type": "uint256"
        }
      ],
      "stateMutability": "pure",
      "type": "function"
    },
    {
      "inputs": [
        {
          "internalType": "uint256",
          "name": "_tokenAQty",
          "type": "uint256"
        },
        {
          "internalType": "uint256",
          "name": "_tokenAReserveQty",
          "type": "uint256"
        },
        {
          "internalType": "uint256",
          "name": "_tokenBReserveQty",
          "type": "uint256"
        }
      ],
      "name": "calculateQty",
      "outputs": [
        {
          "internalType": "uint256",
          "name": "tokenBQty",
          "type": "uint256"
        }
      ],
      "stateMutability": "pure",
      "type": "function"
    },
    {
      "inputs": [
        {
          "internalType": "uint256",
          "name": "_tokenASwapQty",
          "type": "uint256"
        },
        {
          "internalType": "uint256",
          "name": "_tokenAReserveQty",
          "type": "uint256"
        },
        {
          "internalType": "uint256",
          "name": "_tokenBReserveQty",
          "type": "uint256"
        },
        {
          "internalType": "uint256",
          "name": "_liquidityFeeInBasisPoints",
          "type": "uint256"
        }
      ],
      "name": "calculateQtyToReturnAfterFees",
      "outputs": [
        {
          "internalType": "uint256",
          "name": "qtyToReturn",
          "type": "uint256"
        }
      ],
      "stateMutability": "pure",
      "type": "function"
    },
    {
      "inputs": [
        {
          "internalType": "uint256",
          "name": "a",
          "type": "uint256"
        },
        {
          "internalType": "uint256",
          "name": "b",
          "type": "uint256"
        }
      ],
      "name": "diff",
      "outputs": [
        {
          "internalType": "uint256",
          "name": "",
          "type": "uint256"
        }
      ],
      "stateMutability": "pure",
      "type": "function"
    },
    {
      "inputs": [
        {
          "internalType": "uint256",
          "name": "_baseTokenReserveQty",
          "type": "uint256"
        },
        {
          "components": [
            {
              "internalType": "uint256",
              "name": "baseTokenReserveQty",
              "type": "uint256"
            },
            {
              "internalType": "uint256",
              "name": "quoteTokenReserveQty",
              "type": "uint256"
            },
            {
              "internalType": "uint256",
              "name": "kLast",
              "type": "uint256"
            }
          ],
          "internalType": "struct MathLib.InternalBalances",
          "name": "_internalBalances",
          "type": "tuple"
        }
      ],
      "name": "isSufficientDecayPresent",
      "outputs": [
        {
          "internalType": "bool",
          "name": "",
          "type": "bool"
        }
      ],
      "stateMutability": "pure",
      "type": "function"
    },
    {
      "inputs": [
        {
          "internalType": "uint256",
          "name": "a",
          "type": "uint256"
        },
        {
          "internalType": "uint256",
          "name": "n",
          "type": "uint256"
        }
      ],
      "name": "roundToNearest",
      "outputs": [
        {
          "internalType": "uint256",
          "name": "",
          "type": "uint256"
        }
      ],
      "stateMutability": "pure",
      "type": "function"
    },
    {
      "inputs": [
        {
          "internalType": "uint256",
          "name": "x",
          "type": "uint256"
        }
      ],
      "name": "sqrt",
      "outputs": [
        {
          "internalType": "uint256",
          "name": "y",
          "type": "uint256"
        }
      ],
      "stateMutability": "pure",
      "type": "function"
    },
    {
      "inputs": [
        {
          "internalType": "uint256",
          "name": "a",
          "type": "uint256"
        },
        {
          "internalType": "uint256",
          "name": "b",
          "type": "uint256"
        }
      ],
      "name": "wDiv",
      "outputs": [
        {
          "internalType": "uint256",
          "name": "",
          "type": "uint256"
        }
      ],
      "stateMutability": "pure",
      "type": "function"
    },
    {
      "inputs": [
        {
          "internalType": "uint256",
          "name": "a",
          "type": "uint256"
        },
        {
          "internalType": "uint256",
          "name": "b",
          "type": "uint256"
        }
      ],
      "name": "wMul",
      "outputs": [
        {
          "internalType": "uint256",
          "name": "",
          "type": "uint256"
        }
      ],
      "stateMutability": "pure",
      "type": "function"
    }
  ],
  "bytecode": "0x61171261003a600b82828239805160001a60731461002d57634e487b7160e01b600052600060045260246000fd5b30600052607381538281f3fe73000000000000000000000000000000000000000030146080604052600436106101765760003560e01c8063af22e864116100d7578063ede3df671161008b578063f8f4a4ba11610070578063f8f4a4ba1461032a578063faf5c6ed1461033d578063fd21d3121461039057600080fd5b8063ede3df6714610304578063f27d5b381461031757600080fd5b8063c131f417116100bc578063c131f417146102b8578063ca7c6a02146102d8578063e1f1c4a7146102fb57600080fd5b8063af22e86414610285578063bd244c35146102a557600080fd5b8063677342ce1161012e5780636cb4024b116101135780636cb4024b1461024c5780638f5e514a1461025f5780639e4fa2041461027257600080fd5b8063677342ce1461022a5780636a1460241461023d57600080fd5b8063578aefbb1161015f578063578aefbb146101b457806359eab1d1146101dc5780635b3cce641461021757600080fd5b806330ed1f5d1461017b578063542f45b2146101a1575b600080fd5b61018e610189366004611466565b6103b0565b6040519081526020015b60405180910390f35b61018e6101af366004611487565b6103ed565b6101c76101c23660046114f8565b6104ec565b60408051928352602083019190915201610198565b8180156101e857600080fd5b506101fc6101f736600461157b565b6106fe565b60408051938452602084019290925290820152606001610198565b61018e610225366004611466565b610870565b61018e610238366004611422565b610890565b61018e670de0b6b3a764000081565b61018e61025a36600461143a565b6108e9565b61018e61026d366004611466565b61095c565b61018e610280366004611487565b610980565b81801561029157600080fd5b5061018e6102a03660046114b2565b61098d565b61018e6102b3366004611466565b610ae6565b8180156102c457600080fd5b5061018e6102d3366004611541565b610b13565b6102eb6102e636600461143a565b610cd5565b6040519015158152602001610198565b61018e61271081565b61018e6103123660046114e3565b610d1f565b61018e610325366004611541565b610d6f565b61018e6103383660046114e3565b610de2565b81801561034957600080fd5b5061035d6103583660046115bd565b610e38565b60405161019891908151815260208083015190820152604080830151908201526060918201519181019190915260800190565b81801561039c57600080fd5b506101c76103ab3660046114b2565b61124c565b6000670de0b6b3a76400006103c6600282611620565b6103d08486611659565b6103da9190611608565b6103e49190611620565b90505b92915050565b60008361045b576040517f08c379a000000000000000000000000000000000000000000000000000000000815260206004820152601960248201527f4d6174684c69623a20494e53554646494349454e545f5154590000000000000060448201526064015b60405180910390fd5b821580159061046957508115155b6104cf576040517f08c379a000000000000000000000000000000000000000000000000000000000815260206004820152601f60248201527f4d6174684c69623a20494e53554646494349454e545f4c4951554944495459006044820152606401610452565b826104da8386611659565b6104e49190611620565b949350505050565b60008060008584600001516105019190611696565b90508087111561056d576040517f08c379a000000000000000000000000000000000000000000000000000000000815260206004820152601b60248201527f4d6174684c69623a20494e53554646494349454e545f444543415900000000006044820152606401610452565b8088111561057d57809250610581565b8792505b600061059585602001518660000151610870565b90506000670de0b6b3a76400006105bd6105af8488611659565b670de0b6b3a7640000610ae6565b6105c79190611620565b905080610656576040517f08c379a000000000000000000000000000000000000000000000000000000000815260206004820152602560248201527f4d6174684c69623a20494e53554646494349454e545f4348414e47455f494e5f60448201527f44454341590000000000000000000000000000000000000000000000000000006064820152608401610452565b6000670de0b6b3a764000061066b8486611659565b6106759190611620565b9050806106de576040517f08c379a000000000000000000000000000000000000000000000000000000000815260206004820152601760248201527f4d6174684c69623a204e4f5f51554f54455f44454341590000000000000000006044820152606401610452565b6106ee8989888a60000151610de2565b9450505050509550959350505050565b6000806000806107178a866000015487600101546103ed565b9050888111610795578681101561078a576040517f08c379a000000000000000000000000000000000000000000000000000000000815260206004820152601f60248201527f4d6174684c69623a20494e53554646494349454e545f51554f54455f515459006044820152606401610452565b89935080925061081c565b60006107aa8a876001015488600001546103ed565b905088811015610816576040517f08c379a000000000000000000000000000000000000000000000000000000000815260206004820152601e60248201527f4d6174684c69623a20494e53554646494349454e545f424153455f51545900006044820152606401610452565b93508892505b61082b86848760010154610980565b9150838560000160008282546108419190611608565b925050819055508285600101600082825461085c9190611608565b925050819055505096509650969350505050565b60008161087e600282611620565b6103d0670de0b6b3a764000086611659565b60008060026108a0846001611608565b6108aa9190611620565b90508291505b818110156108e3579050806002816108c88186611620565b6108d29190611608565b6108dc9190611620565b90506108b0565b50919050565b600080610903836020015184600001516102389190611659565b905060006109148460400151610890565b90508082111561095457600061092a8284611696565b6109349087611659565b90506000610943846002611659565b905061094f8183611620565b945050505b505092915050565b60008183106109765761096f8284611696565b90506103e7565b6103e48383611696565b6000816104da8585611659565b6000841580159061099d57508315155b610a03576040517f08c379a000000000000000000000000000000000000000000000000000000000815260206004820152601f60248201527f4d6174684c69623a20494e53554646494349454e545f544f4b454e5f515459006044820152606401610452565b610a17858360000154846001015486610d1f565b905083811015610aa9576040517f08c379a000000000000000000000000000000000000000000000000000000000815260206004820152602560248201527f4d6174684c69623a20494e53554646494349454e545f51554f54455f544f4b4560448201527f4e5f5154590000000000000000000000000000000000000000000000000000006064820152608401610452565b84826000016000828254610abd9190611608565b9250508190555080826001016000828254610ad89190611696565b909155509095945050505050565b60008180610af5600282611620565b610aff9086611608565b610b099190611620565b6103e49190611659565b60008315801590610b245750815415155b610baf576040517f08c379a0000000000000000000000000000000000000000000000000000000008152602060048201526024808201527f4d6174684c69623a20494e53554646494349454e545f424153455f544f4b454e60448201527f5f515459000000000000000000000000000000000000000000000000000000006064820152608401610452565b8154841015610bf1576000610bcc83600001548460010154610870565b90506000610bda8683610870565b9050610be888828888610d1f565b92505050610c08565b610c05868360010154846000015486610d1f565b90505b84811015610c97576040517f08c379a0000000000000000000000000000000000000000000000000000000008152602060048201526024808201527f4d6174684c69623a20494e53554646494349454e545f424153455f544f4b454e60448201527f5f515459000000000000000000000000000000000000000000000000000000006064820152608401610452565b80826000016000828254610cab9190611696565b9250508190555085826001016000828254610cc69190611608565b90915550909695505050505050565b6000670de0b6b3a7640000610d16670de0b6b3a7640000610cfa86866000015161095c565b610d049190611659565b61022585600001518660200151610870565b10159392505050565b600080610d2e83612710611696565b610d389087611659565b905080610d4761271087611659565b610d519190611608565b610d5b8583611659565b610d659190611620565b9695505050505050565b600080610d7c8784610870565b90506000610d8a8583611608565b90506000610d988783610870565b9050670de0b6b3a7640000610dcb610db9610db3838c611659565b846103b0565b61022584670de0b6b3a7640000611696565b610dd59190611620565b9998505050505050505050565b60008083610df08785611608565b610dfa9190611608565b90506000610e088583610870565b9050670de0b6b3a7640000610e23610db9610db3838a611659565b610e2d9190611620565b979650505050505050565b610e636040518060800160405280600081526020016000815260200160008152602001600081525090565b82156110d457604080516060810182528354815260018401546020820152600284015491810191909152610e989084906108e9565b60608201819052610ea99084611608565b9250610ede84836040518060600160405290816000820154815260200160018201548152602001600282015481525050610cd5565b156110b55760008060008460000154871115610f0a57610f008a88888861124c565b9092509050610f47565b610f418b600089898960405180606001604052908160008201548152602001600182015481526020016002820154815250506104ec565b90935090505b8982108015610f5557508a83105b15610f9157610f84610f67848d611696565b610f71848d611696565b600080610f7e868c611608565b8a6106fe565b6040870152602086015284525b8284600001818151610fa39190611608565b905250602084018051839190610fba908390611608565b905250604084018051829190610fd1908390611608565b905250835189111561103f576040517f08c379a000000000000000000000000000000000000000000000000000000000815260206004820152601e60248201527f4d6174684c69623a20494e53554646494349454e545f424153455f51545900006044820152606401610452565b87846020015110156110ad576040517f08c379a000000000000000000000000000000000000000000000000000000000815260206004820152601f60248201527f4d6174684c69623a20494e53554646494349454e545f51554f54455f515459006044820152606401610452565b505050610e2d565b6110c38888888887876106fe565b604084015260208301528152610e2d565b87611161576040517f08c379a000000000000000000000000000000000000000000000000000000000815260206004820152602660248201527f4d6174684c69623a20494e53554646494349454e545f424153455f5154595f4460448201527f45534952454400000000000000000000000000000000000000000000000000006064820152608401610452565b866111ee576040517f08c379a000000000000000000000000000000000000000000000000000000000815260206004820152602760248201527f4d6174684c69623a20494e53554646494349454e545f51554f54455f5154595f60448201527f44455349524544000000000000000000000000000000000000000000000000006064820152608401610452565b87815260208101879052611205610238888a611659565b604082015280518254839060009061121e908490611608565b9091555050602081015160018301805460009061123c908490611608565b9091555050979650505050505050565b60008060008360000154866112619190611696565b9050600061127785600001548660010154610870565b905060006112858383610870565b9050808911156112975780945061129b565b8894505b6000670de0b6b3a76400006112b36105af8589611659565b6112bd9190611620565b90508061134c576040517f08c379a000000000000000000000000000000000000000000000000000000000815260206004820152602560248201527f4d6174684c69623a20494e53554646494349454e545f4348414e47455f494e5f60448201527f44454341590000000000000000000000000000000000000000000000000000006064820152608401610452565b808760000160008282546113609190611608565b925050819055508587600101600082825461137b9190611608565b925050819055506113938989888a6001015487610d6f565b94505050505094509492505050565b6000606082840312156113b3578081fd5b6040516060810181811067ffffffffffffffff821117156113fb577f4e487b710000000000000000000000000000000000000000000000000000000083526041600452602483fd5b80604052508091508235815260208301356020820152604083013560408201525092915050565b600060208284031215611433578081fd5b5035919050565b6000806080838503121561144c578081fd5b8235915061145d84602085016113a2565b90509250929050565b60008060408385031215611478578182fd5b50508035926020909101359150565b60008060006060848603121561149b578081fd5b505081359360208301359350604090920135919050565b600080600080608085870312156114c7578081fd5b5050823594602084013594506040840135936060013592509050565b600080600080608085870312156114c7578384fd5b600080600080600060e0868803121561150f578081fd5b8535945060208601359350604086013592506060860135915061153587608088016113a2565b90509295509295909350565b600080600080600060a08688031215611558578081fd5b505083359560208501359550604085013594606081013594506080013592509050565b60008060008060008060c08789031215611593578081fd5b505084359660208601359650604086013595606081013595506080810135945060a0013592509050565b600080600080600080600060e0888a0312156115d7578485fd5b505085359760208701359750604087013596606081013596506080810135955060a0810135945060c0013592509050565b6000821982111561161b5761161b6116ad565b500190565b600082611654577f4e487b710000000000000000000000000000000000000000000000000000000081526012600452602481fd5b500490565b6000817fffffffffffffffffffffffffffffffffffffffffffffffffffffffffffffffff0483118215151615611691576116916116ad565b500290565b6000828210156116a8576116a86116ad565b500390565b7f4e487b7100000000000000000000000000000000000000000000000000000000600052601160045260246000fdfea2646970667358221220db2c4f0dc2ba58bcb48c83f442286a13d1f1e4dd79480de0e62637196eaf904d64736f6c63430008040033",
  "linkReferences": {},
  "deployedLinkReferences": {}
}