{
  "_format": "hh-sol-artifact-1",
  "contractName": "MathLib",
  "sourceName": "src/libraries/MathLib.sol",
  "abi": [
    {
      "inputs": [],
      "name": "BASIS_POINTS",
      "outputs": [
        {
          "internalType": "uint256",
          "name": "",
          "type": "uint256"
        }
      ],
      "stateMutability": "view",
      "type": "function"
    },
    {
      "inputs": [],
      "name": "WAD",
      "outputs": [
        {
          "internalType": "uint256",
          "name": "",
          "type": "uint256"
        }
      ],
      "stateMutability": "view",
      "type": "function"
    },
    {
      "inputs": [
        {
          "internalType": "uint256",
          "name": "_baseTokenQtyDesired",
          "type": "uint256"
        },
        {
          "internalType": "uint256",
          "name": "_baseTokenQtyMin",
          "type": "uint256"
        },
        {
          "internalType": "uint256",
          "name": "_baseTokenReserveQty",
          "type": "uint256"
        },
        {
          "internalType": "uint256",
          "name": "_totalSupplyOfLiquidityTokens",
          "type": "uint256"
        },
        {
          "components": [
            {
              "internalType": "uint256",
              "name": "baseTokenReserveQty",
              "type": "uint256"
            },
            {
              "internalType": "uint256",
              "name": "quoteTokenReserveQty",
              "type": "uint256"
            },
            {
              "internalType": "uint256",
              "name": "kLast",
              "type": "uint256"
            }
          ],
          "internalType": "struct MathLib.InternalBalances",
          "name": "_internalBalances",
          "type": "tuple"
        }
      ],
      "name": "calculateAddBaseTokenLiquidityQuantities",
      "outputs": [
        {
          "internalType": "uint256",
          "name": "baseTokenQty",
          "type": "uint256"
        },
        {
          "internalType": "uint256",
          "name": "liquidityTokenQty",
          "type": "uint256"
        }
      ],
      "stateMutability": "pure",
      "type": "function"
    },
    {
      "inputs": [
        {
          "internalType": "uint256",
          "name": "_totalSupplyOfLiquidityTokens",
          "type": "uint256"
        },
        {
          "components": [
            {
              "internalType": "uint256",
              "name": "baseTokenReserveQty",
              "type": "uint256"
            },
            {
              "internalType": "uint256",
              "name": "quoteTokenReserveQty",
              "type": "uint256"
            },
            {
              "internalType": "uint256",
              "name": "kLast",
              "type": "uint256"
            }
          ],
          "internalType": "struct MathLib.InternalBalances",
          "name": "_internalBalances",
          "type": "tuple"
        }
      ],
      "name": "calculateLiquidityTokenFees",
      "outputs": [
        {
          "internalType": "uint256",
          "name": "liquidityTokenFeeQty",
          "type": "uint256"
        }
      ],
      "stateMutability": "pure",
      "type": "function"
    },
    {
      "inputs": [
        {
          "internalType": "uint256",
          "name": "_totalSupplyOfLiquidityTokens",
          "type": "uint256"
        },
        {
          "internalType": "uint256",
          "name": "_quoteTokenQty",
          "type": "uint256"
        },
        {
          "internalType": "uint256",
          "name": "_quoteTokenReserveBalance",
          "type": "uint256"
        }
      ],
      "name": "calculateLiquidityTokenQtyForDoubleAssetEntry",
      "outputs": [
        {
          "internalType": "uint256",
          "name": "liquidityTokenQty",
          "type": "uint256"
        }
      ],
      "stateMutability": "pure",
      "type": "function"
    },
    {
      "inputs": [
        {
          "internalType": "uint256",
          "name": "_baseTokenReserveBalance",
          "type": "uint256"
        },
        {
          "internalType": "uint256",
          "name": "_totalSupplyOfLiquidityTokens",
          "type": "uint256"
        },
        {
          "internalType": "uint256",
          "name": "_tokenQtyAToAdd",
          "type": "uint256"
        },
        {
          "internalType": "uint256",
          "name": "_internalTokenAReserveQty",
          "type": "uint256"
        },
        {
          "internalType": "uint256",
          "name": "_omega",
          "type": "uint256"
        }
      ],
      "name": "calculateLiquidityTokenQtyForSingleAssetEntryWithBaseTokenDecay",
      "outputs": [
        {
          "internalType": "uint256",
          "name": "liquidityTokenQty",
          "type": "uint256"
        }
      ],
      "stateMutability": "pure",
      "type": "function"
    },
    {
      "inputs": [
        {
          "internalType": "uint256",
          "name": "_baseTokenReserveBalance",
          "type": "uint256"
        },
        {
          "internalType": "uint256",
          "name": "_totalSupplyOfLiquidityTokens",
          "type": "uint256"
        },
        {
          "internalType": "uint256",
          "name": "_tokenQtyAToAdd",
          "type": "uint256"
        },
        {
          "internalType": "uint256",
          "name": "_internalTokenAReserveQty",
          "type": "uint256"
        }
      ],
      "name": "calculateLiquidityTokenQtyForSingleAssetEntryWithQuoteTokenDecay",
      "outputs": [
        {
          "internalType": "uint256",
          "name": "liquidityTokenQty",
          "type": "uint256"
        }
      ],
      "stateMutability": "pure",
      "type": "function"
    },
    {
      "inputs": [
        {
          "internalType": "uint256",
          "name": "_tokenAQty",
          "type": "uint256"
        },
        {
          "internalType": "uint256",
          "name": "_tokenAReserveQty",
          "type": "uint256"
        },
        {
          "internalType": "uint256",
          "name": "_tokenBReserveQty",
          "type": "uint256"
        }
      ],
      "name": "calculateQty",
      "outputs": [
        {
          "internalType": "uint256",
          "name": "tokenBQty",
          "type": "uint256"
        }
      ],
      "stateMutability": "pure",
      "type": "function"
    },
    {
      "inputs": [
        {
          "internalType": "uint256",
          "name": "_tokenASwapQty",
          "type": "uint256"
        },
        {
          "internalType": "uint256",
          "name": "_tokenAReserveQty",
          "type": "uint256"
        },
        {
          "internalType": "uint256",
          "name": "_tokenBReserveQty",
          "type": "uint256"
        },
        {
          "internalType": "uint256",
          "name": "_liquidityFeeInBasisPoints",
          "type": "uint256"
        }
      ],
      "name": "calculateQtyToReturnAfterFees",
      "outputs": [
        {
          "internalType": "uint256",
          "name": "qtyToReturn",
          "type": "uint256"
        }
      ],
      "stateMutability": "pure",
      "type": "function"
    },
    {
      "inputs": [
        {
          "internalType": "uint256",
          "name": "a",
          "type": "uint256"
        },
        {
          "internalType": "uint256",
          "name": "b",
          "type": "uint256"
        }
      ],
      "name": "diff",
      "outputs": [
        {
          "internalType": "uint256",
          "name": "",
          "type": "uint256"
        }
      ],
      "stateMutability": "pure",
      "type": "function"
    },
    {
      "inputs": [
        {
          "internalType": "uint256",
          "name": "_baseTokenReserveQty",
          "type": "uint256"
        },
        {
          "components": [
            {
              "internalType": "uint256",
              "name": "baseTokenReserveQty",
              "type": "uint256"
            },
            {
              "internalType": "uint256",
              "name": "quoteTokenReserveQty",
              "type": "uint256"
            },
            {
              "internalType": "uint256",
              "name": "kLast",
              "type": "uint256"
            }
          ],
          "internalType": "struct MathLib.InternalBalances",
          "name": "_internalBalances",
          "type": "tuple"
        }
      ],
      "name": "isSufficientDecayPresent",
      "outputs": [
        {
          "internalType": "bool",
          "name": "",
          "type": "bool"
        }
      ],
      "stateMutability": "pure",
      "type": "function"
    },
    {
      "inputs": [
        {
          "internalType": "uint256",
          "name": "a",
          "type": "uint256"
        },
        {
          "internalType": "uint256",
          "name": "n",
          "type": "uint256"
        }
      ],
      "name": "roundToNearest",
      "outputs": [
        {
          "internalType": "uint256",
          "name": "",
          "type": "uint256"
        }
      ],
      "stateMutability": "pure",
      "type": "function"
    },
    {
      "inputs": [
        {
          "internalType": "uint256",
          "name": "x",
          "type": "uint256"
        }
      ],
      "name": "sqrt",
      "outputs": [
        {
          "internalType": "uint256",
          "name": "y",
          "type": "uint256"
        }
      ],
      "stateMutability": "pure",
      "type": "function"
    },
    {
      "inputs": [
        {
          "internalType": "uint256",
          "name": "a",
          "type": "uint256"
        },
        {
          "internalType": "uint256",
          "name": "b",
          "type": "uint256"
        }
      ],
      "name": "wDiv",
      "outputs": [
        {
          "internalType": "uint256",
          "name": "",
          "type": "uint256"
        }
      ],
      "stateMutability": "pure",
      "type": "function"
    },
    {
      "inputs": [
        {
          "internalType": "uint256",
          "name": "a",
          "type": "uint256"
        },
        {
          "internalType": "uint256",
          "name": "b",
          "type": "uint256"
        }
      ],
      "name": "wMul",
      "outputs": [
        {
          "internalType": "uint256",
          "name": "",
          "type": "uint256"
        }
      ],
      "stateMutability": "pure",
      "type": "function"
    }
  ],
  "bytecode": "0x61171d61003a600b82828239805160001a60731461002d57634e487b7160e01b600052600060045260246000fd5b30600052607381538281f3fe73000000000000000000000000000000000000000030146080604052600436106101765760003560e01c8063af22e864116100d7578063ede3df671161008b578063f8f4a4ba11610070578063f8f4a4ba1461032a578063faf5c6ed1461033d578063fd21d3121461039057600080fd5b8063ede3df6714610304578063f27d5b381461031757600080fd5b8063c131f417116100bc578063c131f417146102b8578063ca7c6a02146102d8578063e1f1c4a7146102fb57600080fd5b8063af22e86414610285578063bd244c35146102a557600080fd5b8063677342ce1161012e5780636cb4024b116101135780636cb4024b1461024c5780638f5e514a1461025f5780639e4fa2041461027257600080fd5b8063677342ce1461022a5780636a1460241461023d57600080fd5b8063578aefbb1161015f578063578aefbb146101b457806359eab1d1146101dc5780635b3cce641461021757600080fd5b806330ed1f5d1461017b578063542f45b2146101a1575b600080fd5b61018e610189366004611471565b6103b0565b6040519081526020015b60405180910390f35b61018e6101af366004611492565b6103ed565b6101c76101c2366004611503565b6104ec565b60408051928352602083019190915201610198565b8180156101e857600080fd5b506101fc6101f7366004611586565b6106fe565b60408051938452602084019290925290820152606001610198565b61018e610225366004611471565b610870565b61018e61023836600461142d565b610890565b61018e670de0b6b3a764000081565b61018e61025a366004611445565b6108e9565b61018e61026d366004611471565b610967565b61018e610280366004611492565b61098b565b81801561029157600080fd5b5061018e6102a03660046114bd565b610998565b61018e6102b3366004611471565b610af1565b8180156102c457600080fd5b5061018e6102d336600461154c565b610b1e565b6102eb6102e6366004611445565b610ce0565b6040519015158152602001610198565b61018e61271081565b61018e6103123660046114ee565b610d2a565b61018e61032536600461154c565b610d7a565b61018e6103383660046114ee565b610ded565b81801561034957600080fd5b5061035d6103583660046115c8565b610e43565b60405161019891908151815260208083015190820152604080830151908201526060918201519181019190915260800190565b81801561039c57600080fd5b506101c76103ab3660046114bd565b611257565b6000670de0b6b3a76400006103c660028261162b565b6103d08486611664565b6103da9190611613565b6103e4919061162b565b90505b92915050565b60008361045b576040517f08c379a000000000000000000000000000000000000000000000000000000000815260206004820152601960248201527f4d6174684c69623a20494e53554646494349454e545f5154590000000000000060448201526064015b60405180910390fd5b821580159061046957508115155b6104cf576040517f08c379a000000000000000000000000000000000000000000000000000000000815260206004820152601f60248201527f4d6174684c69623a20494e53554646494349454e545f4c4951554944495459006044820152606401610452565b826104da8386611664565b6104e4919061162b565b949350505050565b600080600085846000015161050191906116a1565b90508087111561056d576040517f08c379a000000000000000000000000000000000000000000000000000000000815260206004820152601b60248201527f4d6174684c69623a20494e53554646494349454e545f444543415900000000006044820152606401610452565b8088111561057d57809250610581565b8792505b600061059585602001518660000151610870565b90506000670de0b6b3a76400006105bd6105af8488611664565b670de0b6b3a7640000610af1565b6105c7919061162b565b905080610656576040517f08c379a000000000000000000000000000000000000000000000000000000000815260206004820152602560248201527f4d6174684c69623a20494e53554646494349454e545f4348414e47455f494e5f60448201527f44454341590000000000000000000000000000000000000000000000000000006064820152608401610452565b6000670de0b6b3a764000061066b8486611664565b610675919061162b565b9050806106de576040517f08c379a000000000000000000000000000000000000000000000000000000000815260206004820152601760248201527f4d6174684c69623a204e4f5f51554f54455f44454341590000000000000000006044820152606401610452565b6106ee8989888a60000151610ded565b9450505050509550959350505050565b6000806000806107178a866000015487600101546103ed565b9050888111610795578681101561078a576040517f08c379a000000000000000000000000000000000000000000000000000000000815260206004820152601f60248201527f4d6174684c69623a20494e53554646494349454e545f51554f54455f515459006044820152606401610452565b89935080925061081c565b60006107aa8a876001015488600001546103ed565b905088811015610816576040517f08c379a000000000000000000000000000000000000000000000000000000000815260206004820152601e60248201527f4d6174684c69623a20494e53554646494349454e545f424153455f51545900006044820152606401610452565b93508892505b61082b8684876001015461098b565b9150838560000160008282546108419190611613565b925050819055508285600101600082825461085c9190611613565b925050819055505096509650969350505050565b60008161087e60028261162b565b6103d0670de0b6b3a764000086611664565b60008060026108a0846001611613565b6108aa919061162b565b90508291505b818110156108e3579050806002816108c8818661162b565b6108d29190611613565b6108dc919061162b565b90506108b0565b50919050565b600080610903836020015184600001516102389190611664565b905060006109148460400151610890565b90508082111561095f57600061092a82846116a1565b6109349087611664565b9050600082610944856005611664565b61094e9190611613565b905061095a818361162b565b945050505b505092915050565b60008183106109815761097a82846116a1565b90506103e7565b6103e483836116a1565b6000816104da8585611664565b600084158015906109a857508315155b610a0e576040517f08c379a000000000000000000000000000000000000000000000000000000000815260206004820152601f60248201527f4d6174684c69623a20494e53554646494349454e545f544f4b454e5f515459006044820152606401610452565b610a22858360000154846001015486610d2a565b905083811015610ab4576040517f08c379a000000000000000000000000000000000000000000000000000000000815260206004820152602560248201527f4d6174684c69623a20494e53554646494349454e545f51554f54455f544f4b4560448201527f4e5f5154590000000000000000000000000000000000000000000000000000006064820152608401610452565b84826000016000828254610ac89190611613565b9250508190555080826001016000828254610ae391906116a1565b909155509095945050505050565b60008180610b0060028261162b565b610b0a9086611613565b610b14919061162b565b6103e49190611664565b60008315801590610b2f5750815415155b610bba576040517f08c379a0000000000000000000000000000000000000000000000000000000008152602060048201526024808201527f4d6174684c69623a20494e53554646494349454e545f424153455f544f4b454e60448201527f5f515459000000000000000000000000000000000000000000000000000000006064820152608401610452565b8154841015610bfc576000610bd783600001548460010154610870565b90506000610be58683610870565b9050610bf388828888610d2a565b92505050610c13565b610c10868360010154846000015486610d2a565b90505b84811015610ca2576040517f08c379a0000000000000000000000000000000000000000000000000000000008152602060048201526024808201527f4d6174684c69623a20494e53554646494349454e545f424153455f544f4b454e60448201527f5f515459000000000000000000000000000000000000000000000000000000006064820152608401610452565b80826000016000828254610cb691906116a1565b9250508190555085826001016000828254610cd19190611613565b90915550909695505050505050565b6000670de0b6b3a7640000610d21670de0b6b3a7640000610d05868660000151610967565b610d0f9190611664565b61022585600001518660200151610870565b10159392505050565b600080610d39836127106116a1565b610d439087611664565b905080610d5261271087611664565b610d5c9190611613565b610d668583611664565b610d70919061162b565b9695505050505050565b600080610d878784610870565b90506000610d958583611613565b90506000610da38783610870565b9050670de0b6b3a7640000610dd6610dc4610dbe838c611664565b846103b0565b61022584670de0b6b3a76400006116a1565b610de0919061162b565b9998505050505050505050565b60008083610dfb8785611613565b610e059190611613565b90506000610e138583610870565b9050670de0b6b3a7640000610e2e610dc4610dbe838a611664565b610e38919061162b565b979650505050505050565b610e6e6040518060800160405280600081526020016000815260200160008152602001600081525090565b82156110df57604080516060810182528354815260018401546020820152600284015491810191909152610ea39084906108e9565b60608201819052610eb49084611613565b9250610ee984836040518060600160405290816000820154815260200160018201548152602001600282015481525050610ce0565b156110c05760008060008460000154871115610f1557610f0b8a888888611257565b9092509050610f52565b610f4c8b600089898960405180606001604052908160008201548152602001600182015481526020016002820154815250506104ec565b90935090505b8982108015610f6057508a83105b15610f9c57610f8f610f72848d6116a1565b610f7c848d6116a1565b600080610f89868c611613565b8a6106fe565b6040870152602086015284525b8284600001818151610fae9190611613565b905250602084018051839190610fc5908390611613565b905250604084018051829190610fdc908390611613565b905250835189111561104a576040517f08c379a000000000000000000000000000000000000000000000000000000000815260206004820152601e60248201527f4d6174684c69623a20494e53554646494349454e545f424153455f51545900006044820152606401610452565b87846020015110156110b8576040517f08c379a000000000000000000000000000000000000000000000000000000000815260206004820152601f60248201527f4d6174684c69623a20494e53554646494349454e545f51554f54455f515459006044820152606401610452565b505050610e38565b6110ce8888888887876106fe565b604084015260208301528152610e38565b8761116c576040517f08c379a000000000000000000000000000000000000000000000000000000000815260206004820152602660248201527f4d6174684c69623a20494e53554646494349454e545f424153455f5154595f4460448201527f45534952454400000000000000000000000000000000000000000000000000006064820152608401610452565b866111f9576040517f08c379a000000000000000000000000000000000000000000000000000000000815260206004820152602760248201527f4d6174684c69623a20494e53554646494349454e545f51554f54455f5154595f60448201527f44455349524544000000000000000000000000000000000000000000000000006064820152608401610452565b87815260208101879052611210610238888a611664565b6040820152805182548390600090611229908490611613565b90915550506020810151600183018054600090611247908490611613565b9091555050979650505050505050565b600080600083600001548661126c91906116a1565b9050600061128285600001548660010154610870565b905060006112908383610870565b9050808911156112a2578094506112a6565b8894505b6000670de0b6b3a76400006112be6105af8589611664565b6112c8919061162b565b905080611357576040517f08c379a000000000000000000000000000000000000000000000000000000000815260206004820152602560248201527f4d6174684c69623a20494e53554646494349454e545f4348414e47455f494e5f60448201527f44454341590000000000000000000000000000000000000000000000000000006064820152608401610452565b8087600001600082825461136b9190611613565b92505081905550858760010160008282546113869190611613565b9250508190555061139e8989888a6001015487610d7a565b94505050505094509492505050565b6000606082840312156113be578081fd5b6040516060810181811067ffffffffffffffff82111715611406577f4e487b710000000000000000000000000000000000000000000000000000000083526041600452602483fd5b80604052508091508235815260208301356020820152604083013560408201525092915050565b60006020828403121561143e578081fd5b5035919050565b60008060808385031215611457578081fd5b8235915061146884602085016113ad565b90509250929050565b60008060408385031215611483578182fd5b50508035926020909101359150565b6000806000606084860312156114a6578081fd5b505081359360208301359350604090920135919050565b600080600080608085870312156114d2578081fd5b5050823594602084013594506040840135936060013592509050565b600080600080608085870312156114d2578384fd5b600080600080600060e0868803121561151a578081fd5b8535945060208601359350604086013592506060860135915061154087608088016113ad565b90509295509295909350565b600080600080600060a08688031215611563578081fd5b505083359560208501359550604085013594606081013594506080013592509050565b60008060008060008060c0878903121561159e578081fd5b505084359660208601359650604086013595606081013595506080810135945060a0013592509050565b600080600080600080600060e0888a0312156115e2578485fd5b505085359760208701359750604087013596606081013596506080810135955060a0810135945060c0013592509050565b60008219821115611626576116266116b8565b500190565b60008261165f577f4e487b710000000000000000000000000000000000000000000000000000000081526012600452602481fd5b500490565b6000817fffffffffffffffffffffffffffffffffffffffffffffffffffffffffffffffff048311821515161561169c5761169c6116b8565b500290565b6000828210156116b3576116b36116b8565b500390565b7f4e487b7100000000000000000000000000000000000000000000000000000000600052601160045260246000fdfea2646970667358221220bc61e1f72605dd4a6d22833c2e46c773a8e80e515df211c72385ad0971cda4e264736f6c63430008040033",
  "linkReferences": {},
  "deployedLinkReferences": {}
}