{
  "_format": "hh-sol-artifact-1",
  "contractName": "MathLib",
  "sourceName": "src/libraries/MathLib.sol",
  "abi": [
    {
      "inputs": [],
      "name": "BASIS_POINTS",
      "outputs": [
        {
          "internalType": "uint256",
          "name": "",
          "type": "uint256"
        }
      ],
      "stateMutability": "view",
      "type": "function"
    },
    {
      "inputs": [],
      "name": "WAD",
      "outputs": [
        {
          "internalType": "uint256",
          "name": "",
          "type": "uint256"
        }
      ],
      "stateMutability": "view",
      "type": "function"
    },
    {
      "inputs": [
        {
          "internalType": "uint256",
          "name": "_baseTokenQtyDesired",
          "type": "uint256"
        },
        {
          "internalType": "uint256",
          "name": "_baseTokenQtyMin",
          "type": "uint256"
        },
        {
          "internalType": "uint256",
          "name": "_baseTokenReserveQty",
          "type": "uint256"
        },
        {
          "internalType": "uint256",
          "name": "_totalSupplyOfLiquidityTokens",
          "type": "uint256"
        },
        {
          "components": [
            {
              "internalType": "uint256",
              "name": "baseTokenReserveQty",
              "type": "uint256"
            },
            {
              "internalType": "uint256",
              "name": "quoteTokenReserveQty",
              "type": "uint256"
            },
            {
              "internalType": "uint256",
              "name": "kLast",
              "type": "uint256"
            }
          ],
          "internalType": "struct MathLib.InternalBalances",
          "name": "_internalBalances",
          "type": "tuple"
        }
      ],
      "name": "calculateAddBaseTokenLiquidityQuantities",
      "outputs": [
        {
          "internalType": "uint256",
          "name": "baseTokenQty",
          "type": "uint256"
        },
        {
          "internalType": "uint256",
          "name": "liquidityTokenQty",
          "type": "uint256"
        }
      ],
      "stateMutability": "pure",
      "type": "function"
    },
    {
      "inputs": [
        {
          "internalType": "uint256",
          "name": "_totalSupplyOfLiquidityTokens",
          "type": "uint256"
        },
        {
          "components": [
            {
              "internalType": "uint256",
              "name": "baseTokenReserveQty",
              "type": "uint256"
            },
            {
              "internalType": "uint256",
              "name": "quoteTokenReserveQty",
              "type": "uint256"
            },
            {
              "internalType": "uint256",
              "name": "kLast",
              "type": "uint256"
            }
          ],
          "internalType": "struct MathLib.InternalBalances",
          "name": "_internalBalances",
          "type": "tuple"
        }
      ],
      "name": "calculateLiquidityTokenFees",
      "outputs": [
        {
          "internalType": "uint256",
          "name": "liquidityTokenFeeQty",
          "type": "uint256"
        }
      ],
      "stateMutability": "pure",
      "type": "function"
    },
    {
      "inputs": [
        {
          "internalType": "uint256",
          "name": "_totalSupplyOfLiquidityTokens",
          "type": "uint256"
        },
        {
          "internalType": "uint256",
          "name": "_quoteTokenQty",
          "type": "uint256"
        },
        {
          "internalType": "uint256",
          "name": "_quoteTokenReserveBalance",
          "type": "uint256"
        }
      ],
      "name": "calculateLiquidityTokenQtyForDoubleAssetEntry",
      "outputs": [
        {
          "internalType": "uint256",
          "name": "liquidityTokenQty",
          "type": "uint256"
        }
      ],
      "stateMutability": "pure",
      "type": "function"
    },
    {
      "inputs": [
        {
          "internalType": "uint256",
          "name": "_totalSupplyOfLiquidityTokens",
          "type": "uint256"
        },
        {
          "internalType": "uint256",
          "name": "_tokenQtyAToAdd",
          "type": "uint256"
        },
        {
          "internalType": "uint256",
          "name": "_internalTokenAReserveQty",
          "type": "uint256"
        },
        {
          "internalType": "uint256",
          "name": "_tokenBDecayChange",
          "type": "uint256"
        },
        {
          "internalType": "uint256",
          "name": "_tokenBDecay",
          "type": "uint256"
        }
      ],
      "name": "calculateLiquidityTokenQtyForSingleAssetEntry",
      "outputs": [
        {
          "internalType": "uint256",
          "name": "liquidityTokenQty",
          "type": "uint256"
        }
      ],
      "stateMutability": "pure",
      "type": "function"
    },
    {
      "inputs": [
        {
          "internalType": "uint256",
          "name": "_tokenAQty",
          "type": "uint256"
        },
        {
          "internalType": "uint256",
          "name": "_tokenAReserveQty",
          "type": "uint256"
        },
        {
          "internalType": "uint256",
          "name": "_tokenBReserveQty",
          "type": "uint256"
        }
      ],
      "name": "calculateQty",
      "outputs": [
        {
          "internalType": "uint256",
          "name": "tokenBQty",
          "type": "uint256"
        }
      ],
      "stateMutability": "pure",
      "type": "function"
    },
    {
      "inputs": [
        {
          "internalType": "uint256",
          "name": "_tokenASwapQty",
          "type": "uint256"
        },
        {
          "internalType": "uint256",
          "name": "_tokenAReserveQty",
          "type": "uint256"
        },
        {
          "internalType": "uint256",
          "name": "_tokenBReserveQty",
          "type": "uint256"
        },
        {
          "internalType": "uint256",
          "name": "_liquidityFeeInBasisPoints",
          "type": "uint256"
        }
      ],
      "name": "calculateQtyToReturnAfterFees",
      "outputs": [
        {
          "internalType": "uint256",
          "name": "qtyToReturn",
          "type": "uint256"
        }
      ],
      "stateMutability": "pure",
      "type": "function"
    },
    {
      "inputs": [
        {
          "internalType": "uint256",
          "name": "a",
          "type": "uint256"
        },
        {
          "internalType": "uint256",
          "name": "b",
          "type": "uint256"
        }
      ],
      "name": "diff",
      "outputs": [
        {
          "internalType": "uint256",
          "name": "",
          "type": "uint256"
        }
      ],
      "stateMutability": "pure",
      "type": "function"
    },
    {
      "inputs": [
        {
          "internalType": "uint256",
          "name": "_baseTokenReserveQty",
          "type": "uint256"
        },
        {
          "components": [
            {
              "internalType": "uint256",
              "name": "baseTokenReserveQty",
              "type": "uint256"
            },
            {
              "internalType": "uint256",
              "name": "quoteTokenReserveQty",
              "type": "uint256"
            },
            {
              "internalType": "uint256",
              "name": "kLast",
              "type": "uint256"
            }
          ],
          "internalType": "struct MathLib.InternalBalances",
          "name": "_internalBalances",
          "type": "tuple"
        }
      ],
      "name": "isSufficientDecayPresent",
      "outputs": [
        {
          "internalType": "bool",
          "name": "",
          "type": "bool"
        }
      ],
      "stateMutability": "pure",
      "type": "function"
    },
    {
      "inputs": [
        {
          "internalType": "uint256",
          "name": "a",
          "type": "uint256"
        },
        {
          "internalType": "uint256",
          "name": "n",
          "type": "uint256"
        }
      ],
      "name": "roundToNearest",
      "outputs": [
        {
          "internalType": "uint256",
          "name": "",
          "type": "uint256"
        }
      ],
      "stateMutability": "pure",
      "type": "function"
    },
    {
      "inputs": [
        {
          "internalType": "uint256",
          "name": "a",
          "type": "uint256"
        },
        {
          "internalType": "uint256",
          "name": "b",
          "type": "uint256"
        }
      ],
      "name": "wDiv",
      "outputs": [
        {
          "internalType": "uint256",
          "name": "",
          "type": "uint256"
        }
      ],
      "stateMutability": "pure",
      "type": "function"
    },
    {
      "inputs": [
        {
          "internalType": "uint256",
          "name": "a",
          "type": "uint256"
        },
        {
          "internalType": "uint256",
          "name": "b",
          "type": "uint256"
        }
      ],
      "name": "wMul",
      "outputs": [
        {
          "internalType": "uint256",
          "name": "",
          "type": "uint256"
        }
      ],
      "stateMutability": "pure",
      "type": "function"
    }
  ],
  "bytecode": "0x61171861003a600b82828239805160001a60731461002d57634e487b7160e01b600052600060045260246000fd5b30600052607381538281f3fe73000000000000000000000000000000000000000030146080604052600436106101405760003560e01c80639e4fa204116100bc578063c131f4171161008b578063cb11d2c611610070578063cb11d2c614610318578063e1f1c4a714610338578063ede3df671461034157600080fd5b8063c131f417146102d5578063ca7c6a02146102f557600080fd5b80639e4fa2041461027c578063af22e8641461028f578063b4873dbe146102af578063bd244c35146102c257600080fd5b80635b3cce64116101135780636cb4024b116100f85780636cb4024b146102035780638f5e514a146102165780639d372a7b1461022957600080fd5b80635b3cce64146101e15780636a146024146101f457600080fd5b806302af65fa1461014557806330ed1f5d14610185578063542f45b2146101a6578063578aefbb146101b9575b600080fd5b81801561015157600080fd5b5061016561016036600461156f565b610354565b604080519384526020840192909252908201526060015b60405180910390f35b61019861019336600461145a565b6104c8565b60405190815260200161017c565b6101986101b436600461147b565b610505565b6101cc6101c73660046114ec565b610603565b6040805192835260208301919091520161017c565b6101986101ef36600461145a565b61081b565b610198670de0b6b3a764000081565b61019861021136600461142e565b61083b565b61019861022436600461145a565b6108be565b81801561023557600080fd5b506102496102443660046115ba565b6108e2565b60405161017c91908151815260208083015190820152604080830151908201526060918201519181019190915260800190565b61019861028a36600461147b565b610d0b565b81801561029b57600080fd5b506101986102aa3660046114a6565b610d18565b6101986102bd366004611535565b610e71565b6101986102d036600461145a565b610f03565b8180156102e157600080fd5b506101986102f0366004611535565b610f30565b61030861030336600461142e565b6110f1565b604051901515815260200161017c565b81801561032457600080fd5b506101cc610333366004611535565b61113b565b61019861271081565b61019861034f3660046114d7565b6112ee565b60008060008061036d8b86600001548760010154610505565b90508981116103f057878110156103e5576040517f08c379a000000000000000000000000000000000000000000000000000000000815260206004820152601f60248201527f4d6174684c69623a20494e53554646494349454e545f51554f54455f5154590060448201526064015b60405180910390fd5b8a9350809250610477565b60006104058b87600101548860000154610505565b905089811015610471576040517f08c379a000000000000000000000000000000000000000000000000000000000815260206004820152601e60248201527f4d6174684c69623a20494e53554646494349454e545f424153455f515459000060448201526064016103dc565b93508992505b610482868489610d0b565b915083856000016000828254610498919061160e565b92505081905550828560010160008282546104b3919061160e565b92505081905550509750975097945050505050565b6000670de0b6b3a76400006104de600282611626565b6104e8848661165f565b6104f2919061160e565b6104fc9190611626565b90505b92915050565b6000808411610570576040517f08c379a000000000000000000000000000000000000000000000000000000000815260206004820152601960248201527f4d6174684c69623a20494e53554646494349454e545f5154590000000000000060448201526064016103dc565b6000831180156105805750600082115b6105e6576040517f08c379a000000000000000000000000000000000000000000000000000000000815260206004820152601f60248201527f4d6174684c69623a20494e53554646494349454e545f4c49515549444954590060448201526064016103dc565b826105f1838661165f565b6105fb9190611626565b949350505050565b6000806000858460000151610618919061169c565b9050808710610683576040517f08c379a000000000000000000000000000000000000000000000000000000000815260206004820152601b60248201527f4d6174684c69623a20494e53554646494349454e545f4445434159000000000060448201526064016103dc565b8088111561069357809250610697565b8792505b60006106ab8560200151866000015161081b565b90506000670de0b6b3a76400006106d36106c5848861165f565b670de0b6b3a7640000610f03565b6106dd9190611626565b90506000811161076f576040517f08c379a000000000000000000000000000000000000000000000000000000000815260206004820152602560248201527f4d6174684c69623a20494e53554646494349454e545f4348414e47455f494e5f60448201527f444543415900000000000000000000000000000000000000000000000000000060648201526084016103dc565b6000670de0b6b3a7640000610784848661165f565b61078e9190611626565b9050600081116107fa576040517f08c379a000000000000000000000000000000000000000000000000000000000815260206004820152601760248201527f4d6174684c69623a204e4f5f51554f54455f444543415900000000000000000060448201526064016103dc565b61080b888789600001518585610e71565b9450505050509550959350505050565b600081610829600282611626565b6104e8670de0b6b3a76400008661165f565b60008061085a83602001518460000151610855919061165f565b61133e565b9050600061086b846040015161133e565b9050808211156108b6576000610881828461169c565b61088b908761165f565b905060008261089b85600561165f565b6108a5919061160e565b90506108b18183611626565b945050505b505092915050565b60008183106108d8576108d1828461169c565b90506104ff565b6104fc838361169c565b61090d6040518060800160405280600081526020016000815260200160008152602001600081525090565b8215610b8b5760408051606081018252835481526001840154602082015260028401549181019190915261094290849061083b565b60608201819052610953908461160e565b9250610988858360405180606001604052908160008201548152602001600182015481526020016002820154815250506110f1565b15610b6b57600080600084600001548811156109b6576109ac8b60008a898961113b565b90925090506109f3565b6109ed8c60008a89896040518060600160405290816000820154815260200160018201548152602001600282015481525050610603565b90935090505b8a82108015610a0157508b83105b15610a4757610a3a610a13848e61169c565b610a1d848e61169c565b600080610a2a878d61160e565b610a34878d61160e565b8b610354565b6040870152602086015284525b8284600001818151610a59919061160e565b905250602084018051839190610a7090839061160e565b905250604084018051829190610a8790839061160e565b90525083518a1115610af5576040517f08c379a000000000000000000000000000000000000000000000000000000000815260206004820152601e60248201527f4d6174684c69623a20494e53554646494349454e545f424153455f515459000060448201526064016103dc565b8884602001511015610b63576040517f08c379a000000000000000000000000000000000000000000000000000000000815260206004820152601f60248201527f4d6174684c69623a20494e53554646494349454e545f51554f54455f5154590060448201526064016103dc565b505050610cff565b610b7a89898989888888610354565b604084015260208301528152610cff565b60008911610c1b576040517f08c379a000000000000000000000000000000000000000000000000000000000815260206004820152602660248201527f4d6174684c69623a20494e53554646494349454e545f424153455f5154595f4460448201527f455349524544000000000000000000000000000000000000000000000000000060648201526084016103dc565b60008811610cab576040517f08c379a000000000000000000000000000000000000000000000000000000000815260206004820152602760248201527f4d6174684c69623a20494e53554646494349454e545f51554f54455f5154595f60448201527f444553495245440000000000000000000000000000000000000000000000000060648201526084016103dc565b88815260208101889052610cc2610855898b61165f565b6040820152805182548390600090610cdb90849061160e565b90915550506020810151600183018054600090610cf990849061160e565b90915550505b98975050505050505050565b6000816105f1858561165f565b60008085118015610d295750600084115b610d8f576040517f08c379a000000000000000000000000000000000000000000000000000000000815260206004820152601f60248201527f4d6174684c69623a20494e53554646494349454e545f544f4b454e5f5154590060448201526064016103dc565b610da38583600001548460010154866112ee565b9050838111610e34576040517f08c379a000000000000000000000000000000000000000000000000000000000815260206004820152602560248201527f4d6174684c69623a20494e53554646494349454e545f51554f54455f544f4b4560448201527f4e5f51545900000000000000000000000000000000000000000000000000000060648201526084016103dc565b84826000016000828254610e48919061160e565b9250508190555080826001016000828254610e63919061169c565b909155509095945050505050565b6000806002670de0b6b3a7640000610ea7610ea1610e8f8a8a61081b565b610193670de0b6b3a76400008a61165f565b8661081b565b610eb19190611626565b610ebb9190611626565b9050670de0b6b3a7640000610eee610edc610ed6838b61165f565b846104c8565b6101ef84670de0b6b3a764000061169c565b610ef89190611626565b979650505050505050565b60008180610f12600282611626565b610f1c908661160e565b610f269190611626565b6104fc919061165f565b60008084118015610f415750815415155b610fcc576040517f08c379a0000000000000000000000000000000000000000000000000000000008152602060048201526024808201527f4d6174684c69623a20494e53554646494349454e545f424153455f544f4b454e60448201527f5f5154590000000000000000000000000000000000000000000000000000000060648201526084016103dc565b815484101561100e576000610fe98360000154846001015461081b565b90506000610ff7868361081b565b9050611005888288886112ee565b92505050611025565b6110228683600101548460000154866112ee565b90505b8481116110b3576040517f08c379a0000000000000000000000000000000000000000000000000000000008152602060048201526024808201527f4d6174684c69623a20494e53554646494349454e545f424153455f544f4b454e60448201527f5f5154590000000000000000000000000000000000000000000000000000000060648201526084016103dc565b808260000160008282546110c7919061169c565b92505081905550858260010160008282546110e2919061160e565b90915550909695505050505050565b6000670de0b6b3a7640000611132670de0b6b3a76400006111168686600001516108be565b611120919061165f565b6101ef8560000151866020015161081b565b10159392505050565b6000806000836000015486611150919061169c565b905060006111668560000154866001015461081b565b90506000611174838361081b565b90508089106111df576040517f08c379a000000000000000000000000000000000000000000000000000000000815260206004820152601b60248201527f4d6174684c69623a20494e53554646494349454e545f4445434159000000000060448201526064016103dc565b808a11156111ef578094506111f3565b8994505b6000670de0b6b3a764000061120b6106c5858961165f565b6112159190611626565b9050600081116112a7576040517f08c379a000000000000000000000000000000000000000000000000000000000815260206004820152602560248201527f4d6174684c69623a20494e53554646494349454e545f4348414e47455f494e5f60448201527f444543415900000000000000000000000000000000000000000000000000000060648201526084016103dc565b808760000160008282546112bb919061160e565b92505081905550858760010160008282546112d6919061160e565b9250508190555061080b888789600101548488610e71565b6000806112fd8361271061169c565b611307908761165f565b9050806113166127108761165f565b611320919061160e565b61132a858361165f565b6113349190611626565b9695505050505050565b6000600382111561139f5750806000611358600283611626565b61136390600161160e565b90505b818110156113995790508060028161137e8186611626565b611388919061160e565b6113929190611626565b9050611366565b50919050565b81156113a9575060015b919050565b6000606082840312156113bf578081fd5b6040516060810181811067ffffffffffffffff82111715611407577f4e487b710000000000000000000000000000000000000000000000000000000083526041600452602483fd5b80604052508091508235815260208301356020820152604083013560408201525092915050565b60008060808385031215611440578182fd5b8235915061145184602085016113ae565b90509250929050565b6000806040838503121561146c578182fd5b50508035926020909101359150565b60008060006060848603121561148f578081fd5b505081359360208301359350604090920135919050565b600080600080608085870312156114bb578081fd5b5050823594602084013594506040840135936060013592509050565b600080600080608085870312156114bb578384fd5b600080600080600060e08688031215611503578081fd5b8535945060208601359350604086013592506060860135915061152987608088016113ae565b90509295509295909350565b600080600080600060a0868803121561154c578081fd5b505083359560208501359550604085013594606081013594506080013592509050565b600080600080600080600060e0888a031215611589578182fd5b505085359760208701359750604087013596606081013596506080810135955060a0810135945060c0013592509050565b600080600080600080600080610100898b0312156115d6578182fd5b505086359860208801359850604088013597606081013597506080810135965060a0810135955060c0810135945060e0013592509050565b60008219821115611621576116216116b3565b500190565b60008261165a577f4e487b710000000000000000000000000000000000000000000000000000000081526012600452602481fd5b500490565b6000817fffffffffffffffffffffffffffffffffffffffffffffffffffffffffffffffff0483118215151615611697576116976116b3565b500290565b6000828210156116ae576116ae6116b3565b500390565b7f4e487b7100000000000000000000000000000000000000000000000000000000600052601160045260246000fdfea26469706673582212207624c6dd7fa6796c3c3ecb70ae21360ee2bc606705f6d050728fb8eeda01c5fa64736f6c63430008040033",
  "linkReferences": {},
  "deployedLinkReferences": {}
}