{
  "_format": "hh-sol-artifact-1",
  "contractName": "ExchangeFactory",
  "sourceName": "src/contracts/ExchangeFactory.sol",
  "abi": [
    {
      "inputs": [
        {
          "internalType": "address",
          "name": "_feeAddress",
          "type": "address"
        }
      ],
      "stateMutability": "nonpayable",
      "type": "constructor"
    },
    {
      "anonymous": false,
      "inputs": [
        {
          "indexed": true,
          "internalType": "address",
          "name": "creator",
          "type": "address"
        },
        {
          "indexed": true,
          "internalType": "address",
          "name": "exchangeAddress",
          "type": "address"
        }
      ],
      "name": "NewExchange",
      "type": "event"
    },
    {
      "anonymous": false,
      "inputs": [
        {
          "indexed": true,
          "internalType": "address",
          "name": "previousOwner",
          "type": "address"
        },
        {
          "indexed": true,
          "internalType": "address",
          "name": "newOwner",
          "type": "address"
        }
      ],
      "name": "OwnershipTransferred",
      "type": "event"
    },
    {
      "anonymous": false,
      "inputs": [
        {
          "indexed": true,
          "internalType": "address",
          "name": "feeAddress",
          "type": "address"
        }
      ],
      "name": "SetFeeAddress",
      "type": "event"
    },
    {
      "inputs": [
        {
          "internalType": "address",
          "name": "_baseToken",
          "type": "address"
        },
        {
          "internalType": "address",
          "name": "_quoteToken",
          "type": "address"
        }
      ],
      "name": "createNewExchange",
      "outputs": [],
      "stateMutability": "nonpayable",
      "type": "function"
    },
    {
      "inputs": [
        {
          "internalType": "address",
          "name": "",
          "type": "address"
        },
        {
          "internalType": "address",
          "name": "",
          "type": "address"
        }
      ],
      "name": "exchangeAddressByTokenAddress",
      "outputs": [
        {
          "internalType": "address",
          "name": "",
          "type": "address"
        }
      ],
      "stateMutability": "view",
      "type": "function"
    },
    {
      "inputs": [],
      "name": "feeAddress",
      "outputs": [
        {
          "internalType": "address",
          "name": "",
          "type": "address"
        }
      ],
      "stateMutability": "view",
      "type": "function"
    },
    {
      "inputs": [
        {
          "internalType": "address",
          "name": "",
          "type": "address"
        }
      ],
      "name": "isValidExchangeAddress",
      "outputs": [
        {
          "internalType": "bool",
          "name": "",
          "type": "bool"
        }
      ],
      "stateMutability": "view",
      "type": "function"
    },
    {
      "inputs": [],
      "name": "owner",
      "outputs": [
        {
          "internalType": "address",
          "name": "",
          "type": "address"
        }
      ],
      "stateMutability": "view",
      "type": "function"
    },
    {
      "inputs": [],
      "name": "renounceOwnership",
      "outputs": [],
      "stateMutability": "nonpayable",
      "type": "function"
    },
    {
      "inputs": [
        {
          "internalType": "address",
          "name": "_feeAddress",
          "type": "address"
        }
      ],
      "name": "setFeeAddress",
      "outputs": [],
      "stateMutability": "nonpayable",
      "type": "function"
    },
    {
      "inputs": [
        {
          "internalType": "address",
          "name": "newOwner",
          "type": "address"
        }
      ],
      "name": "transferOwnership",
      "outputs": [],
      "stateMutability": "nonpayable",
      "type": "function"
    }
  ],
  "bytecode": "0x608060405234801561001057600080fd5b50604051613ff5380380613ff583398101604081905261002f91610107565b610038336100b7565b6001600160a01b0381166100925760405162461bcd60e51b815260206004820181905260248201527f45786368616e6765466163746f72793a20494e56414c49445f41444452455353604482015260640160405180910390fd5b600380546001600160a01b0319166001600160a01b0392909216919091179055610135565b600080546001600160a01b038381166001600160a01b0319831681178455604051919092169283917f8be0079c531659141344cd1fd0a4f28419497f9722a3daafe3b4186f6b6457e09190a35050565b600060208284031215610118578081fd5b81516001600160a01b038116811461012e578182fd5b9392505050565b613eb1806101446000396000f3fe60806040523480156200001157600080fd5b5060043610620000935760003560e01c80638705fcd411620000625780638705fcd414620001365780638cc774ec146200014d5780638da5cb5b1462000191578063f2fde38b14620001b057600080fd5b80630a6b78ff14620000985780631016954e14620000b15780634127535814620000ec578063715018a6146200012c575b600080fd5b620000af620000a936600462000b33565b620001c7565b005b620000d7620000c236600462000b0f565b60026020526000908152604090205460ff1681565b60405190151581526020015b60405180910390f35b60035473ffffffffffffffffffffffffffffffffffffffff165b60405173ffffffffffffffffffffffffffffffffffffffff9091168152602001620000e3565b620000af620005af565b620000af6200014736600462000b0f565b62000640565b620001066200015e36600462000b33565b600160209081526000928352604080842090915290825290205473ffffffffffffffffffffffffffffffffffffffff1681565b60005473ffffffffffffffffffffffffffffffffffffffff1662000106565b620000af620001c136600462000b0f565b62000800565b8073ffffffffffffffffffffffffffffffffffffffff168273ffffffffffffffffffffffffffffffffffffffff16141562000289576040517f08c379a000000000000000000000000000000000000000000000000000000000815260206004820152602160248201527f45786368616e6765466163746f72793a204944454e544943414c5f544f4b454e60448201527f530000000000000000000000000000000000000000000000000000000000000060648201526084015b60405180910390fd5b73ffffffffffffffffffffffffffffffffffffffff821615801590620002c4575073ffffffffffffffffffffffffffffffffffffffff811615155b62000352576040517f08c379a000000000000000000000000000000000000000000000000000000000815260206004820152602660248201527f45786368616e6765466163746f72793a20494e56414c49445f544f4b454e5f4160448201527f4444524553530000000000000000000000000000000000000000000000000000606482015260840162000280565b73ffffffffffffffffffffffffffffffffffffffff82811660009081526001602090815260408083208585168452909152902054161562000416576040517f08c379a000000000000000000000000000000000000000000000000000000000815260206004820152602360248201527f45786368616e6765466163746f72793a204455504c49434154455f455843484160448201527f4e47450000000000000000000000000000000000000000000000000000000000606482015260840162000280565b6000620004398373ffffffffffffffffffffffffffffffffffffffff1662000936565b905060006200045e8373ffffffffffffffffffffffffffffffffffffffff1662000936565b9050600082826040516020016200047792919062000ca7565b60405160208183030381529060405283836040516020016200049b92919062000d2d565b604051602081830303815290604052868630604051620004bb9062000ad7565b620004cb95949392919062000db3565b604051809103906000f080158015620004e8573d6000803e3d6000fd5b5073ffffffffffffffffffffffffffffffffffffffff86811660009081526001602081815260408084208a86168552825280842080547fffffffffffffffffffffffff0000000000000000000000000000000000000000169587169586179055848452600290915280832080547fffffffffffffffffffffffffffffffffffffffffffffffffffffffffffffff001690921790915551929350909133917f9d42cb017eb05bd8944ab536a8b35bc68085931dd5f4356489801453923953f991a35050505050565b60005473ffffffffffffffffffffffffffffffffffffffff16331462000632576040517f08c379a000000000000000000000000000000000000000000000000000000000815260206004820181905260248201527f4f776e61626c653a2063616c6c6572206973206e6f7420746865206f776e6572604482015260640162000280565b6200063e600062000a62565b565b60005473ffffffffffffffffffffffffffffffffffffffff163314620006c3576040517f08c379a000000000000000000000000000000000000000000000000000000000815260206004820181905260248201527f4f776e61626c653a2063616c6c6572206973206e6f7420746865206f776e6572604482015260640162000280565b73ffffffffffffffffffffffffffffffffffffffff81161580159062000704575060035473ffffffffffffffffffffffffffffffffffffffff828116911614155b62000791576040517f08c379a0000000000000000000000000000000000000000000000000000000008152602060048201526024808201527f45786368616e6765466163746f72793a20494e56416c49445f4645455f41444460448201527f5245535300000000000000000000000000000000000000000000000000000000606482015260840162000280565b600380547fffffffffffffffffffffffff00000000000000000000000000000000000000001673ffffffffffffffffffffffffffffffffffffffff83169081179091556040517ffcb8a963756b148f85a52537b63147b6c4b40af694099c901ac3b99d317a2db890600090a250565b60005473ffffffffffffffffffffffffffffffffffffffff16331462000883576040517f08c379a000000000000000000000000000000000000000000000000000000000815260206004820181905260248201527f4f776e61626c653a2063616c6c6572206973206e6f7420746865206f776e6572604482015260640162000280565b73ffffffffffffffffffffffffffffffffffffffff811662000928576040517f08c379a000000000000000000000000000000000000000000000000000000000815260206004820152602660248201527f4f776e61626c653a206e6577206f776e657220697320746865207a65726f206160448201527f6464726573730000000000000000000000000000000000000000000000000000606482015260840162000280565b620009338162000a62565b50565b60408051600481526024810182526020810180517bffffffffffffffffffffffffffffffffffffffffffffffffffffffff167f95d89b41000000000000000000000000000000000000000000000000000000001790529051606091600091829173ffffffffffffffffffffffffffffffffffffffff861691620009ba919062000c89565b600060405180830381855afa9150503d8060008114620009f7576040519150601f19603f3d011682016040523d82523d6000602084013e620009fc565b606091505b5091509150811562000a26578080602001905181019062000a1e919062000b6a565b949350505050565b505060408051808201909152600381527f544b4e0000000000000000000000000000000000000000000000000000000000602082015292915050565b6000805473ffffffffffffffffffffffffffffffffffffffff8381167fffffffffffffffffffffffff0000000000000000000000000000000000000000831681178455604051919092169283917f8be0079c531659141344cd1fd0a4f28419497f9722a3daafe3b4186f6b6457e09190a35050565b6130058062000e7783390190565b803573ffffffffffffffffffffffffffffffffffffffff8116811462000b0a57600080fd5b919050565b60006020828403121562000b21578081fd5b62000b2c8262000ae5565b9392505050565b6000806040838503121562000b46578081fd5b62000b518362000ae5565b915062000b616020840162000ae5565b90509250929050565b60006020828403121562000b7c578081fd5b815167ffffffffffffffff8082111562000b94578283fd5b818401915084601f83011262000ba8578283fd5b81518181111562000bbd5762000bbd62000e47565b604051601f82017fffffffffffffffffffffffffffffffffffffffffffffffffffffffffffffffe0908116603f0116810190838211818310171562000c065762000c0662000e47565b8160405282815287602084870101111562000c1f578586fd5b62000c3283602083016020880162000e14565b979650505050505050565b6000815180845262000c5781602086016020860162000e14565b601f017fffffffffffffffffffffffffffffffffffffffffffffffffffffffffffffffe0169290920160200192915050565b6000825162000c9d81846020870162000e14565b9190910192915050565b6000835162000cbb81846020880162000e14565b7f7600000000000000000000000000000000000000000000000000000000000000908301908152835162000cf781600184016020880162000e14565b7f20456c617374696353776170204c697175696469747920546f6b656e0000000060019290910191820152601d01949350505050565b6000835162000d4181846020880162000e14565b7f7600000000000000000000000000000000000000000000000000000000000000908301908152835162000d7d81600184016020880162000e14565b7f2d454c500000000000000000000000000000000000000000000000000000000060019290910191820152600501949350505050565b60a08152600062000dc860a083018862000c3d565b828103602084015262000ddc818862000c3d565b73ffffffffffffffffffffffffffffffffffffffff968716604085015294861660608401525050921660809092019190915292915050565b60005b8381101562000e3157818101518382015260200162000e17565b8381111562000e41576000848401525b50505050565b7f4e487b7100000000000000000000000000000000000000000000000000000000600052604160045260246000fdfe60e06040523480156200001157600080fd5b50604051620030053803806200300583398101604081905262000034916200020c565b8451859085906200004d90600390602085019062000096565b5080516200006390600490602084019062000096565b50506001600555506001600160601b0319606093841b811660805291831b821660a05290911b1660c05250620002fe9050565b828054620000a490620002ab565b90600052602060002090601f016020900481019282620000c8576000855562000113565b82601f10620000e357805160ff191683800117855562000113565b8280016001018555821562000113579182015b8281111562000113578251825591602001919060010190620000f6565b506200012192915062000125565b5090565b5b8082111562000121576000815560010162000126565b80516001600160a01b03811681146200015457600080fd5b919050565b600082601f8301126200016a578081fd5b81516001600160401b0380821115620001875762000187620002e8565b604051601f8301601f19908116603f01168101908282118183101715620001b257620001b2620002e8565b81604052838152602092508683858801011115620001ce578485fd5b8491505b83821015620001f15785820183015181830184015290820190620001d2565b838211156200020257848385830101525b9695505050505050565b600080600080600060a0868803121562000224578081fd5b85516001600160401b03808211156200023b578283fd5b6200024989838a0162000159565b965060208801519150808211156200025f578283fd5b506200026e8882890162000159565b9450506200027f604087016200013c565b92506200028f606087016200013c565b91506200029f608087016200013c565b90509295509295909350565b600181811c90821680620002c057607f821691505b60208210811415620002e257634e487b7160e01b600052602260045260246000fd5b50919050565b634e487b7160e01b600052604160045260246000fd5b60805160601c60a05160601c60c05160601c612c65620003a06000396000818161039701528181610f8b01526119dc0152600081816101d40152818161070c01528181610bc1015281816112b6015281816116950152611ae3015260008181610317015281816106ca01528181610a8901528181610c0301528181610e3e0152818161111001528181611170015281816115bd0152611aa20152612c656000f3fe608060405234801561001057600080fd5b50600436106101775760003560e01c806395d89b41116100d8578063c55dae631161008c578063eb443eb011610066578063eb443eb014610392578063eba25b15146103b9578063ed856cdc146103c157600080fd5b8063c55dae6314610312578063dd62ed3e14610339578063ded998b91461037f57600080fd5b8063a9059cbb116100bd578063a9059cbb146102e3578063ba9a7a56146102f6578063be7305a1146102ff57600080fd5b806395d89b41146102c8578063a457c2d7146102d057600080fd5b80632cd611bc1161012f578063395093511161011457806339509351146102525780634d67a0a31461026557806370a082311461029257600080fd5b80632cd611bc1461022e578063313ce5671461024357600080fd5b806318160ddd1161016057806318160ddd146101bd578063217a4b70146101cf57806323b872dd1461021b57600080fd5b806306fdde031461017c578063095ea7b31461019a575b600080fd5b6101846103d4565b6040516101919190612a65565b60405180910390f35b6101ad6101a8366004612895565b610466565b6040519015158152602001610191565b6002545b604051908152602001610191565b6101f67f000000000000000000000000000000000000000000000000000000000000000081565b60405173ffffffffffffffffffffffffffffffffffffffff9091168152602001610191565b6101ad610229366004612855565b61047e565b61024161023c366004612982565b6104a4565b005b60405160128152602001610191565b6101ad610260366004612895565b61078d565b60065460075460085461027792919083565b60408051938452602084019290925290820152606001610191565b6101c16102a03660046127e5565b73ffffffffffffffffffffffffffffffffffffffff1660009081526020819052604090205490565b6101846107d9565b6101ad6102de366004612895565b6107e8565b6101ad6102f1366004612895565b6108c4565b6101c16103e881565b61024161030d366004612982565b6108d2565b6101f67f000000000000000000000000000000000000000000000000000000000000000081565b6101c161034736600461281d565b73ffffffffffffffffffffffffffffffffffffffff918216600090815260016020908152604080832093909416825291909152205490565b61024161038d3660046129f5565b610c74565b6101f67f000000000000000000000000000000000000000000000000000000000000000081565b6101c1601e81565b6102416103cf3660046129ad565b611331565b6060600380546103e390612b87565b80601f016020809104026020016040519081016040528092919081815260200182805461040f90612b87565b801561045c5780601f106104315761010080835404028352916020019161045c565b820191906000526020600020905b81548152906001019060200180831161043f57829003601f168201915b5050505050905090565b600033610474818585611b58565b5060019392505050565b60003361048c858285611d0b565b610497858585611de2565b60019150505b9392505050565b60026005541415610516576040517f08c379a000000000000000000000000000000000000000000000000000000000815260206004820152601f60248201527f5265656e7472616e637947756172643a207265656e7472616e742063616c6c0060448201526064015b60405180910390fd5b60026005558042811015610586576040517f08c379a000000000000000000000000000000000000000000000000000000000815260206004820152601160248201527f45786368616e67653a2045585049524544000000000000000000000000000000604482015260640161050d565b831580159061059457508215155b6105fa576040517f08c379a000000000000000000000000000000000000000000000000000000000815260206004820181905260248201527f45786368616e67653a20494e53554646494349454e545f544f4b454e5f515459604482015260640161050d565b6040517faf22e8640000000000000000000000000000000000000000000000000000000081526004810185905260248101849052601e60448201526006606482015260009073__$cf974219011b932c9a1a5e2f820d02d001$__9063af22e8649060840160206040518083038186803b15801561067657600080fd5b505af415801561068a573d6000803e3d6000fd5b505050506040513d601f19601f820116820180604052508101906106ae919061296a565b90506106f273ffffffffffffffffffffffffffffffffffffffff7f000000000000000000000000000000000000000000000000000000000000000016333088612095565b61073373ffffffffffffffffffffffffffffffffffffffff7f0000000000000000000000000000000000000000000000000000000000000000163383612171565b60408051868152600060208201819052918101919091526060810182905233907f49926bbebe8474393f434dfa4f78694c0923efa07d19f2284518bfabd06eb737906080015b60405180910390a250506001600555505050565b33600081815260016020908152604080832073ffffffffffffffffffffffffffffffffffffffff8716845290915281205490919061047490829086906107d4908790612ab6565b611b58565b6060600480546103e390612b87565b33600081815260016020908152604080832073ffffffffffffffffffffffffffffffffffffffff87168452909152812054909190838110156108ac576040517f08c379a000000000000000000000000000000000000000000000000000000000815260206004820152602560248201527f45524332303a2064656372656173656420616c6c6f77616e63652062656c6f7760448201527f207a65726f000000000000000000000000000000000000000000000000000000606482015260840161050d565b6108b98286868403611b58565b506001949350505050565b600033610474818585611de2565b6002600554141561093f576040517f08c379a000000000000000000000000000000000000000000000000000000000815260206004820152601f60248201527f5265656e7472616e637947756172643a207265656e7472616e742063616c6c00604482015260640161050d565b600260055580428110156109af576040517f08c379a000000000000000000000000000000000000000000000000000000000815260206004820152601160248201527f45786368616e67653a2045585049524544000000000000000000000000000000604482015260640161050d565b83158015906109bd57508215155b610a23576040517f08c379a000000000000000000000000000000000000000000000000000000000815260206004820181905260248201527f45786368616e67653a20494e53554646494349454e545f544f4b454e5f515459604482015260640161050d565b6040517f70a0823100000000000000000000000000000000000000000000000000000000815230600482015260009073__$cf974219011b932c9a1a5e2f820d02d001$__9063c131f417908790879073ffffffffffffffffffffffffffffffffffffffff7f000000000000000000000000000000000000000000000000000000000000000016906370a082319060240160206040518083038186803b158015610acb57600080fd5b505afa158015610adf573d6000803e3d6000fd5b505050506040513d601f19601f82011682018060405250810190610b03919061296a565b6040517fffffffff0000000000000000000000000000000000000000000000000000000060e086901b168152600481019390935260248301919091526044820152601e60648201526006608482015260a40160206040518083038186803b158015610b6d57600080fd5b505af4158015610b81573d6000803e3d6000fd5b505050506040513d601f19601f82011682018060405250810190610ba5919061296a565b9050610be973ffffffffffffffffffffffffffffffffffffffff7f000000000000000000000000000000000000000000000000000000000000000016333088612095565b610c2a73ffffffffffffffffffffffffffffffffffffffff7f0000000000000000000000000000000000000000000000000000000000000000163383612171565b60408051600080825260208201889052918101839052606081019190915233907f49926bbebe8474393f434dfa4f78694c0923efa07d19f2284518bfabd06eb73790608001610779565b60026005541415610ce1576040517f08c379a000000000000000000000000000000000000000000000000000000000815260206004820152601f60248201527f5265656e7472616e637947756172643a207265656e7472616e742063616c6c00604482015260640161050d565b60026005558042811015610d51576040517f08c379a000000000000000000000000000000000000000000000000000000000815260206004820152601160248201527f45786368616e67653a2045585049524544000000000000000000000000000000604482015260640161050d565b60003073ffffffffffffffffffffffffffffffffffffffff166318160ddd6040518163ffffffff1660e01b815260040160206040518083038186803b158015610d9957600080fd5b505afa158015610dad573d6000803e3d6000fd5b505050506040513d601f19601f82011682018060405250810190610dd1919061296a565b6040517f70a0823100000000000000000000000000000000000000000000000000000000815230600482015290915060009073__$cf974219011b932c9a1a5e2f820d02d001$__9063faf5c6ed908b908b908b908b9073ffffffffffffffffffffffffffffffffffffffff7f000000000000000000000000000000000000000000000000000000000000000016906370a082319060240160206040518083038186803b158015610e8057600080fd5b505afa158015610e94573d6000803e3d6000fd5b505050506040513d601f19601f82011682018060405250810190610eb8919061296a565b6040517fffffffff0000000000000000000000000000000000000000000000000000000060e088901b1681526004810195909552602485019390935260448401919091526064830152608482015260a48101859052600660c482015260e40160806040518083038186803b158015610f2f57600080fd5b505af4158015610f43573d6000803e3d6000fd5b505050506040513d601f19601f82011682018060405250810190610f6791906128e0565b600754600654919250610f7991612b07565b600855606081015115611031576110317f000000000000000000000000000000000000000000000000000000000000000073ffffffffffffffffffffffffffffffffffffffff1663412753586040518163ffffffff1660e01b815260040160206040518083038186803b158015610fef57600080fd5b505afa158015611003573d6000803e3d6000fd5b505050506040513d601f19601f820116820180604052508101906110279190612801565b82606001516121cc565b811580156110de576103e88260400151116110a8576040517f08c379a000000000000000000000000000000000000000000000000000000000815260206004820152601d60248201527f45786368616e67653a20494e495449414c5f4445504f5349545f4d494e000000604482015260640161050d565b6040820180517ffffffffffffffffffffffffffffffffffffffffffffffffffffffffffffffc180190526110de306103e86121cc565b6110ec8683604001516121cc565b81511561128c57815161113a9073ffffffffffffffffffffffffffffffffffffffff7f0000000000000000000000000000000000000000000000000000000000000000169033903090612095565b801561128c5781516040517f70a082310000000000000000000000000000000000000000000000000000000081523060048201527f000000000000000000000000000000000000000000000000000000000000000073ffffffffffffffffffffffffffffffffffffffff16906370a082319060240160206040518083038186803b1580156111c757600080fd5b505afa1580156111db573d6000803e3d6000fd5b505050506040513d601f19601f820116820180604052508101906111ff919061296a565b1461128c576040517f08c379a000000000000000000000000000000000000000000000000000000000815260206004820152602760248201527f45786368616e67653a204645455f4f4e5f5452414e534645525f4e4f545f535560448201527f50504f5254454400000000000000000000000000000000000000000000000000606482015260840161050d565b6020820151156112e05760208201516112e09073ffffffffffffffffffffffffffffffffffffffff7f0000000000000000000000000000000000000000000000000000000000000000169033903090612095565b8151602080840151604080519384529183015233917f06239653922ac7bea6aa2b19dc486b9361821d37712eb796adfd38d81de278ca910160405180910390a2505060016005555050505050505050565b6002600554141561139e576040517f08c379a000000000000000000000000000000000000000000000000000000000815260206004820152601f60248201527f5265656e7472616e637947756172643a207265656e7472616e742063616c6c00604482015260640161050d565b6002600555804281101561140e576040517f08c379a000000000000000000000000000000000000000000000000000000000815260206004820152601160248201527f45786368616e67653a2045585049524544000000000000000000000000000000604482015260640161050d565b3073ffffffffffffffffffffffffffffffffffffffff166318160ddd6040518163ffffffff1660e01b815260040160206040518083038186803b15801561145457600080fd5b505afa158015611468573d6000803e3d6000fd5b505050506040513d601f19601f8201168201806040525081019061148c919061296a565b6114f2576040517f08c379a000000000000000000000000000000000000000000000000000000000815260206004820181905260248201527f45786368616e67653a20494e53554646494349454e545f4c4951554944495459604482015260640161050d565b841580159061150057508315155b61158c576040517f08c379a000000000000000000000000000000000000000000000000000000000815260206004820152602860248201527f45786368616e67653a204d494e535f4d5553545f42455f475245415445525f5460448201527f48414e5f5a45524f000000000000000000000000000000000000000000000000606482015260840161050d565b6040517f70a082310000000000000000000000000000000000000000000000000000000081523060048201526000907f000000000000000000000000000000000000000000000000000000000000000073ffffffffffffffffffffffffffffffffffffffff16906370a082319060240160206040518083038186803b15801561161457600080fd5b505afa158015611628573d6000803e3d6000fd5b505050506040513d601f19601f8201168201806040525081019061164c919061296a565b6040517f70a0823100000000000000000000000000000000000000000000000000000000815230600482015290915060009073ffffffffffffffffffffffffffffffffffffffff7f000000000000000000000000000000000000000000000000000000000000000016906370a082319060240160206040518083038186803b1580156116d757600080fd5b505afa1580156116eb573d6000803e3d6000fd5b505050506040513d601f19601f8201168201806040525081019061170f919061296a565b905060003073ffffffffffffffffffffffffffffffffffffffff166318160ddd6040518163ffffffff1660e01b815260040160206040518083038186803b15801561175957600080fd5b505afa15801561176d573d6000803e3d6000fd5b505050506040513d601f19601f82011682018060405250810190611791919061296a565b6040517f6cb4024b0000000000000000000000000000000000000000000000000000000081526004810182905260065460248201526007546044820152600854606482015290915060009073__$cf974219011b932c9a1a5e2f820d02d001$__90636cb4024b9060840160206040518083038186803b15801561181357600080fd5b505af4158015611827573d6000803e3d6000fd5b505050506040513d601f19601f8201168201806040525081019061184b919061296a565b90506118578183612ab6565b9150600082611866868d612b07565b6118709190612ace565b905060008361187f868e612b07565b6118899190612ace565b90508a8210156118f5576040517f08c379a000000000000000000000000000000000000000000000000000000000815260206004820152601f60248201527f45786368616e67653a20494e53554646494349454e545f424153455f51545900604482015260640161050d565b8981101561195f576040517f08c379a000000000000000000000000000000000000000000000000000000000815260206004820181905260248201527f45786368616e67653a20494e53554646494349454e545f51554f54455f515459604482015260640161050d565b60006006600001549050600085828f6119789190612b07565b6119829190612ace565b905061198e8183612b44565b6006819055600754909250808411156119ae5750600060078190556119c0565b6119b88482612b44565b600781905590505b6119ca8184612b07565b600855505083159050611a7e57611a7e7f000000000000000000000000000000000000000000000000000000000000000073ffffffffffffffffffffffffffffffffffffffff1663412753586040518163ffffffff1660e01b815260040160206040518083038186803b158015611a4057600080fd5b505afa158015611a54573d6000803e3d6000fd5b505050506040513d601f19601f82011682018060405250810190611a789190612801565b846121cc565b611a88338d6122ec565b611ac973ffffffffffffffffffffffffffffffffffffffff7f0000000000000000000000000000000000000000000000000000000000000000168a84612171565b611b0a73ffffffffffffffffffffffffffffffffffffffff7f0000000000000000000000000000000000000000000000000000000000000000168a83612171565b604080518381526020810183905233917f0fbf06c058b90cb038a618f8c2acbf6145f8b3570fd1fa56abb8f0f3f05b36e8910160405180910390a25050600160055550505050505050505050565b73ffffffffffffffffffffffffffffffffffffffff8316611bfa576040517f08c379a0000000000000000000000000000000000000000000000000000000008152602060048201526024808201527f45524332303a20617070726f76652066726f6d20746865207a65726f2061646460448201527f7265737300000000000000000000000000000000000000000000000000000000606482015260840161050d565b73ffffffffffffffffffffffffffffffffffffffff8216611c9d576040517f08c379a000000000000000000000000000000000000000000000000000000000815260206004820152602260248201527f45524332303a20617070726f766520746f20746865207a65726f20616464726560448201527f7373000000000000000000000000000000000000000000000000000000000000606482015260840161050d565b73ffffffffffffffffffffffffffffffffffffffff83811660008181526001602090815260408083209487168084529482529182902085905590518481527f8c5be1e5ebec7d5bd14f71427d1e84f3dd0314c0f7b2291e5b200ac8c7c3b925910160405180910390a3505050565b73ffffffffffffffffffffffffffffffffffffffff8381166000908152600160209081526040808320938616835292905220547fffffffffffffffffffffffffffffffffffffffffffffffffffffffffffffffff8114611ddc5781811015611dcf576040517f08c379a000000000000000000000000000000000000000000000000000000000815260206004820152601d60248201527f45524332303a20696e73756666696369656e7420616c6c6f77616e6365000000604482015260640161050d565b611ddc8484848403611b58565b50505050565b73ffffffffffffffffffffffffffffffffffffffff8316611e85576040517f08c379a000000000000000000000000000000000000000000000000000000000815260206004820152602560248201527f45524332303a207472616e736665722066726f6d20746865207a65726f20616460448201527f6472657373000000000000000000000000000000000000000000000000000000606482015260840161050d565b73ffffffffffffffffffffffffffffffffffffffff8216611f28576040517f08c379a000000000000000000000000000000000000000000000000000000000815260206004820152602360248201527f45524332303a207472616e7366657220746f20746865207a65726f206164647260448201527f6573730000000000000000000000000000000000000000000000000000000000606482015260840161050d565b73ffffffffffffffffffffffffffffffffffffffff831660009081526020819052604090205481811015611fde576040517f08c379a000000000000000000000000000000000000000000000000000000000815260206004820152602660248201527f45524332303a207472616e7366657220616d6f756e742065786365656473206260448201527f616c616e63650000000000000000000000000000000000000000000000000000606482015260840161050d565b73ffffffffffffffffffffffffffffffffffffffff808516600090815260208190526040808220858503905591851681529081208054849290612022908490612ab6565b925050819055508273ffffffffffffffffffffffffffffffffffffffff168473ffffffffffffffffffffffffffffffffffffffff167fddf252ad1be2c89b69c2b068fc378daa952ba7f163c4a11628f55a4df523b3ef8460405161208891815260200190565b60405180910390a3611ddc565b60405173ffffffffffffffffffffffffffffffffffffffff80851660248301528316604482015260648101829052611ddc9085907f23b872dd00000000000000000000000000000000000000000000000000000000906084015b604080517fffffffffffffffffffffffffffffffffffffffffffffffffffffffffffffffe08184030181529190526020810180517bffffffffffffffffffffffffffffffffffffffffffffffffffffffff167fffffffff00000000000000000000000000000000000000000000000000000000909316929092179091526124d9565b60405173ffffffffffffffffffffffffffffffffffffffff83166024820152604481018290526121c79084907fa9059cbb00000000000000000000000000000000000000000000000000000000906064016120ef565b505050565b73ffffffffffffffffffffffffffffffffffffffff8216612249576040517f08c379a000000000000000000000000000000000000000000000000000000000815260206004820152601f60248201527f45524332303a206d696e7420746f20746865207a65726f206164647265737300604482015260640161050d565b806002600082825461225b9190612ab6565b909155505073ffffffffffffffffffffffffffffffffffffffff821660009081526020819052604081208054839290612295908490612ab6565b909155505060405181815273ffffffffffffffffffffffffffffffffffffffff8316906000907fddf252ad1be2c89b69c2b068fc378daa952ba7f163c4a11628f55a4df523b3ef9060200160405180910390a35050565b73ffffffffffffffffffffffffffffffffffffffff821661238f576040517f08c379a000000000000000000000000000000000000000000000000000000000815260206004820152602160248201527f45524332303a206275726e2066726f6d20746865207a65726f2061646472657360448201527f7300000000000000000000000000000000000000000000000000000000000000606482015260840161050d565b73ffffffffffffffffffffffffffffffffffffffff821660009081526020819052604090205481811015612445576040517f08c379a000000000000000000000000000000000000000000000000000000000815260206004820152602260248201527f45524332303a206275726e20616d6f756e7420657863656564732062616c616e60448201527f6365000000000000000000000000000000000000000000000000000000000000606482015260840161050d565b73ffffffffffffffffffffffffffffffffffffffff83166000908152602081905260408120838303905560028054849290612481908490612b44565b909155505060405182815260009073ffffffffffffffffffffffffffffffffffffffff8516907fddf252ad1be2c89b69c2b068fc378daa952ba7f163c4a11628f55a4df523b3ef9060200160405180910390a3505050565b600061253b826040518060400160405280602081526020017f5361666545524332303a206c6f772d6c6576656c2063616c6c206661696c65648152508573ffffffffffffffffffffffffffffffffffffffff166125e59092919063ffffffff16565b8051909150156121c7578080602001905181019061255991906128c0565b6121c7576040517f08c379a000000000000000000000000000000000000000000000000000000000815260206004820152602a60248201527f5361666545524332303a204552433230206f7065726174696f6e20646964206e60448201527f6f74207375636365656400000000000000000000000000000000000000000000606482015260840161050d565b60606125f484846000856125fc565b949350505050565b60608247101561268e576040517f08c379a000000000000000000000000000000000000000000000000000000000815260206004820152602660248201527f416464726573733a20696e73756666696369656e742062616c616e636520666f60448201527f722063616c6c0000000000000000000000000000000000000000000000000000606482015260840161050d565b73ffffffffffffffffffffffffffffffffffffffff85163b61270c576040517f08c379a000000000000000000000000000000000000000000000000000000000815260206004820152601d60248201527f416464726573733a2063616c6c20746f206e6f6e2d636f6e7472616374000000604482015260640161050d565b6000808673ffffffffffffffffffffffffffffffffffffffff1685876040516127359190612a49565b60006040518083038185875af1925050503d8060008114612772576040519150601f19603f3d011682016040523d82523d6000602084013e612777565b606091505b5091509150612787828286612792565b979650505050505050565b606083156127a157508161049d565b8251156127b15782518084602001fd5b816040517f08c379a000000000000000000000000000000000000000000000000000000000815260040161050d9190612a65565b6000602082840312156127f6578081fd5b813561049d81612c0a565b600060208284031215612812578081fd5b815161049d81612c0a565b6000806040838503121561282f578081fd5b823561283a81612c0a565b9150602083013561284a81612c0a565b809150509250929050565b600080600060608486031215612869578081fd5b833561287481612c0a565b9250602084013561288481612c0a565b929592945050506040919091013590565b600080604083850312156128a7578182fd5b82356128b281612c0a565b946020939093013593505050565b6000602082840312156128d1578081fd5b8151801515811461049d578182fd5b6000608082840312156128f1578081fd5b6040516080810181811067ffffffffffffffff82111715612939577f4e487b710000000000000000000000000000000000000000000000000000000083526041600452602483fd5b8060405250825181526020830151602082015260408301516040820152606083015160608201528091505092915050565b60006020828403121561297b578081fd5b5051919050565b600080600060608486031215612996578283fd5b505081359360208301359350604090920135919050565b600080600080600060a086880312156129c4578081fd5b85359450602086013593506040860135925060608601356129e481612c0a565b949793965091946080013592915050565b60008060008060008060c08789031215612a0d578081fd5b863595506020870135945060408701359350606087013592506080870135612a3481612c0a565b8092505060a087013590509295509295509295565b60008251612a5b818460208701612b5b565b9190910192915050565b6020815260008251806020840152612a84816040850160208701612b5b565b601f017fffffffffffffffffffffffffffffffffffffffffffffffffffffffffffffffe0169190910160400192915050565b60008219821115612ac957612ac9612bdb565b500190565b600082612b02577f4e487b710000000000000000000000000000000000000000000000000000000081526012600452602481fd5b500490565b6000817fffffffffffffffffffffffffffffffffffffffffffffffffffffffffffffffff0483118215151615612b3f57612b3f612bdb565b500290565b600082821015612b5657612b56612bdb565b500390565b60005b83811015612b76578181015183820152602001612b5e565b83811115611ddc5750506000910152565b600181811c90821680612b9b57607f821691505b60208210811415612bd5577f4e487b7100000000000000000000000000000000000000000000000000000000600052602260045260246000fd5b50919050565b7f4e487b7100000000000000000000000000000000000000000000000000000000600052601160045260246000fd5b73ffffffffffffffffffffffffffffffffffffffff81168114612c2c57600080fd5b5056fea26469706673582212202cee432b3d6470f51f6162140d0b842f039857a42bb1a8fb67b17ac0e60ff6d164736f6c63430008040033a2646970667358221220f36af3c1a0f6d8dee6473ede8d05c35b0fbf10b4820defa2675af971d396204564736f6c63430008040033",
  "linkReferences": {
    "src/libraries/MathLib.sol": {
      "MathLib": [
        {
          "length": 20,
          "start": 6556
        },
        {
          "length": 20,
          "start": 7599
        },
        {
          "length": 20,
          "start": 8544
        },
        {
          "length": 20,
          "start": 11065
        }
      ]
    }
  },
  "deployedLinkReferences": {
    "src/libraries/MathLib.sol": {
      "MathLib": [
        {
          "length": 20,
          "start": 6232
        },
        {
          "length": 20,
          "start": 7275
        },
        {
          "length": 20,
          "start": 8220
        },
        {
          "length": 20,
          "start": 10741
        }
      ]
    }
  }
}