{
  "_format": "hh-sol-artifact-1",
  "contractName": "Exchange",
  "sourceName": "src/contracts/Exchange.sol",
  "abi": [
    {
      "inputs": [
        {
          "internalType": "string",
          "name": "_name",
          "type": "string"
        },
        {
          "internalType": "string",
          "name": "_symbol",
          "type": "string"
        },
        {
          "internalType": "address",
          "name": "_baseToken",
          "type": "address"
        },
        {
          "internalType": "address",
          "name": "_quoteToken",
          "type": "address"
        },
        {
          "internalType": "address",
          "name": "_exchangeFactoryAddress",
          "type": "address"
        }
      ],
      "stateMutability": "nonpayable",
      "type": "constructor"
    },
    {
      "anonymous": false,
      "inputs": [
        {
          "indexed": true,
          "internalType": "address",
          "name": "liquidityProvider",
          "type": "address"
        },
        {
          "indexed": false,
          "internalType": "uint256",
          "name": "baseTokenQtyAdded",
          "type": "uint256"
        },
        {
          "indexed": false,
          "internalType": "uint256",
          "name": "quoteTokenQtyAdded",
          "type": "uint256"
        }
      ],
      "name": "AddLiquidity",
      "type": "event"
    },
    {
      "anonymous": false,
      "inputs": [
        {
          "indexed": true,
          "internalType": "address",
          "name": "owner",
          "type": "address"
        },
        {
          "indexed": true,
          "internalType": "address",
          "name": "spender",
          "type": "address"
        },
        {
          "indexed": false,
          "internalType": "uint256",
          "name": "value",
          "type": "uint256"
        }
      ],
      "name": "Approval",
      "type": "event"
    },
    {
      "anonymous": false,
      "inputs": [
        {
          "indexed": true,
          "internalType": "address",
          "name": "liquidityProvider",
          "type": "address"
        },
        {
          "indexed": false,
          "internalType": "uint256",
          "name": "baseTokenQtyRemoved",
          "type": "uint256"
        },
        {
          "indexed": false,
          "internalType": "uint256",
          "name": "quoteTokenQtyRemoved",
          "type": "uint256"
        }
      ],
      "name": "RemoveLiquidity",
      "type": "event"
    },
    {
      "anonymous": false,
      "inputs": [
        {
          "indexed": true,
          "internalType": "address",
          "name": "sender",
          "type": "address"
        },
        {
          "indexed": false,
          "internalType": "uint256",
          "name": "baseTokenQtyIn",
          "type": "uint256"
        },
        {
          "indexed": false,
          "internalType": "uint256",
          "name": "quoteTokenQtyIn",
          "type": "uint256"
        },
        {
          "indexed": false,
          "internalType": "uint256",
          "name": "baseTokenQtyOut",
          "type": "uint256"
        },
        {
          "indexed": false,
          "internalType": "uint256",
          "name": "quoteTokenQtyOut",
          "type": "uint256"
        }
      ],
      "name": "Swap",
      "type": "event"
    },
    {
      "anonymous": false,
      "inputs": [
        {
          "indexed": true,
          "internalType": "address",
          "name": "from",
          "type": "address"
        },
        {
          "indexed": true,
          "internalType": "address",
          "name": "to",
          "type": "address"
        },
        {
          "indexed": false,
          "internalType": "uint256",
          "name": "value",
          "type": "uint256"
        }
      ],
      "name": "Transfer",
      "type": "event"
    },
    {
      "inputs": [],
      "name": "TOTAL_LIQUIDITY_FEE",
      "outputs": [
        {
          "internalType": "uint16",
          "name": "",
          "type": "uint16"
        }
      ],
      "stateMutability": "view",
      "type": "function"
    },
    {
      "inputs": [
        {
          "internalType": "uint256",
          "name": "_baseTokenQtyDesired",
          "type": "uint256"
        },
        {
          "internalType": "uint256",
          "name": "_quoteTokenQtyDesired",
          "type": "uint256"
        },
        {
          "internalType": "uint256",
          "name": "_baseTokenQtyMin",
          "type": "uint256"
        },
        {
          "internalType": "uint256",
          "name": "_quoteTokenQtyMin",
          "type": "uint256"
        },
        {
          "internalType": "address",
          "name": "_liquidityTokenRecipient",
          "type": "address"
        },
        {
          "internalType": "uint256",
          "name": "_expirationTimestamp",
          "type": "uint256"
        }
      ],
      "name": "addLiquidity",
      "outputs": [],
      "stateMutability": "nonpayable",
      "type": "function"
    },
    {
      "inputs": [
        {
          "internalType": "address",
          "name": "owner",
          "type": "address"
        },
        {
          "internalType": "address",
          "name": "spender",
          "type": "address"
        }
      ],
      "name": "allowance",
      "outputs": [
        {
          "internalType": "uint256",
          "name": "",
          "type": "uint256"
        }
      ],
      "stateMutability": "view",
      "type": "function"
    },
    {
      "inputs": [
        {
          "internalType": "address",
          "name": "spender",
          "type": "address"
        },
        {
          "internalType": "uint256",
          "name": "amount",
          "type": "uint256"
        }
      ],
      "name": "approve",
      "outputs": [
        {
          "internalType": "bool",
          "name": "",
          "type": "bool"
        }
      ],
      "stateMutability": "nonpayable",
      "type": "function"
    },
    {
      "inputs": [
        {
          "internalType": "address",
          "name": "account",
          "type": "address"
        }
      ],
      "name": "balanceOf",
      "outputs": [
        {
          "internalType": "uint256",
          "name": "",
          "type": "uint256"
        }
      ],
      "stateMutability": "view",
      "type": "function"
    },
    {
      "inputs": [],
      "name": "baseToken",
      "outputs": [
        {
          "internalType": "address",
          "name": "",
          "type": "address"
        }
      ],
      "stateMutability": "view",
      "type": "function"
    },
    {
      "inputs": [],
      "name": "decimals",
      "outputs": [
        {
          "internalType": "uint8",
          "name": "",
          "type": "uint8"
        }
      ],
      "stateMutability": "view",
      "type": "function"
    },
    {
      "inputs": [
        {
          "internalType": "address",
          "name": "spender",
          "type": "address"
        },
        {
          "internalType": "uint256",
          "name": "subtractedValue",
          "type": "uint256"
        }
      ],
      "name": "decreaseAllowance",
      "outputs": [
        {
          "internalType": "bool",
          "name": "",
          "type": "bool"
        }
      ],
      "stateMutability": "nonpayable",
      "type": "function"
    },
    {
      "inputs": [],
      "name": "exchangeFactoryAddress",
      "outputs": [
        {
          "internalType": "address",
          "name": "",
          "type": "address"
        }
      ],
      "stateMutability": "view",
      "type": "function"
    },
    {
      "inputs": [
        {
          "internalType": "address",
          "name": "spender",
          "type": "address"
        },
        {
          "internalType": "uint256",
          "name": "addedValue",
          "type": "uint256"
        }
      ],
      "name": "increaseAllowance",
      "outputs": [
        {
          "internalType": "bool",
          "name": "",
          "type": "bool"
        }
      ],
      "stateMutability": "nonpayable",
      "type": "function"
    },
    {
      "inputs": [],
      "name": "internalBalances",
      "outputs": [
        {
          "internalType": "uint256",
          "name": "baseTokenReserveQty",
          "type": "uint256"
        },
        {
          "internalType": "uint256",
          "name": "quoteTokenReserveQty",
          "type": "uint256"
        },
        {
          "internalType": "uint256",
          "name": "kLast",
          "type": "uint256"
        }
      ],
      "stateMutability": "view",
      "type": "function"
    },
    {
      "inputs": [],
      "name": "name",
      "outputs": [
        {
          "internalType": "string",
          "name": "",
          "type": "string"
        }
      ],
      "stateMutability": "view",
      "type": "function"
    },
    {
      "inputs": [],
      "name": "quoteToken",
      "outputs": [
        {
          "internalType": "address",
          "name": "",
          "type": "address"
        }
      ],
      "stateMutability": "view",
      "type": "function"
    },
    {
      "inputs": [
        {
          "internalType": "uint256",
          "name": "_liquidityTokenQty",
          "type": "uint256"
        },
        {
          "internalType": "uint256",
          "name": "_baseTokenQtyMin",
          "type": "uint256"
        },
        {
          "internalType": "uint256",
          "name": "_quoteTokenQtyMin",
          "type": "uint256"
        },
        {
          "internalType": "address",
          "name": "_tokenRecipient",
          "type": "address"
        },
        {
          "internalType": "uint256",
          "name": "_expirationTimestamp",
          "type": "uint256"
        }
      ],
      "name": "removeLiquidity",
      "outputs": [],
      "stateMutability": "nonpayable",
      "type": "function"
    },
    {
      "inputs": [
        {
          "internalType": "uint256",
          "name": "_baseTokenQty",
          "type": "uint256"
        },
        {
          "internalType": "uint256",
          "name": "_minQuoteTokenQty",
          "type": "uint256"
        },
        {
          "internalType": "uint256",
          "name": "_expirationTimestamp",
          "type": "uint256"
        }
      ],
      "name": "swapBaseTokenForQuoteToken",
      "outputs": [],
      "stateMutability": "nonpayable",
      "type": "function"
    },
    {
      "inputs": [
        {
          "internalType": "uint256",
          "name": "_quoteTokenQty",
          "type": "uint256"
        },
        {
          "internalType": "uint256",
          "name": "_minBaseTokenQty",
          "type": "uint256"
        },
        {
          "internalType": "uint256",
          "name": "_expirationTimestamp",
          "type": "uint256"
        }
      ],
      "name": "swapQuoteTokenForBaseToken",
      "outputs": [],
      "stateMutability": "nonpayable",
      "type": "function"
    },
    {
      "inputs": [],
      "name": "symbol",
      "outputs": [
        {
          "internalType": "string",
          "name": "",
          "type": "string"
        }
      ],
      "stateMutability": "view",
      "type": "function"
    },
    {
      "inputs": [],
      "name": "totalSupply",
      "outputs": [
        {
          "internalType": "uint256",
          "name": "",
          "type": "uint256"
        }
      ],
      "stateMutability": "view",
      "type": "function"
    },
    {
      "inputs": [
        {
          "internalType": "address",
          "name": "recipient",
          "type": "address"
        },
        {
          "internalType": "uint256",
          "name": "amount",
          "type": "uint256"
        }
      ],
      "name": "transfer",
      "outputs": [
        {
          "internalType": "bool",
          "name": "",
          "type": "bool"
        }
      ],
      "stateMutability": "nonpayable",
      "type": "function"
    },
    {
      "inputs": [
        {
          "internalType": "address",
          "name": "sender",
          "type": "address"
        },
        {
          "internalType": "address",
          "name": "recipient",
          "type": "address"
        },
        {
          "internalType": "uint256",
          "name": "amount",
          "type": "uint256"
        }
      ],
      "name": "transferFrom",
      "outputs": [
        {
          "internalType": "bool",
          "name": "",
          "type": "bool"
        }
      ],
      "stateMutability": "nonpayable",
      "type": "function"
    }
  ],
  "bytecode": "0x610140604052600060e0819052610100819052610120819052600681905560078190556008553480156200003257600080fd5b5060405162002fdb38038062002fdb83398101604081905262000055916200022d565b8451859085906200006e906003906020850190620000b7565b50805162000084906004906020840190620000b7565b50506001600555506001600160601b0319606093841b811660805291831b821660a05290911b1660c052506200031f9050565b828054620000c590620002cc565b90600052602060002090601f016020900481019282620000e9576000855562000134565b82601f106200010457805160ff191683800117855562000134565b8280016001018555821562000134579182015b828111156200013457825182559160200191906001019062000117565b506200014292915062000146565b5090565b5b8082111562000142576000815560010162000147565b80516001600160a01b03811681146200017557600080fd5b919050565b600082601f8301126200018b578081fd5b81516001600160401b0380821115620001a857620001a862000309565b604051601f8301601f19908116603f01168101908282118183101715620001d357620001d362000309565b81604052838152602092508683858801011115620001ef578485fd5b8491505b83821015620002125785820183015181830184015290820190620001f3565b838211156200022357848385830101525b9695505050505050565b600080600080600060a0868803121562000245578081fd5b85516001600160401b03808211156200025c578283fd5b6200026a89838a016200017a565b9650602088015191508082111562000280578283fd5b506200028f888289016200017a565b945050620002a0604087016200015d565b9250620002b0606087016200015d565b9150620002c0608087016200015d565b90509295509295909350565b600181811c90821680620002e157607f821691505b602082108114156200030357634e487b7160e01b600052602260045260246000fd5b50919050565b634e487b7160e01b600052604160045260246000fd5b60805160601c60a05160601c60c05160601c612c0c620003cf6000396000818161038301528181610fe201526119f40152600081816101c90152818161077201528181610bbb01528181610dfb01528181611326015281816116a50152611afb0152600081816103030152818161073001528181610a8301528181610bfd01528181610d53015281816110ce0152818161117e015281816111de015281816115cd0152611aba0152612c0c6000f3fe608060405234801561001057600080fd5b506004361061016c5760003560e01c806395d89b41116100cd578063dd62ed3e11610081578063eb443eb011610066578063eb443eb01461037e578063eba25b15146103a5578063ed856cdc146103c057600080fd5b8063dd62ed3e14610325578063ded998b91461036b57600080fd5b8063a9059cbb116100b2578063a9059cbb146102d8578063be7305a1146102eb578063c55dae63146102fe57600080fd5b806395d89b41146102bd578063a457c2d7146102c557600080fd5b80632cd611bc11610124578063395093511161010957806339509351146102475780634d67a0a31461025a57806370a082311461028757600080fd5b80632cd611bc14610223578063313ce5671461023857600080fd5b806318160ddd1161015557806318160ddd146101b2578063217a4b70146101c457806323b872dd1461021057600080fd5b806306fdde0314610171578063095ea7b31461018f575b600080fd5b6101796103d3565b6040516101869190612a0f565b60405180910390f35b6101a261019d36600461283f565b610465565b6040519015158152602001610186565b6002545b604051908152602001610186565b6101eb7f000000000000000000000000000000000000000000000000000000000000000081565b60405173ffffffffffffffffffffffffffffffffffffffff9091168152602001610186565b6101a261021e3660046127ff565b61047b565b61023661023136600461292c565b61056f565b005b60405160128152602001610186565b6101a261025536600461283f565b6107f2565b60065460075460085461026c92919083565b60408051938452602084019290925290820152606001610186565b6101b661029536600461278f565b73ffffffffffffffffffffffffffffffffffffffff1660009081526020819052604090205490565b610179610836565b6101a26102d336600461283f565b610845565b6101a26102e636600461283f565b61091f565b6102366102f936600461292c565b61092c565b6101eb7f000000000000000000000000000000000000000000000000000000000000000081565b6101b66103333660046127c7565b73ffffffffffffffffffffffffffffffffffffffff918216600090815260016020908152604080832093909416825291909152205490565b61023661037936600461299f565b610c6e565b6101eb7f000000000000000000000000000000000000000000000000000000000000000081565b6103ad601e81565b60405161ffff9091168152602001610186565b6102366103ce366004612957565b61139e565b6060600380546103e290612b31565b80601f016020809104026020016040519081016040528092919081815260200182805461040e90612b31565b801561045b5780601f106104305761010080835404028352916020019161045b565b820191906000526020600020905b81548152906001019060200180831161043e57829003601f168201915b5050505050905090565b6000610472338484611b70565b50600192915050565b6000610488848484611d24565b73ffffffffffffffffffffffffffffffffffffffff841660009081526001602090815260408083203384529091529020548281101561054e576040517f08c379a000000000000000000000000000000000000000000000000000000000815260206004820152602860248201527f45524332303a207472616e7366657220616d6f756e742065786365656473206160448201527f6c6c6f77616e636500000000000000000000000000000000000000000000000060648201526084015b60405180910390fd5b610562853361055d8685612aee565b611b70565b60019150505b9392505050565b600260055414156105dc576040517f08c379a000000000000000000000000000000000000000000000000000000000815260206004820152601f60248201527f5265656e7472616e637947756172643a207265656e7472616e742063616c6c006044820152606401610545565b60026005556105ea81611fe1565b6000831180156105fa5750600082115b610660576040517f08c379a000000000000000000000000000000000000000000000000000000000815260206004820181905260248201527f45786368616e67653a20494e53554646494349454e545f544f4b454e5f5154596044820152606401610545565b6040517faf22e8640000000000000000000000000000000000000000000000000000000081526004810184905260248101839052601e60448201526006606482015260009073__$cf974219011b932c9a1a5e2f820d02d001$__9063af22e8649060840160206040518083038186803b1580156106dc57600080fd5b505af41580156106f0573d6000803e3d6000fd5b505050506040513d601f19601f820116820180604052508101906107149190612914565b905061075873ffffffffffffffffffffffffffffffffffffffff7f00000000000000000000000000000000000000000000000000000000000000001633308761204e565b61079973ffffffffffffffffffffffffffffffffffffffff7f0000000000000000000000000000000000000000000000000000000000000000163383612130565b60408051858152600060208201819052918101919091526060810182905233907f49926bbebe8474393f434dfa4f78694c0923efa07d19f2284518bfabd06eb737906080015b60405180910390a2505060016005555050565b33600081815260016020908152604080832073ffffffffffffffffffffffffffffffffffffffff87168452909152812054909161047291859061055d908690612a60565b6060600480546103e290612b31565b33600090815260016020908152604080832073ffffffffffffffffffffffffffffffffffffffff8616845290915281205482811015610906576040517f08c379a000000000000000000000000000000000000000000000000000000000815260206004820152602560248201527f45524332303a2064656372656173656420616c6c6f77616e63652062656c6f7760448201527f207a65726f0000000000000000000000000000000000000000000000000000006064820152608401610545565b610915338561055d8685612aee565b5060019392505050565b6000610472338484611d24565b60026005541415610999576040517f08c379a000000000000000000000000000000000000000000000000000000000815260206004820152601f60248201527f5265656e7472616e637947756172643a207265656e7472616e742063616c6c006044820152606401610545565b60026005556109a781611fe1565b6000831180156109b75750600082115b610a1d576040517f08c379a000000000000000000000000000000000000000000000000000000000815260206004820181905260248201527f45786368616e67653a20494e53554646494349454e545f544f4b454e5f5154596044820152606401610545565b6040517f70a0823100000000000000000000000000000000000000000000000000000000815230600482015260009073__$cf974219011b932c9a1a5e2f820d02d001$__9063c131f417908690869073ffffffffffffffffffffffffffffffffffffffff7f000000000000000000000000000000000000000000000000000000000000000016906370a082319060240160206040518083038186803b158015610ac557600080fd5b505afa158015610ad9573d6000803e3d6000fd5b505050506040513d601f19601f82011682018060405250810190610afd9190612914565b6040517fffffffff0000000000000000000000000000000000000000000000000000000060e086901b168152600481019390935260248301919091526044820152601e60648201526006608482015260a40160206040518083038186803b158015610b6757600080fd5b505af4158015610b7b573d6000803e3d6000fd5b505050506040513d601f19601f82011682018060405250810190610b9f9190612914565b9050610be373ffffffffffffffffffffffffffffffffffffffff7f00000000000000000000000000000000000000000000000000000000000000001633308761204e565b610c2473ffffffffffffffffffffffffffffffffffffffff7f0000000000000000000000000000000000000000000000000000000000000000163383612130565b60408051600080825260208201879052918101839052606081019190915233907f49926bbebe8474393f434dfa4f78694c0923efa07d19f2284518bfabd06eb737906080016107df565b60026005541415610cdb576040517f08c379a000000000000000000000000000000000000000000000000000000000815260206004820152601f60248201527f5265656e7472616e637947756172643a207265656e7472616e742063616c6c006044820152606401610545565b6002600555610ce981611fe1565b6040517f70a0823100000000000000000000000000000000000000000000000000000000815230600482015260009073__$cf974219011b932c9a1a5e2f820d02d001$__90639d372a7b90899089908990899073ffffffffffffffffffffffffffffffffffffffff7f000000000000000000000000000000000000000000000000000000000000000016906370a082319060240160206040518083038186803b158015610d9557600080fd5b505afa158015610da9573d6000803e3d6000fd5b505050506040513d601f19601f82011682018060405250810190610dcd9190612914565b6040517f70a082310000000000000000000000000000000000000000000000000000000081523060048201527f000000000000000000000000000000000000000000000000000000000000000073ffffffffffffffffffffffffffffffffffffffff16906370a082319060240160206040518083038186803b158015610e5257600080fd5b505afa158015610e66573d6000803e3d6000fd5b505050506040513d601f19601f82011682018060405250810190610e8a9190612914565b3073ffffffffffffffffffffffffffffffffffffffff166318160ddd6040518163ffffffff1660e01b815260040160206040518083038186803b158015610ed057600080fd5b505afa158015610ee4573d6000803e3d6000fd5b505050506040513d601f19601f82011682018060405250810190610f089190612914565b6040517fffffffff0000000000000000000000000000000000000000000000000000000060e08a901b1681526004810197909752602487019590955260448601939093526064850191909152608484015260a483015260c4820152600660e48201526101040160806040518083038186803b158015610f8657600080fd5b505af4158015610f9a573d6000803e3d6000fd5b505050506040513d601f19601f82011682018060405250810190610fbe919061288a565b600754600654919250610fd091612ab1565b600855606081015115611088576110887f000000000000000000000000000000000000000000000000000000000000000073ffffffffffffffffffffffffffffffffffffffff1663412753586040518163ffffffff1660e01b815260040160206040518083038186803b15801561104657600080fd5b505afa15801561105a573d6000803e3d6000fd5b505050506040513d601f19601f8201168201806040525081019061107e91906127ab565b826060015161218b565b61109683826040015161218b565b8051156112fc576040517f70a082310000000000000000000000000000000000000000000000000000000081523060048201526000907f000000000000000000000000000000000000000000000000000000000000000073ffffffffffffffffffffffffffffffffffffffff16906370a082319060240160206040518083038186803b15801561112557600080fd5b505afa158015611139573d6000803e3d6000fd5b505050506040513d601f19601f8201168201806040525081019061115d9190612914565b8251901591506111a89073ffffffffffffffffffffffffffffffffffffffff7f000000000000000000000000000000000000000000000000000000000000000016903390309061204e565b80156112fa5781516040517f70a082310000000000000000000000000000000000000000000000000000000081523060048201527f000000000000000000000000000000000000000000000000000000000000000073ffffffffffffffffffffffffffffffffffffffff16906370a082319060240160206040518083038186803b15801561123557600080fd5b505afa158015611249573d6000803e3d6000fd5b505050506040513d601f19601f8201168201806040525081019061126d9190612914565b146112fa576040517f08c379a000000000000000000000000000000000000000000000000000000000815260206004820152602760248201527f45786368616e67653a204645455f4f4e5f5452414e534645525f4e4f545f535560448201527f50504f52544544000000000000000000000000000000000000000000000000006064820152608401610545565b505b6020810151156113505760208101516113509073ffffffffffffffffffffffffffffffffffffffff7f000000000000000000000000000000000000000000000000000000000000000016903390309061204e565b8051602080830151604080519384529183015233917f06239653922ac7bea6aa2b19dc486b9361821d37712eb796adfd38d81de278ca910160405180910390a2505060016005555050505050565b6002600554141561140b576040517f08c379a000000000000000000000000000000000000000000000000000000000815260206004820152601f60248201527f5265656e7472616e637947756172643a207265656e7472616e742063616c6c006044820152606401610545565b600260055561141981611fe1565b60003073ffffffffffffffffffffffffffffffffffffffff166318160ddd6040518163ffffffff1660e01b815260040160206040518083038186803b15801561146157600080fd5b505afa158015611475573d6000803e3d6000fd5b505050506040513d601f19601f820116820180604052508101906114999190612914565b11611500576040517f08c379a000000000000000000000000000000000000000000000000000000000815260206004820181905260248201527f45786368616e67653a20494e53554646494349454e545f4c49515549444954596044820152606401610545565b6000841180156115105750600083115b61159c576040517f08c379a000000000000000000000000000000000000000000000000000000000815260206004820152602860248201527f45786368616e67653a204d494e535f4d5553545f42455f475245415445525f5460448201527f48414e5f5a45524f0000000000000000000000000000000000000000000000006064820152608401610545565b6040517f70a082310000000000000000000000000000000000000000000000000000000081523060048201526000907f000000000000000000000000000000000000000000000000000000000000000073ffffffffffffffffffffffffffffffffffffffff16906370a082319060240160206040518083038186803b15801561162457600080fd5b505afa158015611638573d6000803e3d6000fd5b505050506040513d601f19601f8201168201806040525081019061165c9190612914565b6040517f70a0823100000000000000000000000000000000000000000000000000000000815230600482015290915060009073ffffffffffffffffffffffffffffffffffffffff7f000000000000000000000000000000000000000000000000000000000000000016906370a082319060240160206040518083038186803b1580156116e757600080fd5b505afa1580156116fb573d6000803e3d6000fd5b505050506040513d601f19601f8201168201806040525081019061171f9190612914565b905060003073ffffffffffffffffffffffffffffffffffffffff166318160ddd6040518163ffffffff1660e01b815260040160206040518083038186803b15801561176957600080fd5b505afa15801561177d573d6000803e3d6000fd5b505050506040513d601f19601f820116820180604052508101906117a19190612914565b6040517f6cb4024b0000000000000000000000000000000000000000000000000000000081526004810182905260065460248201526007546044820152600854606482015290915060009073__$cf974219011b932c9a1a5e2f820d02d001$__90636cb4024b9060840160206040518083038186803b15801561182357600080fd5b505af4158015611837573d6000803e3d6000fd5b505050506040513d601f19601f8201168201806040525081019061185b9190612914565b90506118678183612a60565b9150600082611876868c612ab1565b6118809190612a78565b905060008361188f868d612ab1565b6118999190612a78565b905089821015611905576040517f08c379a000000000000000000000000000000000000000000000000000000000815260206004820152601f60248201527f45786368616e67653a20494e53554646494349454e545f424153455f515459006044820152606401610545565b8881101561196f576040517f08c379a000000000000000000000000000000000000000000000000000000000815260206004820181905260248201527f45786368616e67653a20494e53554646494349454e545f51554f54455f5154596044820152606401610545565b6006546000908590611981908e612ab1565b61198b9190612a78565b905080600660000160008282546119a29190612aee565b90915550506007548211156119bb5760006007556119d6565b81600660010160008282546119d09190612aee565b90915550505b6007546006546119e69190612ab1565b6008558315611a9657611a967f000000000000000000000000000000000000000000000000000000000000000073ffffffffffffffffffffffffffffffffffffffff1663412753586040518163ffffffff1660e01b815260040160206040518083038186803b158015611a5857600080fd5b505afa158015611a6c573d6000803e3d6000fd5b505050506040513d601f19601f82011682018060405250810190611a9091906127ab565b8561218b565b611aa0338d6122ab565b611ae173ffffffffffffffffffffffffffffffffffffffff7f0000000000000000000000000000000000000000000000000000000000000000168a85612130565b611b2273ffffffffffffffffffffffffffffffffffffffff7f0000000000000000000000000000000000000000000000000000000000000000168a84612130565b604080518481526020810184905233917f0fbf06c058b90cb038a618f8c2acbf6145f8b3570fd1fa56abb8f0f3f05b36e8910160405180910390a25050600160055550505050505050505050565b73ffffffffffffffffffffffffffffffffffffffff8316611c12576040517f08c379a0000000000000000000000000000000000000000000000000000000008152602060048201526024808201527f45524332303a20617070726f76652066726f6d20746865207a65726f2061646460448201527f72657373000000000000000000000000000000000000000000000000000000006064820152608401610545565b73ffffffffffffffffffffffffffffffffffffffff8216611cb5576040517f08c379a000000000000000000000000000000000000000000000000000000000815260206004820152602260248201527f45524332303a20617070726f766520746f20746865207a65726f20616464726560448201527f73730000000000000000000000000000000000000000000000000000000000006064820152608401610545565b73ffffffffffffffffffffffffffffffffffffffff83811660008181526001602090815260408083209487168084529482529182902085905590518481527f8c5be1e5ebec7d5bd14f71427d1e84f3dd0314c0f7b2291e5b200ac8c7c3b92591015b60405180910390a3505050565b73ffffffffffffffffffffffffffffffffffffffff8316611dc7576040517f08c379a000000000000000000000000000000000000000000000000000000000815260206004820152602560248201527f45524332303a207472616e736665722066726f6d20746865207a65726f20616460448201527f64726573730000000000000000000000000000000000000000000000000000006064820152608401610545565b73ffffffffffffffffffffffffffffffffffffffff8216611e6a576040517f08c379a000000000000000000000000000000000000000000000000000000000815260206004820152602360248201527f45524332303a207472616e7366657220746f20746865207a65726f206164647260448201527f65737300000000000000000000000000000000000000000000000000000000006064820152608401610545565b73ffffffffffffffffffffffffffffffffffffffff831660009081526020819052604090205481811015611f20576040517f08c379a000000000000000000000000000000000000000000000000000000000815260206004820152602660248201527f45524332303a207472616e7366657220616d6f756e742065786365656473206260448201527f616c616e636500000000000000000000000000000000000000000000000000006064820152608401610545565b611f2a8282612aee565b73ffffffffffffffffffffffffffffffffffffffff8086166000908152602081905260408082209390935590851681529081208054849290611f6d908490612a60565b925050819055508273ffffffffffffffffffffffffffffffffffffffff168473ffffffffffffffffffffffffffffffffffffffff167fddf252ad1be2c89b69c2b068fc378daa952ba7f163c4a11628f55a4df523b3ef84604051611fd391815260200190565b60405180910390a350505050565b4281101561204b576040517f08c379a000000000000000000000000000000000000000000000000000000000815260206004820152601160248201527f45786368616e67653a20455850495245440000000000000000000000000000006044820152606401610545565b50565b60405173ffffffffffffffffffffffffffffffffffffffff8085166024830152831660448201526064810182905261212a9085907f23b872dd00000000000000000000000000000000000000000000000000000000906084015b604080517fffffffffffffffffffffffffffffffffffffffffffffffffffffffffffffffe08184030181529190526020810180517bffffffffffffffffffffffffffffffffffffffffffffffffffffffff167fffffffff0000000000000000000000000000000000000000000000000000000090931692909217909152612499565b50505050565b60405173ffffffffffffffffffffffffffffffffffffffff83166024820152604481018290526121869084907fa9059cbb00000000000000000000000000000000000000000000000000000000906064016120a8565b505050565b73ffffffffffffffffffffffffffffffffffffffff8216612208576040517f08c379a000000000000000000000000000000000000000000000000000000000815260206004820152601f60248201527f45524332303a206d696e7420746f20746865207a65726f2061646472657373006044820152606401610545565b806002600082825461221a9190612a60565b909155505073ffffffffffffffffffffffffffffffffffffffff821660009081526020819052604081208054839290612254908490612a60565b909155505060405181815273ffffffffffffffffffffffffffffffffffffffff8316906000907fddf252ad1be2c89b69c2b068fc378daa952ba7f163c4a11628f55a4df523b3ef9060200160405180910390a35050565b73ffffffffffffffffffffffffffffffffffffffff821661234e576040517f08c379a000000000000000000000000000000000000000000000000000000000815260206004820152602160248201527f45524332303a206275726e2066726f6d20746865207a65726f2061646472657360448201527f73000000000000000000000000000000000000000000000000000000000000006064820152608401610545565b73ffffffffffffffffffffffffffffffffffffffff821660009081526020819052604090205481811015612404576040517f08c379a000000000000000000000000000000000000000000000000000000000815260206004820152602260248201527f45524332303a206275726e20616d6f756e7420657863656564732062616c616e60448201527f63650000000000000000000000000000000000000000000000000000000000006064820152608401610545565b61240e8282612aee565b73ffffffffffffffffffffffffffffffffffffffff841660009081526020819052604081209190915560028054849290612449908490612aee565b909155505060405182815260009073ffffffffffffffffffffffffffffffffffffffff8516907fddf252ad1be2c89b69c2b068fc378daa952ba7f163c4a11628f55a4df523b3ef90602001611d17565b60006124fb826040518060400160405280602081526020017f5361666545524332303a206c6f772d6c6576656c2063616c6c206661696c65648152508573ffffffffffffffffffffffffffffffffffffffff166125a59092919063ffffffff16565b8051909150156121865780806020019051810190612519919061286a565b612186576040517f08c379a000000000000000000000000000000000000000000000000000000000815260206004820152602a60248201527f5361666545524332303a204552433230206f7065726174696f6e20646964206e60448201527f6f742073756363656564000000000000000000000000000000000000000000006064820152608401610545565b60606125b484846000856125bc565b949350505050565b60608247101561264e576040517f08c379a000000000000000000000000000000000000000000000000000000000815260206004820152602660248201527f416464726573733a20696e73756666696369656e742062616c616e636520666f60448201527f722063616c6c00000000000000000000000000000000000000000000000000006064820152608401610545565b843b6126b6576040517f08c379a000000000000000000000000000000000000000000000000000000000815260206004820152601d60248201527f416464726573733a2063616c6c20746f206e6f6e2d636f6e74726163740000006044820152606401610545565b6000808673ffffffffffffffffffffffffffffffffffffffff1685876040516126df91906129f3565b60006040518083038185875af1925050503d806000811461271c576040519150601f19603f3d011682016040523d82523d6000602084013e612721565b606091505b509150915061273182828661273c565b979650505050505050565b6060831561274b575081610568565b82511561275b5782518084602001fd5b816040517f08c379a00000000000000000000000000000000000000000000000000000000081526004016105459190612a0f565b6000602082840312156127a0578081fd5b813561056881612bb4565b6000602082840312156127bc578081fd5b815161056881612bb4565b600080604083850312156127d9578081fd5b82356127e481612bb4565b915060208301356127f481612bb4565b809150509250929050565b600080600060608486031215612813578081fd5b833561281e81612bb4565b9250602084013561282e81612bb4565b929592945050506040919091013590565b60008060408385031215612851578182fd5b823561285c81612bb4565b946020939093013593505050565b60006020828403121561287b578081fd5b81518015158114610568578182fd5b60006080828403121561289b578081fd5b6040516080810181811067ffffffffffffffff821117156128e3577f4e487b710000000000000000000000000000000000000000000000000000000083526041600452602483fd5b8060405250825181526020830151602082015260408301516040820152606083015160608201528091505092915050565b600060208284031215612925578081fd5b5051919050565b600080600060608486031215612940578283fd5b505081359360208301359350604090920135919050565b600080600080600060a0868803121561296e578081fd5b853594506020860135935060408601359250606086013561298e81612bb4565b949793965091946080013592915050565b60008060008060008060c087890312156129b7578081fd5b8635955060208701359450604087013593506060870135925060808701356129de81612bb4565b8092505060a087013590509295509295509295565b60008251612a05818460208701612b05565b9190910192915050565b6020815260008251806020840152612a2e816040850160208701612b05565b601f017fffffffffffffffffffffffffffffffffffffffffffffffffffffffffffffffe0169190910160400192915050565b60008219821115612a7357612a73612b85565b500190565b600082612aac577f4e487b710000000000000000000000000000000000000000000000000000000081526012600452602481fd5b500490565b6000817fffffffffffffffffffffffffffffffffffffffffffffffffffffffffffffffff0483118215151615612ae957612ae9612b85565b500290565b600082821015612b0057612b00612b85565b500390565b60005b83811015612b20578181015183820152602001612b08565b8381111561212a5750506000910152565b600181811c90821680612b4557607f821691505b60208210811415612b7f577f4e487b7100000000000000000000000000000000000000000000000000000000600052602260045260246000fd5b50919050565b7f4e487b7100000000000000000000000000000000000000000000000000000000600052601160045260246000fd5b73ffffffffffffffffffffffffffffffffffffffff8116811461204b57600080fdfea26469706673582212207b13f100a625fab875ac23be1aefda4aae4990f640fdd464e356bc330d84a94b64736f6c63430008040033",
  "linkReferences": {
    "src/libraries/MathLib.sol": {
      "MathLib": [
        {
          "length": 20,
          "start": 2678
        },
        {
          "length": 20,
          "start": 3613
        },
        {
          "length": 20,
          "start": 4329
        },
        {
          "length": 20,
          "start": 7101
        }
      ]
    }
  },
  "deployedLinkReferences": {
    "src/libraries/MathLib.sol": {
      "MathLib": [
        {
          "length": 20,
          "start": 1703
        },
        {
          "length": 20,
          "start": 2638
        },
        {
          "length": 20,
          "start": 3354
        },
        {
          "length": 20,
          "start": 6126
        }
      ]
    }
  }
}