{
  "_format": "hh-sol-artifact-1",
  "contractName": "Exchange",
  "sourceName": "src/contracts/Exchange.sol",
  "abi": [
    {
      "inputs": [
        {
          "internalType": "string",
          "name": "_name",
          "type": "string"
        },
        {
          "internalType": "string",
          "name": "_symbol",
          "type": "string"
        },
        {
          "internalType": "address",
          "name": "_baseToken",
          "type": "address"
        },
        {
          "internalType": "address",
          "name": "_quoteToken",
          "type": "address"
        },
        {
          "internalType": "address",
          "name": "_exchangeFactoryAddress",
          "type": "address"
        }
      ],
      "stateMutability": "nonpayable",
      "type": "constructor"
    },
    {
      "anonymous": false,
      "inputs": [
        {
          "indexed": true,
          "internalType": "address",
          "name": "liquidityProvider",
          "type": "address"
        },
        {
          "indexed": false,
          "internalType": "uint256",
          "name": "baseTokenQtyAdded",
          "type": "uint256"
        },
        {
          "indexed": false,
          "internalType": "uint256",
          "name": "quoteTokenQtyAdded",
          "type": "uint256"
        }
      ],
      "name": "AddLiquidity",
      "type": "event"
    },
    {
      "anonymous": false,
      "inputs": [
        {
          "indexed": true,
          "internalType": "address",
          "name": "owner",
          "type": "address"
        },
        {
          "indexed": true,
          "internalType": "address",
          "name": "spender",
          "type": "address"
        },
        {
          "indexed": false,
          "internalType": "uint256",
          "name": "value",
          "type": "uint256"
        }
      ],
      "name": "Approval",
      "type": "event"
    },
    {
      "anonymous": false,
      "inputs": [
        {
          "indexed": true,
          "internalType": "address",
          "name": "liquidityProvider",
          "type": "address"
        },
        {
          "indexed": false,
          "internalType": "uint256",
          "name": "baseTokenQtyRemoved",
          "type": "uint256"
        },
        {
          "indexed": false,
          "internalType": "uint256",
          "name": "quoteTokenQtyRemoved",
          "type": "uint256"
        }
      ],
      "name": "RemoveLiquidity",
      "type": "event"
    },
    {
      "anonymous": false,
      "inputs": [
        {
          "indexed": true,
          "internalType": "address",
          "name": "sender",
          "type": "address"
        },
        {
          "indexed": false,
          "internalType": "uint256",
          "name": "baseTokenQtyIn",
          "type": "uint256"
        },
        {
          "indexed": false,
          "internalType": "uint256",
          "name": "quoteTokenQtyIn",
          "type": "uint256"
        },
        {
          "indexed": false,
          "internalType": "uint256",
          "name": "baseTokenQtyOut",
          "type": "uint256"
        },
        {
          "indexed": false,
          "internalType": "uint256",
          "name": "quoteTokenQtyOut",
          "type": "uint256"
        }
      ],
      "name": "Swap",
      "type": "event"
    },
    {
      "anonymous": false,
      "inputs": [
        {
          "indexed": true,
          "internalType": "address",
          "name": "from",
          "type": "address"
        },
        {
          "indexed": true,
          "internalType": "address",
          "name": "to",
          "type": "address"
        },
        {
          "indexed": false,
          "internalType": "uint256",
          "name": "value",
          "type": "uint256"
        }
      ],
      "name": "Transfer",
      "type": "event"
    },
    {
      "inputs": [],
      "name": "TOTAL_LIQUIDITY_FEE",
      "outputs": [
        {
          "internalType": "uint256",
          "name": "",
          "type": "uint256"
        }
      ],
      "stateMutability": "view",
      "type": "function"
    },
    {
      "inputs": [
        {
          "internalType": "uint256",
          "name": "_baseTokenQtyDesired",
          "type": "uint256"
        },
        {
          "internalType": "uint256",
          "name": "_quoteTokenQtyDesired",
          "type": "uint256"
        },
        {
          "internalType": "uint256",
          "name": "_baseTokenQtyMin",
          "type": "uint256"
        },
        {
          "internalType": "uint256",
          "name": "_quoteTokenQtyMin",
          "type": "uint256"
        },
        {
          "internalType": "address",
          "name": "_liquidityTokenRecipient",
          "type": "address"
        },
        {
          "internalType": "uint256",
          "name": "_expirationTimestamp",
          "type": "uint256"
        }
      ],
      "name": "addLiquidity",
      "outputs": [],
      "stateMutability": "nonpayable",
      "type": "function"
    },
    {
      "inputs": [
        {
          "internalType": "address",
          "name": "owner",
          "type": "address"
        },
        {
          "internalType": "address",
          "name": "spender",
          "type": "address"
        }
      ],
      "name": "allowance",
      "outputs": [
        {
          "internalType": "uint256",
          "name": "",
          "type": "uint256"
        }
      ],
      "stateMutability": "view",
      "type": "function"
    },
    {
      "inputs": [
        {
          "internalType": "address",
          "name": "spender",
          "type": "address"
        },
        {
          "internalType": "uint256",
          "name": "amount",
          "type": "uint256"
        }
      ],
      "name": "approve",
      "outputs": [
        {
          "internalType": "bool",
          "name": "",
          "type": "bool"
        }
      ],
      "stateMutability": "nonpayable",
      "type": "function"
    },
    {
      "inputs": [
        {
          "internalType": "address",
          "name": "account",
          "type": "address"
        }
      ],
      "name": "balanceOf",
      "outputs": [
        {
          "internalType": "uint256",
          "name": "",
          "type": "uint256"
        }
      ],
      "stateMutability": "view",
      "type": "function"
    },
    {
      "inputs": [],
      "name": "baseToken",
      "outputs": [
        {
          "internalType": "address",
          "name": "",
          "type": "address"
        }
      ],
      "stateMutability": "view",
      "type": "function"
    },
    {
      "inputs": [],
      "name": "decimals",
      "outputs": [
        {
          "internalType": "uint8",
          "name": "",
          "type": "uint8"
        }
      ],
      "stateMutability": "view",
      "type": "function"
    },
    {
      "inputs": [
        {
          "internalType": "address",
          "name": "spender",
          "type": "address"
        },
        {
          "internalType": "uint256",
          "name": "subtractedValue",
          "type": "uint256"
        }
      ],
      "name": "decreaseAllowance",
      "outputs": [
        {
          "internalType": "bool",
          "name": "",
          "type": "bool"
        }
      ],
      "stateMutability": "nonpayable",
      "type": "function"
    },
    {
      "inputs": [],
      "name": "exchangeFactoryAddress",
      "outputs": [
        {
          "internalType": "address",
          "name": "",
          "type": "address"
        }
      ],
      "stateMutability": "view",
      "type": "function"
    },
    {
      "inputs": [
        {
          "internalType": "address",
          "name": "spender",
          "type": "address"
        },
        {
          "internalType": "uint256",
          "name": "addedValue",
          "type": "uint256"
        }
      ],
      "name": "increaseAllowance",
      "outputs": [
        {
          "internalType": "bool",
          "name": "",
          "type": "bool"
        }
      ],
      "stateMutability": "nonpayable",
      "type": "function"
    },
    {
      "inputs": [],
      "name": "internalBalances",
      "outputs": [
        {
          "internalType": "uint256",
          "name": "baseTokenReserveQty",
          "type": "uint256"
        },
        {
          "internalType": "uint256",
          "name": "quoteTokenReserveQty",
          "type": "uint256"
        },
        {
          "internalType": "uint256",
          "name": "kLast",
          "type": "uint256"
        }
      ],
      "stateMutability": "view",
      "type": "function"
    },
    {
      "inputs": [],
      "name": "name",
      "outputs": [
        {
          "internalType": "string",
          "name": "",
          "type": "string"
        }
      ],
      "stateMutability": "view",
      "type": "function"
    },
    {
      "inputs": [],
      "name": "quoteToken",
      "outputs": [
        {
          "internalType": "address",
          "name": "",
          "type": "address"
        }
      ],
      "stateMutability": "view",
      "type": "function"
    },
    {
      "inputs": [
        {
          "internalType": "uint256",
          "name": "_liquidityTokenQty",
          "type": "uint256"
        },
        {
          "internalType": "uint256",
          "name": "_baseTokenQtyMin",
          "type": "uint256"
        },
        {
          "internalType": "uint256",
          "name": "_quoteTokenQtyMin",
          "type": "uint256"
        },
        {
          "internalType": "address",
          "name": "_tokenRecipient",
          "type": "address"
        },
        {
          "internalType": "uint256",
          "name": "_expirationTimestamp",
          "type": "uint256"
        }
      ],
      "name": "removeLiquidity",
      "outputs": [],
      "stateMutability": "nonpayable",
      "type": "function"
    },
    {
      "inputs": [
        {
          "internalType": "uint256",
          "name": "_baseTokenQty",
          "type": "uint256"
        },
        {
          "internalType": "uint256",
          "name": "_minQuoteTokenQty",
          "type": "uint256"
        },
        {
          "internalType": "uint256",
          "name": "_expirationTimestamp",
          "type": "uint256"
        }
      ],
      "name": "swapBaseTokenForQuoteToken",
      "outputs": [],
      "stateMutability": "nonpayable",
      "type": "function"
    },
    {
      "inputs": [
        {
          "internalType": "uint256",
          "name": "_quoteTokenQty",
          "type": "uint256"
        },
        {
          "internalType": "uint256",
          "name": "_minBaseTokenQty",
          "type": "uint256"
        },
        {
          "internalType": "uint256",
          "name": "_expirationTimestamp",
          "type": "uint256"
        }
      ],
      "name": "swapQuoteTokenForBaseToken",
      "outputs": [],
      "stateMutability": "nonpayable",
      "type": "function"
    },
    {
      "inputs": [],
      "name": "symbol",
      "outputs": [
        {
          "internalType": "string",
          "name": "",
          "type": "string"
        }
      ],
      "stateMutability": "view",
      "type": "function"
    },
    {
      "inputs": [],
      "name": "totalSupply",
      "outputs": [
        {
          "internalType": "uint256",
          "name": "",
          "type": "uint256"
        }
      ],
      "stateMutability": "view",
      "type": "function"
    },
    {
      "inputs": [
        {
          "internalType": "address",
          "name": "recipient",
          "type": "address"
        },
        {
          "internalType": "uint256",
          "name": "amount",
          "type": "uint256"
        }
      ],
      "name": "transfer",
      "outputs": [
        {
          "internalType": "bool",
          "name": "",
          "type": "bool"
        }
      ],
      "stateMutability": "nonpayable",
      "type": "function"
    },
    {
      "inputs": [
        {
          "internalType": "address",
          "name": "sender",
          "type": "address"
        },
        {
          "internalType": "address",
          "name": "recipient",
          "type": "address"
        },
        {
          "internalType": "uint256",
          "name": "amount",
          "type": "uint256"
        }
      ],
      "name": "transferFrom",
      "outputs": [
        {
          "internalType": "bool",
          "name": "",
          "type": "bool"
        }
      ],
      "stateMutability": "nonpayable",
      "type": "function"
    }
  ],
  "bytecode": "0x610140604052600060e0819052610100819052610120819052600681905560078190556008553480156200003257600080fd5b5060405162002fc838038062002fc883398101604081905262000055916200022d565b8451859085906200006e906003906020850190620000b7565b50805162000084906004906020840190620000b7565b50506001600555506001600160601b0319606093841b811660805291831b821660a05290911b1660c052506200031f9050565b828054620000c590620002cc565b90600052602060002090601f016020900481019282620000e9576000855562000134565b82601f106200010457805160ff191683800117855562000134565b8280016001018555821562000134579182015b828111156200013457825182559160200191906001019062000117565b506200014292915062000146565b5090565b5b8082111562000142576000815560010162000147565b80516001600160a01b03811681146200017557600080fd5b919050565b600082601f8301126200018b578081fd5b81516001600160401b0380821115620001a857620001a862000309565b604051601f8301601f19908116603f01168101908282118183101715620001d357620001d362000309565b81604052838152602092508683858801011115620001ef578485fd5b8491505b83821015620002125785820183015181830184015290820190620001f3565b838211156200022357848385830101525b9695505050505050565b600080600080600060a0868803121562000245578081fd5b85516001600160401b03808211156200025c578283fd5b6200026a89838a016200017a565b9650602088015191508082111562000280578283fd5b506200028f888289016200017a565b945050620002a0604087016200015d565b9250620002b0606087016200015d565b9150620002c0608087016200015d565b90509295509295909350565b600181811c90821680620002e157607f821691505b602082108114156200030357634e487b7160e01b600052602260045260246000fd5b50919050565b634e487b7160e01b600052604160045260246000fd5b60805160601c60a05160601c60c05160601c612bf9620003cf6000396000818161038301528181610fcf01526119e10152600081816101c90152818161075f01528181610ba801528181610de801528181611313015281816116920152611ae80152600081816103030152818161071d01528181610a7001528181610bea01528181610d40015281816110bb0152818161116b015281816111cb015281816115ba0152611aa70152612bf96000f3fe608060405234801561001057600080fd5b506004361061016c5760003560e01c806395d89b41116100cd578063dd62ed3e11610081578063eb443eb011610066578063eb443eb01461037e578063eba25b15146103a5578063ed856cdc146103ad57600080fd5b8063dd62ed3e14610325578063ded998b91461036b57600080fd5b8063a9059cbb116100b2578063a9059cbb146102d8578063be7305a1146102eb578063c55dae63146102fe57600080fd5b806395d89b41146102bd578063a457c2d7146102c557600080fd5b80632cd611bc11610124578063395093511161010957806339509351146102475780634d67a0a31461025a57806370a082311461028757600080fd5b80632cd611bc14610223578063313ce5671461023857600080fd5b806318160ddd1161015557806318160ddd146101b2578063217a4b70146101c457806323b872dd1461021057600080fd5b806306fdde0314610171578063095ea7b31461018f575b600080fd5b6101796103c0565b60405161018691906129fc565b60405180910390f35b6101a261019d36600461282c565b610452565b6040519015158152602001610186565b6002545b604051908152602001610186565b6101eb7f000000000000000000000000000000000000000000000000000000000000000081565b60405173ffffffffffffffffffffffffffffffffffffffff9091168152602001610186565b6101a261021e3660046127ec565b610468565b610236610231366004612919565b61055c565b005b60405160128152602001610186565b6101a261025536600461282c565b6107df565b60065460075460085461026c92919083565b60408051938452602084019290925290820152606001610186565b6101b661029536600461277c565b73ffffffffffffffffffffffffffffffffffffffff1660009081526020819052604090205490565b610179610823565b6101a26102d336600461282c565b610832565b6101a26102e636600461282c565b61090c565b6102366102f9366004612919565b610919565b6101eb7f000000000000000000000000000000000000000000000000000000000000000081565b6101b66103333660046127b4565b73ffffffffffffffffffffffffffffffffffffffff918216600090815260016020908152604080832093909416825291909152205490565b61023661037936600461298c565b610c5b565b6101eb7f000000000000000000000000000000000000000000000000000000000000000081565b6101b6601e81565b6102366103bb366004612944565b61138b565b6060600380546103cf90612b1e565b80601f01602080910402602001604051908101604052809291908181526020018280546103fb90612b1e565b80156104485780601f1061041d57610100808354040283529160200191610448565b820191906000526020600020905b81548152906001019060200180831161042b57829003601f168201915b5050505050905090565b600061045f338484611b5d565b50600192915050565b6000610475848484611d11565b73ffffffffffffffffffffffffffffffffffffffff841660009081526001602090815260408083203384529091529020548281101561053b576040517f08c379a000000000000000000000000000000000000000000000000000000000815260206004820152602860248201527f45524332303a207472616e7366657220616d6f756e742065786365656473206160448201527f6c6c6f77616e636500000000000000000000000000000000000000000000000060648201526084015b60405180910390fd5b61054f853361054a8685612adb565b611b5d565b60019150505b9392505050565b600260055414156105c9576040517f08c379a000000000000000000000000000000000000000000000000000000000815260206004820152601f60248201527f5265656e7472616e637947756172643a207265656e7472616e742063616c6c006044820152606401610532565b60026005556105d781611fce565b6000831180156105e75750600082115b61064d576040517f08c379a000000000000000000000000000000000000000000000000000000000815260206004820181905260248201527f45786368616e67653a20494e53554646494349454e545f544f4b454e5f5154596044820152606401610532565b6040517faf22e8640000000000000000000000000000000000000000000000000000000081526004810184905260248101839052601e60448201526006606482015260009073__$cf974219011b932c9a1a5e2f820d02d001$__9063af22e8649060840160206040518083038186803b1580156106c957600080fd5b505af41580156106dd573d6000803e3d6000fd5b505050506040513d601f19601f820116820180604052508101906107019190612901565b905061074573ffffffffffffffffffffffffffffffffffffffff7f00000000000000000000000000000000000000000000000000000000000000001633308761203b565b61078673ffffffffffffffffffffffffffffffffffffffff7f000000000000000000000000000000000000000000000000000000000000000016338361211d565b60408051858152600060208201819052918101919091526060810182905233907f49926bbebe8474393f434dfa4f78694c0923efa07d19f2284518bfabd06eb737906080015b60405180910390a2505060016005555050565b33600081815260016020908152604080832073ffffffffffffffffffffffffffffffffffffffff87168452909152812054909161045f91859061054a908690612a4d565b6060600480546103cf90612b1e565b33600090815260016020908152604080832073ffffffffffffffffffffffffffffffffffffffff86168452909152812054828110156108f3576040517f08c379a000000000000000000000000000000000000000000000000000000000815260206004820152602560248201527f45524332303a2064656372656173656420616c6c6f77616e63652062656c6f7760448201527f207a65726f0000000000000000000000000000000000000000000000000000006064820152608401610532565b610902338561054a8685612adb565b5060019392505050565b600061045f338484611d11565b60026005541415610986576040517f08c379a000000000000000000000000000000000000000000000000000000000815260206004820152601f60248201527f5265656e7472616e637947756172643a207265656e7472616e742063616c6c006044820152606401610532565b600260055561099481611fce565b6000831180156109a45750600082115b610a0a576040517f08c379a000000000000000000000000000000000000000000000000000000000815260206004820181905260248201527f45786368616e67653a20494e53554646494349454e545f544f4b454e5f5154596044820152606401610532565b6040517f70a0823100000000000000000000000000000000000000000000000000000000815230600482015260009073__$cf974219011b932c9a1a5e2f820d02d001$__9063c131f417908690869073ffffffffffffffffffffffffffffffffffffffff7f000000000000000000000000000000000000000000000000000000000000000016906370a082319060240160206040518083038186803b158015610ab257600080fd5b505afa158015610ac6573d6000803e3d6000fd5b505050506040513d601f19601f82011682018060405250810190610aea9190612901565b6040517fffffffff0000000000000000000000000000000000000000000000000000000060e086901b168152600481019390935260248301919091526044820152601e60648201526006608482015260a40160206040518083038186803b158015610b5457600080fd5b505af4158015610b68573d6000803e3d6000fd5b505050506040513d601f19601f82011682018060405250810190610b8c9190612901565b9050610bd073ffffffffffffffffffffffffffffffffffffffff7f00000000000000000000000000000000000000000000000000000000000000001633308761203b565b610c1173ffffffffffffffffffffffffffffffffffffffff7f000000000000000000000000000000000000000000000000000000000000000016338361211d565b60408051600080825260208201879052918101839052606081019190915233907f49926bbebe8474393f434dfa4f78694c0923efa07d19f2284518bfabd06eb737906080016107cc565b60026005541415610cc8576040517f08c379a000000000000000000000000000000000000000000000000000000000815260206004820152601f60248201527f5265656e7472616e637947756172643a207265656e7472616e742063616c6c006044820152606401610532565b6002600555610cd681611fce565b6040517f70a0823100000000000000000000000000000000000000000000000000000000815230600482015260009073__$cf974219011b932c9a1a5e2f820d02d001$__90639d372a7b90899089908990899073ffffffffffffffffffffffffffffffffffffffff7f000000000000000000000000000000000000000000000000000000000000000016906370a082319060240160206040518083038186803b158015610d8257600080fd5b505afa158015610d96573d6000803e3d6000fd5b505050506040513d601f19601f82011682018060405250810190610dba9190612901565b6040517f70a082310000000000000000000000000000000000000000000000000000000081523060048201527f000000000000000000000000000000000000000000000000000000000000000073ffffffffffffffffffffffffffffffffffffffff16906370a082319060240160206040518083038186803b158015610e3f57600080fd5b505afa158015610e53573d6000803e3d6000fd5b505050506040513d601f19601f82011682018060405250810190610e779190612901565b3073ffffffffffffffffffffffffffffffffffffffff166318160ddd6040518163ffffffff1660e01b815260040160206040518083038186803b158015610ebd57600080fd5b505afa158015610ed1573d6000803e3d6000fd5b505050506040513d601f19601f82011682018060405250810190610ef59190612901565b6040517fffffffff0000000000000000000000000000000000000000000000000000000060e08a901b1681526004810197909752602487019590955260448601939093526064850191909152608484015260a483015260c4820152600660e48201526101040160806040518083038186803b158015610f7357600080fd5b505af4158015610f87573d6000803e3d6000fd5b505050506040513d601f19601f82011682018060405250810190610fab9190612877565b600754600654919250610fbd91612a9e565b600855606081015115611075576110757f000000000000000000000000000000000000000000000000000000000000000073ffffffffffffffffffffffffffffffffffffffff1663412753586040518163ffffffff1660e01b815260040160206040518083038186803b15801561103357600080fd5b505afa158015611047573d6000803e3d6000fd5b505050506040513d601f19601f8201168201806040525081019061106b9190612798565b8260600151612178565b611083838260400151612178565b8051156112e9576040517f70a082310000000000000000000000000000000000000000000000000000000081523060048201526000907f000000000000000000000000000000000000000000000000000000000000000073ffffffffffffffffffffffffffffffffffffffff16906370a082319060240160206040518083038186803b15801561111257600080fd5b505afa158015611126573d6000803e3d6000fd5b505050506040513d601f19601f8201168201806040525081019061114a9190612901565b8251901591506111959073ffffffffffffffffffffffffffffffffffffffff7f000000000000000000000000000000000000000000000000000000000000000016903390309061203b565b80156112e75781516040517f70a082310000000000000000000000000000000000000000000000000000000081523060048201527f000000000000000000000000000000000000000000000000000000000000000073ffffffffffffffffffffffffffffffffffffffff16906370a082319060240160206040518083038186803b15801561122257600080fd5b505afa158015611236573d6000803e3d6000fd5b505050506040513d601f19601f8201168201806040525081019061125a9190612901565b146112e7576040517f08c379a000000000000000000000000000000000000000000000000000000000815260206004820152602760248201527f45786368616e67653a204645455f4f4e5f5452414e534645525f4e4f545f535560448201527f50504f52544544000000000000000000000000000000000000000000000000006064820152608401610532565b505b60208101511561133d57602081015161133d9073ffffffffffffffffffffffffffffffffffffffff7f000000000000000000000000000000000000000000000000000000000000000016903390309061203b565b8051602080830151604080519384529183015233917f06239653922ac7bea6aa2b19dc486b9361821d37712eb796adfd38d81de278ca910160405180910390a2505060016005555050505050565b600260055414156113f8576040517f08c379a000000000000000000000000000000000000000000000000000000000815260206004820152601f60248201527f5265656e7472616e637947756172643a207265656e7472616e742063616c6c006044820152606401610532565b600260055561140681611fce565b60003073ffffffffffffffffffffffffffffffffffffffff166318160ddd6040518163ffffffff1660e01b815260040160206040518083038186803b15801561144e57600080fd5b505afa158015611462573d6000803e3d6000fd5b505050506040513d601f19601f820116820180604052508101906114869190612901565b116114ed576040517f08c379a000000000000000000000000000000000000000000000000000000000815260206004820181905260248201527f45786368616e67653a20494e53554646494349454e545f4c49515549444954596044820152606401610532565b6000841180156114fd5750600083115b611589576040517f08c379a000000000000000000000000000000000000000000000000000000000815260206004820152602860248201527f45786368616e67653a204d494e535f4d5553545f42455f475245415445525f5460448201527f48414e5f5a45524f0000000000000000000000000000000000000000000000006064820152608401610532565b6040517f70a082310000000000000000000000000000000000000000000000000000000081523060048201526000907f000000000000000000000000000000000000000000000000000000000000000073ffffffffffffffffffffffffffffffffffffffff16906370a082319060240160206040518083038186803b15801561161157600080fd5b505afa158015611625573d6000803e3d6000fd5b505050506040513d601f19601f820116820180604052508101906116499190612901565b6040517f70a0823100000000000000000000000000000000000000000000000000000000815230600482015290915060009073ffffffffffffffffffffffffffffffffffffffff7f000000000000000000000000000000000000000000000000000000000000000016906370a082319060240160206040518083038186803b1580156116d457600080fd5b505afa1580156116e8573d6000803e3d6000fd5b505050506040513d601f19601f8201168201806040525081019061170c9190612901565b905060003073ffffffffffffffffffffffffffffffffffffffff166318160ddd6040518163ffffffff1660e01b815260040160206040518083038186803b15801561175657600080fd5b505afa15801561176a573d6000803e3d6000fd5b505050506040513d601f19601f8201168201806040525081019061178e9190612901565b6040517f6cb4024b0000000000000000000000000000000000000000000000000000000081526004810182905260065460248201526007546044820152600854606482015290915060009073__$cf974219011b932c9a1a5e2f820d02d001$__90636cb4024b9060840160206040518083038186803b15801561181057600080fd5b505af4158015611824573d6000803e3d6000fd5b505050506040513d601f19601f820116820180604052508101906118489190612901565b90506118548183612a4d565b9150600082611863868c612a9e565b61186d9190612a65565b905060008361187c868d612a9e565b6118869190612a65565b9050898210156118f2576040517f08c379a000000000000000000000000000000000000000000000000000000000815260206004820152601f60248201527f45786368616e67653a20494e53554646494349454e545f424153455f515459006044820152606401610532565b8881101561195c576040517f08c379a000000000000000000000000000000000000000000000000000000000815260206004820181905260248201527f45786368616e67653a20494e53554646494349454e545f51554f54455f5154596044820152606401610532565b600654600090859061196e908e612a9e565b6119789190612a65565b9050806006600001600082825461198f9190612adb565b90915550506007548211156119a85760006007556119c3565b81600660010160008282546119bd9190612adb565b90915550505b6007546006546119d39190612a9e565b6008558315611a8357611a837f000000000000000000000000000000000000000000000000000000000000000073ffffffffffffffffffffffffffffffffffffffff1663412753586040518163ffffffff1660e01b815260040160206040518083038186803b158015611a4557600080fd5b505afa158015611a59573d6000803e3d6000fd5b505050506040513d601f19601f82011682018060405250810190611a7d9190612798565b85612178565b611a8d338d612298565b611ace73ffffffffffffffffffffffffffffffffffffffff7f0000000000000000000000000000000000000000000000000000000000000000168a8561211d565b611b0f73ffffffffffffffffffffffffffffffffffffffff7f0000000000000000000000000000000000000000000000000000000000000000168a8461211d565b604080518481526020810184905233917f0fbf06c058b90cb038a618f8c2acbf6145f8b3570fd1fa56abb8f0f3f05b36e8910160405180910390a25050600160055550505050505050505050565b73ffffffffffffffffffffffffffffffffffffffff8316611bff576040517f08c379a0000000000000000000000000000000000000000000000000000000008152602060048201526024808201527f45524332303a20617070726f76652066726f6d20746865207a65726f2061646460448201527f72657373000000000000000000000000000000000000000000000000000000006064820152608401610532565b73ffffffffffffffffffffffffffffffffffffffff8216611ca2576040517f08c379a000000000000000000000000000000000000000000000000000000000815260206004820152602260248201527f45524332303a20617070726f766520746f20746865207a65726f20616464726560448201527f73730000000000000000000000000000000000000000000000000000000000006064820152608401610532565b73ffffffffffffffffffffffffffffffffffffffff83811660008181526001602090815260408083209487168084529482529182902085905590518481527f8c5be1e5ebec7d5bd14f71427d1e84f3dd0314c0f7b2291e5b200ac8c7c3b92591015b60405180910390a3505050565b73ffffffffffffffffffffffffffffffffffffffff8316611db4576040517f08c379a000000000000000000000000000000000000000000000000000000000815260206004820152602560248201527f45524332303a207472616e736665722066726f6d20746865207a65726f20616460448201527f64726573730000000000000000000000000000000000000000000000000000006064820152608401610532565b73ffffffffffffffffffffffffffffffffffffffff8216611e57576040517f08c379a000000000000000000000000000000000000000000000000000000000815260206004820152602360248201527f45524332303a207472616e7366657220746f20746865207a65726f206164647260448201527f65737300000000000000000000000000000000000000000000000000000000006064820152608401610532565b73ffffffffffffffffffffffffffffffffffffffff831660009081526020819052604090205481811015611f0d576040517f08c379a000000000000000000000000000000000000000000000000000000000815260206004820152602660248201527f45524332303a207472616e7366657220616d6f756e742065786365656473206260448201527f616c616e636500000000000000000000000000000000000000000000000000006064820152608401610532565b611f178282612adb565b73ffffffffffffffffffffffffffffffffffffffff8086166000908152602081905260408082209390935590851681529081208054849290611f5a908490612a4d565b925050819055508273ffffffffffffffffffffffffffffffffffffffff168473ffffffffffffffffffffffffffffffffffffffff167fddf252ad1be2c89b69c2b068fc378daa952ba7f163c4a11628f55a4df523b3ef84604051611fc091815260200190565b60405180910390a350505050565b42811015612038576040517f08c379a000000000000000000000000000000000000000000000000000000000815260206004820152601160248201527f45786368616e67653a20455850495245440000000000000000000000000000006044820152606401610532565b50565b60405173ffffffffffffffffffffffffffffffffffffffff808516602483015283166044820152606481018290526121179085907f23b872dd00000000000000000000000000000000000000000000000000000000906084015b604080517fffffffffffffffffffffffffffffffffffffffffffffffffffffffffffffffe08184030181529190526020810180517bffffffffffffffffffffffffffffffffffffffffffffffffffffffff167fffffffff0000000000000000000000000000000000000000000000000000000090931692909217909152612486565b50505050565b60405173ffffffffffffffffffffffffffffffffffffffff83166024820152604481018290526121739084907fa9059cbb0000000000000000000000000000000000000000000000000000000090606401612095565b505050565b73ffffffffffffffffffffffffffffffffffffffff82166121f5576040517f08c379a000000000000000000000000000000000000000000000000000000000815260206004820152601f60248201527f45524332303a206d696e7420746f20746865207a65726f2061646472657373006044820152606401610532565b80600260008282546122079190612a4d565b909155505073ffffffffffffffffffffffffffffffffffffffff821660009081526020819052604081208054839290612241908490612a4d565b909155505060405181815273ffffffffffffffffffffffffffffffffffffffff8316906000907fddf252ad1be2c89b69c2b068fc378daa952ba7f163c4a11628f55a4df523b3ef9060200160405180910390a35050565b73ffffffffffffffffffffffffffffffffffffffff821661233b576040517f08c379a000000000000000000000000000000000000000000000000000000000815260206004820152602160248201527f45524332303a206275726e2066726f6d20746865207a65726f2061646472657360448201527f73000000000000000000000000000000000000000000000000000000000000006064820152608401610532565b73ffffffffffffffffffffffffffffffffffffffff8216600090815260208190526040902054818110156123f1576040517f08c379a000000000000000000000000000000000000000000000000000000000815260206004820152602260248201527f45524332303a206275726e20616d6f756e7420657863656564732062616c616e60448201527f63650000000000000000000000000000000000000000000000000000000000006064820152608401610532565b6123fb8282612adb565b73ffffffffffffffffffffffffffffffffffffffff841660009081526020819052604081209190915560028054849290612436908490612adb565b909155505060405182815260009073ffffffffffffffffffffffffffffffffffffffff8516907fddf252ad1be2c89b69c2b068fc378daa952ba7f163c4a11628f55a4df523b3ef90602001611d04565b60006124e8826040518060400160405280602081526020017f5361666545524332303a206c6f772d6c6576656c2063616c6c206661696c65648152508573ffffffffffffffffffffffffffffffffffffffff166125929092919063ffffffff16565b80519091501561217357808060200190518101906125069190612857565b612173576040517f08c379a000000000000000000000000000000000000000000000000000000000815260206004820152602a60248201527f5361666545524332303a204552433230206f7065726174696f6e20646964206e60448201527f6f742073756363656564000000000000000000000000000000000000000000006064820152608401610532565b60606125a184846000856125a9565b949350505050565b60608247101561263b576040517f08c379a000000000000000000000000000000000000000000000000000000000815260206004820152602660248201527f416464726573733a20696e73756666696369656e742062616c616e636520666f60448201527f722063616c6c00000000000000000000000000000000000000000000000000006064820152608401610532565b843b6126a3576040517f08c379a000000000000000000000000000000000000000000000000000000000815260206004820152601d60248201527f416464726573733a2063616c6c20746f206e6f6e2d636f6e74726163740000006044820152606401610532565b6000808673ffffffffffffffffffffffffffffffffffffffff1685876040516126cc91906129e0565b60006040518083038185875af1925050503d8060008114612709576040519150601f19603f3d011682016040523d82523d6000602084013e61270e565b606091505b509150915061271e828286612729565b979650505050505050565b60608315612738575081610555565b8251156127485782518084602001fd5b816040517f08c379a000000000000000000000000000000000000000000000000000000000815260040161053291906129fc565b60006020828403121561278d578081fd5b813561055581612ba1565b6000602082840312156127a9578081fd5b815161055581612ba1565b600080604083850312156127c6578081fd5b82356127d181612ba1565b915060208301356127e181612ba1565b809150509250929050565b600080600060608486031215612800578081fd5b833561280b81612ba1565b9250602084013561281b81612ba1565b929592945050506040919091013590565b6000806040838503121561283e578182fd5b823561284981612ba1565b946020939093013593505050565b600060208284031215612868578081fd5b81518015158114610555578182fd5b600060808284031215612888578081fd5b6040516080810181811067ffffffffffffffff821117156128d0577f4e487b710000000000000000000000000000000000000000000000000000000083526041600452602483fd5b8060405250825181526020830151602082015260408301516040820152606083015160608201528091505092915050565b600060208284031215612912578081fd5b5051919050565b60008060006060848603121561292d578283fd5b505081359360208301359350604090920135919050565b600080600080600060a0868803121561295b578081fd5b853594506020860135935060408601359250606086013561297b81612ba1565b949793965091946080013592915050565b60008060008060008060c087890312156129a4578081fd5b8635955060208701359450604087013593506060870135925060808701356129cb81612ba1565b8092505060a087013590509295509295509295565b600082516129f2818460208701612af2565b9190910192915050565b6020815260008251806020840152612a1b816040850160208701612af2565b601f017fffffffffffffffffffffffffffffffffffffffffffffffffffffffffffffffe0169190910160400192915050565b60008219821115612a6057612a60612b72565b500190565b600082612a99577f4e487b710000000000000000000000000000000000000000000000000000000081526012600452602481fd5b500490565b6000817fffffffffffffffffffffffffffffffffffffffffffffffffffffffffffffffff0483118215151615612ad657612ad6612b72565b500290565b600082821015612aed57612aed612b72565b500390565b60005b83811015612b0d578181015183820152602001612af5565b838111156121175750506000910152565b600181811c90821680612b3257607f821691505b60208210811415612b6c577f4e487b7100000000000000000000000000000000000000000000000000000000600052602260045260246000fd5b50919050565b7f4e487b7100000000000000000000000000000000000000000000000000000000600052601160045260246000fd5b73ffffffffffffffffffffffffffffffffffffffff8116811461203857600080fdfea2646970667358221220de68fcde9a3f752bb15d50c2a1716ea1b58585fd3fb954545a93aa4968a652ff64736f6c63430008040033",
  "linkReferences": {
    "src/libraries/MathLib.sol": {
      "MathLib": [
        {
          "length": 20,
          "start": 2659
        },
        {
          "length": 20,
          "start": 3594
        },
        {
          "length": 20,
          "start": 4310
        },
        {
          "length": 20,
          "start": 7082
        }
      ]
    }
  },
  "deployedLinkReferences": {
    "src/libraries/MathLib.sol": {
      "MathLib": [
        {
          "length": 20,
          "start": 1684
        },
        {
          "length": 20,
          "start": 2619
        },
        {
          "length": 20,
          "start": 3335
        },
        {
          "length": 20,
          "start": 6107
        }
      ]
    }
  }
}