{"abi":[{"type":"constructor","inputs":[{"name":"_feeAddress","type":"address","internalType":"address"}],"stateMutability":"nonpayable"},{"type":"function","name":"createNewExchange","inputs":[{"name":"_baseToken","type":"address","internalType":"address"},{"name":"_quoteToken","type":"address","internalType":"address"}],"outputs":[],"stateMutability":"nonpayable"},{"type":"function","name":"exchangeAddressByTokenAddress","inputs":[{"name":"","type":"address","internalType":"address"},{"name":"","type":"address","internalType":"address"}],"outputs":[{"name":"","type":"address","internalType":"address"}],"stateMutability":"view"},{"type":"function","name":"feeAddress","inputs":[],"outputs":[{"name":"","type":"address","internalType":"address"}],"stateMutability":"view"},{"type":"function","name":"isValidExchangeAddress","inputs":[{"name":"","type":"address","internalType":"address"}],"outputs":[{"name":"","type":"bool","internalType":"bool"}],"stateMutability":"view"},{"type":"function","name":"owner","inputs":[],"outputs":[{"name":"","type":"address","internalType":"address"}],"stateMutability":"view"},{"type":"function","name":"renounceOwnership","inputs":[],"outputs":[],"stateMutability":"nonpayable"},{"type":"function","name":"setFeeAddress","inputs":[{"name":"_feeAddress","type":"address","internalType":"address"}],"outputs":[],"stateMutability":"nonpayable"},{"type":"function","name":"transferOwnership","inputs":[{"name":"newOwner","type":"address","internalType":"address"}],"outputs":[],"stateMutability":"nonpayable"},{"type":"event","name":"NewExchange","inputs":[{"name":"creator","type":"address","indexed":true,"internalType":"address"},{"name":"exchangeAddress","type":"address","indexed":true,"internalType":"address"}],"anonymous":false},{"type":"event","name":"OwnershipTransferred","inputs":[{"name":"previousOwner","type":"address","indexed":true,"internalType":"address"},{"name":"newOwner","type":"address","indexed":true,"internalType":"address"}],"anonymous":false},{"type":"event","name":"SetFeeAddress","inputs":[{"name":"feeAddress","type":"address","indexed":true,"internalType":"address"}],"anonymous":false}],"bytecode":{"object":"0x608060405234801561001057600080fd5b50604051613af4380380613af483398101604081905261002f91610107565b610038336100b7565b6001600160a01b0381166100925760405162461bcd60e51b815260206004820181905260248201527f45786368616e6765466163746f72793a20494e56414c49445f41444452455353604482015260640160405180910390fd5b600380546001600160a01b0319166001600160a01b0392909216919091179055610135565b600080546001600160a01b038381166001600160a01b0319831681178455604051919092169283917f8be0079c531659141344cd1fd0a4f28419497f9722a3daafe3b4186f6b6457e09190a35050565b600060208284031215610118578081fd5b81516001600160a01b038116811461012e578182fd5b9392505050565b6139b0806101446000396000f3fe60806040523480156200001157600080fd5b5060043610620000935760003560e01c80638705fcd411620000625780638705fcd4146200011c5780638cc774ec14620001335780638da5cb5b146200016a578063f2fde38b146200017c57600080fd5b80630a6b78ff14620000985780631016954e14620000b15780634127535814620000ec578063715018a61462000112575b600080fd5b620000af620000a936600462000780565b62000193565b005b620000d7620000c23660046200075c565b60026020526000908152604090205460ff1681565b60405190151581526020015b60405180910390f35b6003546001600160a01b03165b6040516001600160a01b039091168152602001620000e3565b620000af62000442565b620000af6200012d3660046200075c565b6200045a565b620000f96200014436600462000780565b60016020908152600092835260408084209091529082529020546001600160a01b031681565b6000546001600160a01b0316620000f9565b620000af6200018d3660046200075c565b6200052f565b806001600160a01b0316826001600160a01b03161415620002055760405162461bcd60e51b815260206004820152602160248201527f45786368616e6765466163746f72793a204944454e544943414c5f544f4b454e6044820152605360f81b60648201526084015b60405180910390fd5b6001600160a01b038216158015906200022657506001600160a01b03811615155b620002835760405162461bcd60e51b815260206004820152602660248201527f45786368616e6765466163746f72793a20494e56414c49445f544f4b454e5f4160448201526544445245535360d01b6064820152608401620001fc565b6001600160a01b03828116600090815260016020908152604080832085851684529091529020541615620003065760405162461bcd60e51b815260206004820152602360248201527f45786368616e6765466163746f72793a204455504c49434154455f45584348416044820152624e474560e81b6064820152608401620001fc565b60006200031c836001600160a01b0316620005ae565b9050600062000334836001600160a01b0316620005ae565b9050600082826040516020016200034d929190620008b8565b60405160208183030381529060405283836040516020016200037192919062000922565b604051602081830303815290604052868630604051620003919062000731565b620003a195949392919062000973565b604051809103906000f080158015620003be573d6000803e3d6000fd5b506001600160a01b0386811660009081526001602081815260408084208a86168552825280842080546001600160a01b03191695871695861790558484526002909152808320805460ff191690921790915551929350909133917f9d42cb017eb05bd8944ab536a8b35bc68085931dd5f4356489801453923953f991a35050505050565b6200044c62000685565b620004586000620006e1565b565b6200046462000685565b6001600160a01b038116158015906200048b57506003546001600160a01b03828116911614155b620004e55760405162461bcd60e51b8152602060048201526024808201527f45786368616e6765466163746f72793a20494e56416c49445f4645455f4144446044820152635245535360e01b6064820152608401620001fc565b600380546001600160a01b0319166001600160a01b0383169081179091556040517ffcb8a963756b148f85a52537b63147b6c4b40af694099c901ac3b99d317a2db890600090a250565b6200053962000685565b6001600160a01b038116620005a05760405162461bcd60e51b815260206004820152602660248201527f4f776e61626c653a206e6577206f776e657220697320746865207a65726f206160448201526564647265737360d01b6064820152608401620001fc565b620005ab81620006e1565b50565b60408051600481526024810182526020810180516001600160e01b03166395d89b4160e01b179052905160609160009182916001600160a01b03861691620005f791906200089a565b600060405180830381855afa9150503d806000811462000634576040519150601f19603f3d011682016040523d82523d6000602084013e62000639565b606091505b509150915081156200066357808060200190518101906200065b9190620007b7565b949350505050565b50506040805180820190915260038152622a25a760e91b602082015292915050565b6000546001600160a01b03163314620004585760405162461bcd60e51b815260206004820181905260248201527f4f776e61626c653a2063616c6c6572206973206e6f7420746865206f776e65726044820152606401620001fc565b600080546001600160a01b038381166001600160a01b0319831681178455604051919092169283917f8be0079c531659141344cd1fd0a4f28419497f9722a3daafe3b4186f6b6457e09190a35050565b612f6a8062000a1183390190565b80356001600160a01b03811681146200075757600080fd5b919050565b6000602082840312156200076e578081fd5b62000779826200073f565b9392505050565b6000806040838503121562000793578081fd5b6200079e836200073f565b9150620007ae602084016200073f565b90509250929050565b600060208284031215620007c9578081fd5b815167ffffffffffffffff80821115620007e1578283fd5b818401915084601f830112620007f5578283fd5b8151818111156200080a576200080a620009fa565b604051601f8201601f19908116603f01168101908382118183101715620008355762000835620009fa565b816040528281528760208487010111156200084e578586fd5b62000861836020830160208801620009c7565b979650505050505050565b6000815180845262000886816020860160208601620009c7565b601f01601f19169290920160200192915050565b60008251620008ae818460208701620009c7565b9190910192915050565b60008351620008cc818460208801620009c7565b603b60f91b9083019081528351620008ec816001840160208801620009c7565b7f20456c617374696353776170204c697175696469747920546f6b656e0000000060019290910191820152601d01949350505050565b6000835162000936818460208801620009c7565b603b60f91b908301908152835162000956816001840160208801620009c7565b6302d454c560e41b60019290910191820152600501949350505050565b60a0815260006200098860a08301886200086c565b82810360208401526200099c81886200086c565b6001600160a01b03968716604085015294861660608401525050921660809092019190915292915050565b60005b83811015620009e4578181015183820152602001620009ca565b83811115620009f4576000848401525b50505050565b634e487b7160e01b600052604160045260246000fdfe60e06040523480156200001157600080fd5b5060405162002f6a38038062002f6a83398101604081905262000034916200020c565b8451859085906200004d90600390602085019062000096565b5080516200006390600490602084019062000096565b50506001600555506001600160601b0319606093841b811660805291831b821660a05290911b1660c05250620002fe9050565b828054620000a490620002ab565b90600052602060002090601f016020900481019282620000c8576000855562000113565b82601f10620000e357805160ff191683800117855562000113565b8280016001018555821562000113579182015b8281111562000113578251825591602001919060010190620000f6565b506200012192915062000125565b5090565b5b8082111562000121576000815560010162000126565b80516001600160a01b03811681146200015457600080fd5b919050565b600082601f8301126200016a578081fd5b81516001600160401b0380821115620001875762000187620002e8565b604051601f8301601f19908116603f01168101908282118183101715620001b257620001b2620002e8565b81604052838152602092508683858801011115620001ce578485fd5b8491505b83821015620001f15785820183015181830184015290820190620001d2565b838211156200020257848385830101525b9695505050505050565b600080600080600060a0868803121562000224578081fd5b85516001600160401b03808211156200023b578283fd5b6200024989838a0162000159565b965060208801519150808211156200025f578283fd5b506200026e8882890162000159565b9450506200027f604087016200013c565b92506200028f606087016200013c565b91506200029f608087016200013c565b90509295509295909350565b600181811c90821680620002c057607f821691505b60208210811415620002e257634e487b7160e01b600052602260045260246000fd5b50919050565b634e487b7160e01b600052604160045260246000fd5b60805160601c60a05160601c60c05160601c612bca620003a06000396000818161030a015281816109b60152611139015260008181610194015281816104f70152818161077401528181610c2d01528181610ebb01526112190152600081816102bd015281816104c2015281816106e2015281816107a90152818161091001528181610aea01528181610b3101528181610e1601526111e50152612bca6000f3fe608060405234801561001057600080fd5b50600436106101375760003560e01c806395d89b41116100b8578063c55dae631161007c578063c55dae63146102b8578063dd62ed3e146102df578063ded998b9146102f2578063eb443eb014610305578063eba25b151461032c578063ed856cdc1461033457600080fd5b806395d89b411461026e578063a457c2d714610276578063a9059cbb14610289578063ba9a7a561461029c578063be7305a1146102a557600080fd5b80632cd611bc116100ff5780632cd611bc146101e1578063313ce567146101f657806339509351146102055780634d67a0a31461021857806370a082311461024557600080fd5b806306fdde031461013c578063095ea7b31461015a57806318160ddd1461017d578063217a4b701461018f57806323b872dd146101ce575b600080fd5b610144610347565b60405161015191906129b0565b60405180910390f35b61016d61016836600461286a565b6103d9565b6040519015158152602001610151565b6002545b604051908152602001610151565b6101b67f000000000000000000000000000000000000000000000000000000000000000081565b6040516001600160a01b039091168152602001610151565b61016d6101dc36600461282a565b6103f3565b6101f46101ef3660046128cd565b610417565b005b60405160128152602001610151565b61016d61021336600461286a565b61057d565b60065460075460085461022a92919083565b60408051938452602084019290925290820152606001610151565b6101816102533660046127ba565b6001600160a01b031660009081526020819052604090205490565b61014461059f565b61016d61028436600461286a565b6105ae565b61016d61029736600461286a565b610629565b6101816103e881565b6101f46102b33660046128cd565b610637565b6101b67f000000000000000000000000000000000000000000000000000000000000000081565b6101816102ed3660046127f2565b61081a565b6101f4610300366004612940565b610845565b6101b67f000000000000000000000000000000000000000000000000000000000000000081565b610181603281565b6101f46103423660046128f8565b610cad565b60606003805461035690612b31565b80601f016020809104026020016040519081016040528092919081815260200182805461038290612b31565b80156103cf5780601f106103a4576101008083540402835291602001916103cf565b820191906000526020600020905b8154815290600101906020018083116103b257829003601f168201915b5050505050905090565b6000336103e7818585611293565b60019150505b92915050565b6000336104018582856113b7565b61040c858585611431565b506001949350505050565b61041f6115d5565b80428110156104495760405162461bcd60e51b815260040161044090612a28565b60405180910390fd5b831580159061045757508215155b6104a35760405162461bcd60e51b815260206004820181905260248201527f45786368616e67653a20494e53554646494349454e545f544f4b454e5f5154596044820152606401610440565b60006104b385856032600661162f565b90506104ea6001600160a01b037f00000000000000000000000000000000000000000000000000000000000000001633308861173c565b61051e6001600160a01b037f00000000000000000000000000000000000000000000000000000000000000001633836117a7565b60408051868152600060208201819052918101919091526060810182905233907f49926bbebe8474393f434dfa4f78694c0923efa07d19f2284518bfabd06eb737906080015b60405180910390a250506105786001600555565b505050565b6000336103e7818585610590838361081a565b61059a9190612a97565b611293565b60606004805461035690612b31565b600033816105bc828661081a565b90508381101561061c5760405162461bcd60e51b815260206004820152602560248201527f45524332303a2064656372656173656420616c6c6f77616e63652062656c6f77604482015264207a65726f60d81b6064820152608401610440565b61040c8286868403611293565b6000336103e7818585611431565b61063f6115d5565b80428110156106605760405162461bcd60e51b815260040161044090612a28565b831580159061066e57508215155b6106ba5760405162461bcd60e51b815260206004820181905260248201527f45786368616e67653a20494e53554646494349454e545f544f4b454e5f5154596044820152606401610440565b6040516370a0823160e01b815230600482015260009061076590869086906001600160a01b037f000000000000000000000000000000000000000000000000000000000000000016906370a082319060240160206040518083038186803b15801561072457600080fd5b505afa158015610738573d6000803e3d6000fd5b505050506040513d601f19601f8201168201806040525081019061075c91906128b5565b603260066117d7565b905061079c6001600160a01b037f00000000000000000000000000000000000000000000000000000000000000001633308861173c565b6107d06001600160a01b037f00000000000000000000000000000000000000000000000000000000000000001633836117a7565b60408051600080825260208201889052918101839052606081019190915233907f49926bbebe8474393f434dfa4f78694c0923efa07d19f2284518bfabd06eb73790608001610564565b6001600160a01b03918216600090815260016020908152604080832093909416825291909152205490565b61084d6115d5565b804281101561086e5760405162461bcd60e51b815260040161044090612a28565b6000306001600160a01b03166318160ddd6040518163ffffffff1660e01b815260040160206040518083038186803b1580156108a957600080fd5b505afa1580156108bd573d6000803e3d6000fd5b505050506040513d601f19601f820116820180604052508101906108e191906128b5565b6040516370a0823160e01b8152306004820152909150600090610992908a908a908a908a906001600160a01b037f000000000000000000000000000000000000000000000000000000000000000016906370a082319060240160206040518083038186803b15801561095257600080fd5b505afa158015610966573d6000803e3d6000fd5b505050506040513d601f19601f8201168201806040525081019061098a91906128b5565b8760066118bb565b6007546006549192506109a491612acf565b600855606081015115610a4f57610a4f7f00000000000000000000000000000000000000000000000000000000000000006001600160a01b031663412753586040518163ffffffff1660e01b815260040160206040518083038186803b158015610a0d57600080fd5b505afa158015610a21573d6000803e3d6000fd5b505050506040513d601f19601f82011682018060405250810190610a4591906127d6565b8260600151611c40565b81158015610ac5576103e8826040015111610aac5760405162461bcd60e51b815260206004820152601d60248201527f45786368616e67653a20494e495449414c5f4445504f5349545f4d494e0000006044820152606401610440565b6040820180516103e719019052610ac5306103e8611c40565b610ad3868360400151611c40565b815115610c10578151610b14906001600160a01b037f000000000000000000000000000000000000000000000000000000000000000016903390309061173c565b8015610c105781516040516370a0823160e01b81523060048201527f00000000000000000000000000000000000000000000000000000000000000006001600160a01b0316906370a082319060240160206040518083038186803b158015610b7b57600080fd5b505afa158015610b8f573d6000803e3d6000fd5b505050506040513d601f19601f82011682018060405250810190610bb391906128b5565b14610c105760405162461bcd60e51b815260206004820152602760248201527f45786368616e67653a204645455f4f4e5f5452414e534645525f4e4f545f5355604482015266141413d495115160ca1b6064820152608401610440565b602082015115610c57576020820151610c57906001600160a01b037f000000000000000000000000000000000000000000000000000000000000000016903390309061173c565b8151602080840151604080519384529183015233917f06239653922ac7bea6aa2b19dc486b9361821d37712eb796adfd38d81de278ca910160405180910390a250505050610ca56001600555565b505050505050565b610cb56115d5565b8042811015610cd65760405162461bcd60e51b815260040161044090612a28565b306001600160a01b03166318160ddd6040518163ffffffff1660e01b815260040160206040518083038186803b158015610d0f57600080fd5b505afa158015610d23573d6000803e3d6000fd5b505050506040513d601f19601f82011682018060405250810190610d4791906128b5565b610d935760405162461bcd60e51b815260206004820181905260248201527f45786368616e67653a20494e53554646494349454e545f4c49515549444954596044820152606401610440565b8415801590610da157508315155b610dfe5760405162461bcd60e51b815260206004820152602860248201527f45786368616e67653a204d494e535f4d5553545f42455f475245415445525f5460448201526748414e5f5a45524f60c01b6064820152608401610440565b6040516370a0823160e01b81523060048201526000907f00000000000000000000000000000000000000000000000000000000000000006001600160a01b0316906370a082319060240160206040518083038186803b158015610e6057600080fd5b505afa158015610e74573d6000803e3d6000fd5b505050506040513d601f19601f82011682018060405250810190610e9891906128b5565b6040516370a0823160e01b81523060048201529091506000906001600160a01b037f000000000000000000000000000000000000000000000000000000000000000016906370a082319060240160206040518083038186803b158015610efd57600080fd5b505afa158015610f11573d6000803e3d6000fd5b505050506040513d601f19601f82011682018060405250810190610f3591906128b5565b90506000306001600160a01b03166318160ddd6040518163ffffffff1660e01b815260040160206040518083038186803b158015610f7257600080fd5b505afa158015610f86573d6000803e3d6000fd5b505050506040513d601f19601f82011682018060405250810190610faa91906128b5565b604080516060810182526006548152600754602082015260085491810191909152909150600090610fdc908390611cff565b9050610fe88183612a97565b9150600082610ff7868d612acf565b6110019190612aaf565b9050600083611010868e612acf565b61101a9190612aaf565b90508a82101561106c5760405162461bcd60e51b815260206004820152601f60248201527f45786368616e67653a20494e53554646494349454e545f424153455f515459006044820152606401610440565b898110156110bc5760405162461bcd60e51b815260206004820181905260248201527f45786368616e67653a20494e53554646494349454e545f51554f54455f5154596044820152606401610440565b60006006600001549050600085828f6110d59190612acf565b6110df9190612aaf565b90506110eb8183612aee565b60068190556007549092508084111561110b57506000600781905561111d565b6111158482612aee565b600781905590505b6111278184612acf565b6008555050831590506111ce576111ce7f00000000000000000000000000000000000000000000000000000000000000006001600160a01b031663412753586040518163ffffffff1660e01b815260040160206040518083038186803b15801561119057600080fd5b505afa1580156111a4573d6000803e3d6000fd5b505050506040513d601f19601f820116820180604052508101906111c891906127d6565b84611c40565b6111d8338d611d72565b61120c6001600160a01b037f0000000000000000000000000000000000000000000000000000000000000000168a846117a7565b6112406001600160a01b037f0000000000000000000000000000000000000000000000000000000000000000168a836117a7565b604080518381526020810183905233917f0fbf06c058b90cb038a618f8c2acbf6145f8b3570fd1fa56abb8f0f3f05b36e8910160405180910390a25050505050505061128c6001600555565b5050505050565b6001600160a01b0383166112f55760405162461bcd60e51b8152602060048201526024808201527f45524332303a20617070726f76652066726f6d20746865207a65726f206164646044820152637265737360e01b6064820152608401610440565b6001600160a01b0382166113565760405162461bcd60e51b815260206004820152602260248201527f45524332303a20617070726f766520746f20746865207a65726f206164647265604482015261737360f01b6064820152608401610440565b6001600160a01b0383811660008181526001602090815260408083209487168084529482529182902085905590518481527f8c5be1e5ebec7d5bd14f71427d1e84f3dd0314c0f7b2291e5b200ac8c7c3b925910160405180910390a3505050565b60006113c3848461081a565b9050600019811461142b578181101561141e5760405162461bcd60e51b815260206004820152601d60248201527f45524332303a20696e73756666696369656e7420616c6c6f77616e63650000006044820152606401610440565b61142b8484848403611293565b50505050565b6001600160a01b0383166114955760405162461bcd60e51b815260206004820152602560248201527f45524332303a207472616e736665722066726f6d20746865207a65726f206164604482015264647265737360d81b6064820152608401610440565b6001600160a01b0382166114f75760405162461bcd60e51b815260206004820152602360248201527f45524332303a207472616e7366657220746f20746865207a65726f206164647260448201526265737360e81b6064820152608401610440565b6001600160a01b0383166000908152602081905260409020548181101561156f5760405162461bcd60e51b815260206004820152602660248201527f45524332303a207472616e7366657220616d6f756e7420657863656564732062604482015265616c616e636560d01b6064820152608401610440565b6001600160a01b03848116600081815260208181526040808320878703905593871680835291849020805487019055925185815290927fddf252ad1be2c89b69c2b068fc378daa952ba7f163c4a11628f55a4df523b3ef910160405180910390a361142b565b600260055414156116285760405162461bcd60e51b815260206004820152601f60248201527f5265656e7472616e637947756172643a207265656e7472616e742063616c6c006044820152606401610440565b6002600555565b6000841580159061163f57508315155b61168b5760405162461bcd60e51b815260206004820152601f60248201527f4d6174684c69623a20494e53554646494349454e545f544f4b454e5f515459006044820152606401610440565b61169f858360000154846001015486611ea4565b9050838110156116ff5760405162461bcd60e51b815260206004820152602560248201527f4d6174684c69623a20494e53554646494349454e545f51554f54455f544f4b456044820152644e5f51545960d81b6064820152608401610440565b848260000160008282546117139190612a97565b925050819055508082600101600082825461172e9190612aee565b909155509095945050505050565b6040516001600160a01b038085166024830152831660448201526064810182905261142b9085906323b872dd60e01b906084015b60408051601f198184030181529190526020810180516001600160e01b03166001600160e01b031990931692909217909152611ef4565b6040516001600160a01b03831660248201526044810182905261057890849063a9059cbb60e01b90606401611770565b600083158015906117e85750815415155b6118045760405162461bcd60e51b815260040161044090612a53565b815484101561184657600061182183600001548460010154611fc9565b9050600061182f8683611fc9565b905061183d88828888611ea4565b9250505061185d565b61185a868360010154846000015486611ea4565b90505b8481101561187d5760405162461bcd60e51b815260040161044090612a53565b808260000160008282546118919190612aee565b92505081905550858260010160008282546118ac9190612a97565b90915550909695505050505050565b6118e66040518060800160405280600081526020016000815260200160008152602001600081525090565b8215611b235760408051606081018252835481526001840154602082015260028401549181019190915261191b908490611cff565b6060820181905261192c9084612a97565b925061196184836040518060600160405290816000820154815260200160018201548152602001600282015481525050612004565b15611b04576000806000846000015487111561198d576119838a888888612053565b90925090506119ca565b6119c48b60008989896040518060600160405290816000820154815260200160018201548152602001600282015481525050612147565b90935090505b89821080156119d857508a83105b15611a1457611a076119ea848d612aee565b6119f4848d612aee565b600080611a01868c612a97565b8a6122a7565b6040870152602086015284525b8284600001818151611a269190612a97565b905250602084018051839190611a3d908390612a97565b905250604084018051829190611a54908390612a97565b9052508351891115611aa85760405162461bcd60e51b815260206004820152601e60248201527f4d6174684c69623a20494e53554646494349454e545f424153455f51545900006044820152606401610440565b8784602001511015611afc5760405162461bcd60e51b815260206004820152601f60248201527f4d6174684c69623a20494e53554646494349454e545f51554f54455f515459006044820152606401610440565b505050611c35565b611b128888888887876122a7565b604084015260208301528152611c35565b87611b7f5760405162461bcd60e51b815260206004820152602660248201527f4d6174684c69623a20494e53554646494349454e545f424153455f5154595f446044820152651154d254915160d21b6064820152608401610440565b86611bdc5760405162461bcd60e51b815260206004820152602760248201527f4d6174684c69623a20494e53554646494349454e545f51554f54455f5154595f604482015266111154d254915160ca1b6064820152608401610440565b87815260208101879052611bf8611bf3888a612acf565b6123e5565b6040820152805182548390600090611c11908490612a97565b90915550506020810151600183018054600090611c2f908490612a97565b90915550505b979650505050505050565b6001600160a01b038216611c965760405162461bcd60e51b815260206004820152601f60248201527f45524332303a206d696e7420746f20746865207a65726f2061646472657373006044820152606401610440565b8060026000828254611ca89190612a97565b90915550506001600160a01b038216600081815260208181526040808320805486019055518481527fddf252ad1be2c89b69c2b068fc378daa952ba7f163c4a11628f55a4df523b3ef910160405180910390a35050565b600080611d1983602001518460000151611bf39190612acf565b90506000611d2a84604001516123e5565b905080821115611d6a576000611d408284612aee565b611d4a9087612acf565b90506000611d59846002612acf565b9050611d658183612aaf565b945050505b505092915050565b6001600160a01b038216611dd25760405162461bcd60e51b815260206004820152602160248201527f45524332303a206275726e2066726f6d20746865207a65726f206164647265736044820152607360f81b6064820152608401610440565b6001600160a01b03821660009081526020819052604090205481811015611e465760405162461bcd60e51b815260206004820152602260248201527f45524332303a206275726e20616d6f756e7420657863656564732062616c616e604482015261636560f01b6064820152608401610440565b6001600160a01b0383166000818152602081815260408083208686039055600280548790039055518581529192917fddf252ad1be2c89b69c2b068fc378daa952ba7f163c4a11628f55a4df523b3ef910160405180910390a3505050565b600080611eb383612710612aee565b611ebd9087612acf565b905080611ecc61271087612acf565b611ed69190612a97565b611ee08583612acf565b611eea9190612aaf565b9695505050505050565b6000611f49826040518060400160405280602081526020017f5361666545524332303a206c6f772d6c6576656c2063616c6c206661696c6564815250856001600160a01b031661243e9092919063ffffffff16565b9050805160001480611f6a575080806020019051810190611f6a9190612895565b6105785760405162461bcd60e51b815260206004820152602a60248201527f5361666545524332303a204552433230206f7065726174696f6e20646964206e6044820152691bdd081cdd58d8d9595960b21b6064820152608401610440565b600081611fd7600282612aaf565b611fe9670de0b6b3a764000086612acf565b611ff39190612a97565b611ffd9190612aaf565b9392505050565b6000670de0b6b3a764000061204a670de0b6b3a7640000612029868660000151612455565b6120339190612acf565b61204585600001518660200151611fc9565b611fc9565b10159392505050565b60008060008360000154866120689190612aee565b9050600061207e85600001548660010154611fc9565b9050600061208c8383611fc9565b90508089111561209e578094506120a2565b8894505b6000670de0b6b3a76400006120c86120ba8589612acf565b670de0b6b3a7640000612479565b6120d29190612aaf565b9050806120f15760405162461bcd60e51b8152600401610440906129e3565b808760000160008282546121059190612a97565b92505081905550858760010160008282546121209190612a97565b925050819055506121388989888a60010154876124a6565b94505050505094509492505050565b600080600085846000015161215c9190612aee565b9050808711156121ae5760405162461bcd60e51b815260206004820152601b60248201527f4d6174684c69623a20494e53554646494349454e545f444543415900000000006044820152606401610440565b808811156121be578092506121c2565b8792505b60006121d685602001518660000151611fc9565b90506000670de0b6b3a76400006121f06120ba8488612acf565b6121fa9190612aaf565b9050806122195760405162461bcd60e51b8152600401610440906129e3565b6000670de0b6b3a764000061222e8486612acf565b6122389190612aaf565b9050806122875760405162461bcd60e51b815260206004820152601760248201527f4d6174684c69623a204e4f5f51554f54455f44454341590000000000000000006044820152606401610440565b6122978989888a60000151612519565b9450505050509550959350505050565b6000806000806122c08a86600001548760010154612564565b905088811161232457868110156123195760405162461bcd60e51b815260206004820152601f60248201527f4d6174684c69623a20494e53554646494349454e545f51554f54455f515459006044820152606401610440565b899350809250612391565b60006123398a87600101548860000154612564565b90508881101561238b5760405162461bcd60e51b815260206004820152601e60248201527f4d6174684c69623a20494e53554646494349454e545f424153455f51545900006044820152606401610440565b93508892505b6123a086848760010154612622565b9150838560000160008282546123b69190612a97565b92505081905550828560010160008282546123d19190612a97565b925050819055505096509650969350505050565b60008060026123f5846001612a97565b6123ff9190612aaf565b90508291505b818110156124385790508060028161241d8186612aaf565b6124279190612a97565b6124319190612aaf565b9050612405565b50919050565b606061244d848460008561262f565b949350505050565b600081831061246f576124688284612aee565b90506103ed565b611ffd8383612aee565b60008180612488600282612aaf565b6124929086612a97565b61249c9190612aaf565b611ffd9190612acf565b6000806124b38784611fc9565b905060006124c18583612a97565b905060006124cf8783611fc9565b9050670de0b6b3a76400006125026124f06124ea838c612acf565b846126ff565b61204584670de0b6b3a7640000612aee565b61250c9190612aaf565b9998505050505050505050565b600080836125278785612a97565b6125319190612a97565b9050600061253f8583611fc9565b9050670de0b6b3a764000061255a6124f06124ea838a612acf565b611c359190612aaf565b6000836125b35760405162461bcd60e51b815260206004820152601960248201527f4d6174684c69623a20494e53554646494349454e545f515459000000000000006044820152606401610440565b82158015906125c157508115155b61260d5760405162461bcd60e51b815260206004820152601f60248201527f4d6174684c69623a20494e53554646494349454e545f4c4951554944495459006044820152606401610440565b826126188386612acf565b61244d9190612aaf565b6000816126188585612acf565b6060824710156126905760405162461bcd60e51b815260206004820152602660248201527f416464726573733a20696e73756666696369656e742062616c616e636520666f6044820152651c8818d85b1b60d21b6064820152608401610440565b600080866001600160a01b031685876040516126ac9190612994565b60006040518083038185875af1925050503d80600081146126e9576040519150601f19603f3d011682016040523d82523d6000602084013e6126ee565b606091505b5091509150611c358783838761271f565b6000670de0b6b3a7640000612715600282612aaf565b611fe98486612acf565b6060831561278b578251612784576001600160a01b0385163b6127845760405162461bcd60e51b815260206004820152601d60248201527f416464726573733a2063616c6c20746f206e6f6e2d636f6e74726163740000006044820152606401610440565b508161244d565b61244d83838151156127a05781518083602001fd5b8060405162461bcd60e51b815260040161044091906129b0565b6000602082840312156127cb578081fd5b8135611ffd81612b7c565b6000602082840312156127e7578081fd5b8151611ffd81612b7c565b60008060408385031215612804578081fd5b823561280f81612b7c565b9150602083013561281f81612b7c565b809150509250929050565b60008060006060848603121561283e578081fd5b833561284981612b7c565b9250602084013561285981612b7c565b929592945050506040919091013590565b6000806040838503121561287c578182fd5b823561288781612b7c565b946020939093013593505050565b6000602082840312156128a6578081fd5b81518015158114611ffd578182fd5b6000602082840312156128c6578081fd5b5051919050565b6000806000606084860312156128e1578283fd5b505081359360208301359350604090920135919050565b600080600080600060a0868803121561290f578081fd5b853594506020860135935060408601359250606086013561292f81612b7c565b949793965091946080013592915050565b60008060008060008060c08789031215612958578081fd5b86359550602087013594506040870135935060608701359250608087013561297f81612b7c565b8092505060a087013590509295509295509295565b600082516129a6818460208701612b05565b9190910192915050565b60208152600082518060208401526129cf816040850160208701612b05565b601f01601f19169190910160400192915050565b60208082526025908201527f4d6174684c69623a20494e53554646494349454e545f4348414e47455f494e5f604082015264444543415960d81b606082015260800190565b602080825260119082015270115e18da185b99d94e8811561412549151607a1b604082015260600190565b60208082526024908201527f4d6174684c69623a20494e53554646494349454e545f424153455f544f4b454e6040820152635f51545960e01b606082015260800190565b60008219821115612aaa57612aaa612b66565b500190565b600082612aca57634e487b7160e01b81526012600452602481fd5b500490565b6000816000190483118215151615612ae957612ae9612b66565b500290565b600082821015612b0057612b00612b66565b500390565b60005b83811015612b20578181015183820152602001612b08565b8381111561142b5750506000910152565b600181811c90821680612b4557607f821691505b6020821081141561243857634e487b7160e01b600052602260045260246000fd5b634e487b7160e01b600052601160045260246000fd5b6001600160a01b0381168114612b9157600080fd5b5056fea2646970667358221220eacc1a7704f595fb65f692d0b7c12b1f641ba4040ad12abbdf698c9b56d3cc2364736f6c63430008040033a2646970667358221220009c05dbb060bfabcb4f53761d8abb3282b5bc59cf74d7b0fefecba175b400cd64736f6c63430008040033","linkReferences":{}},"methodIdentifiers":{"createNewExchange(address,address)":"0a6b78ff","exchangeAddressByTokenAddress(address,address)":"8cc774ec","feeAddress()":"41275358","isValidExchangeAddress(address)":"1016954e","owner()":"8da5cb5b","renounceOwnership()":"715018a6","setFeeAddress(address)":"8705fcd4","transferOwnership(address)":"f2fde38b"},"id":39}