{"abi":[{"type":"constructor","inputs":[{"name":"name","type":"string","internalType":"string"},{"name":"symbol","type":"string","internalType":"string"},{"name":"initialSupply","type":"uint256","internalType":"uint256"},{"name":"owner","type":"address","internalType":"address"}],"stateMutability":"nonpayable"},{"type":"function","name":"BASIS_POINTS","inputs":[],"outputs":[{"name":"","type":"uint256","internalType":"uint256"}],"stateMutability":"view"},{"type":"function","name":"FEE_IN_BASIS_POINTS","inputs":[],"outputs":[{"name":"","type":"uint256","internalType":"uint256"}],"stateMutability":"view"},{"type":"function","name":"allowance","inputs":[{"name":"owner","type":"address","internalType":"address"},{"name":"spender","type":"address","internalType":"address"}],"outputs":[{"name":"","type":"uint256","internalType":"uint256"}],"stateMutability":"view"},{"type":"function","name":"approve","inputs":[{"name":"spender","type":"address","internalType":"address"},{"name":"amount","type":"uint256","internalType":"uint256"}],"outputs":[{"name":"","type":"bool","internalType":"bool"}],"stateMutability":"nonpayable"},{"type":"function","name":"balanceOf","inputs":[{"name":"account","type":"address","internalType":"address"}],"outputs":[{"name":"","type":"uint256","internalType":"uint256"}],"stateMutability":"view"},{"type":"function","name":"burn","inputs":[{"name":"amount","type":"uint256","internalType":"uint256"}],"outputs":[],"stateMutability":"nonpayable"},{"type":"function","name":"burnFrom","inputs":[{"name":"account","type":"address","internalType":"address"},{"name":"amount","type":"uint256","internalType":"uint256"}],"outputs":[],"stateMutability":"nonpayable"},{"type":"function","name":"decimals","inputs":[],"outputs":[{"name":"","type":"uint8","internalType":"uint8"}],"stateMutability":"view"},{"type":"function","name":"decreaseAllowance","inputs":[{"name":"spender","type":"address","internalType":"address"},{"name":"subtractedValue","type":"uint256","internalType":"uint256"}],"outputs":[{"name":"","type":"bool","internalType":"bool"}],"stateMutability":"nonpayable"},{"type":"function","name":"increaseAllowance","inputs":[{"name":"spender","type":"address","internalType":"address"},{"name":"addedValue","type":"uint256","internalType":"uint256"}],"outputs":[{"name":"","type":"bool","internalType":"bool"}],"stateMutability":"nonpayable"},{"type":"function","name":"name","inputs":[],"outputs":[{"name":"","type":"string","internalType":"string"}],"stateMutability":"view"},{"type":"function","name":"owner","inputs":[],"outputs":[{"name":"","type":"address","internalType":"address"}],"stateMutability":"view"},{"type":"function","name":"renounceOwnership","inputs":[],"outputs":[],"stateMutability":"nonpayable"},{"type":"function","name":"symbol","inputs":[],"outputs":[{"name":"","type":"string","internalType":"string"}],"stateMutability":"view"},{"type":"function","name":"totalSupply","inputs":[],"outputs":[{"name":"","type":"uint256","internalType":"uint256"}],"stateMutability":"view"},{"type":"function","name":"transfer","inputs":[{"name":"recipient","type":"address","internalType":"address"},{"name":"amount","type":"uint256","internalType":"uint256"}],"outputs":[{"name":"","type":"bool","internalType":"bool"}],"stateMutability":"nonpayable"},{"type":"function","name":"transferFrom","inputs":[{"name":"sender","type":"address","internalType":"address"},{"name":"recipient","type":"address","internalType":"address"},{"name":"amount","type":"uint256","internalType":"uint256"}],"outputs":[{"name":"","type":"bool","internalType":"bool"}],"stateMutability":"nonpayable"},{"type":"function","name":"transferOwnership","inputs":[{"name":"newOwner","type":"address","internalType":"address"}],"outputs":[],"stateMutability":"nonpayable"},{"type":"event","name":"Approval","inputs":[{"name":"owner","type":"address","indexed":true,"internalType":"address"},{"name":"spender","type":"address","indexed":true,"internalType":"address"},{"name":"value","type":"uint256","indexed":false,"internalType":"uint256"}],"anonymous":false},{"type":"event","name":"OwnershipTransferred","inputs":[{"name":"previousOwner","type":"address","indexed":true,"internalType":"address"},{"name":"newOwner","type":"address","indexed":true,"internalType":"address"}],"anonymous":false},{"type":"event","name":"Transfer","inputs":[{"name":"from","type":"address","indexed":true,"internalType":"address"},{"name":"to","type":"address","indexed":true,"internalType":"address"},{"name":"value","type":"uint256","indexed":false,"internalType":"uint256"}],"anonymous":false}],"bytecode":{"object":"0x60806040523480156200001157600080fd5b50604051620011333803806200113383398101604081905262000034916200031a565b838383838383816003908051906020019062000052929190620001c1565b50805162000068906004906020840190620001c1565b5050506200007d8183620000a560201b60201c565b505050506200009b620000956200016b60201b60201c565b6200016f565b5050505062000423565b6001600160a01b038216620001005760405162461bcd60e51b815260206004820152601f60248201527f45524332303a206d696e7420746f20746865207a65726f206164647265737300604482015260640160405180910390fd5b8060026000828254620001149190620003ab565b90915550506001600160a01b038216600081815260208181526040808320805486019055518481527fddf252ad1be2c89b69c2b068fc378daa952ba7f163c4a11628f55a4df523b3ef910160405180910390a35050565b3390565b600580546001600160a01b038381166001600160a01b0319831681179093556040519116919082907f8be0079c531659141344cd1fd0a4f28419497f9722a3daafe3b4186f6b6457e090600090a35050565b828054620001cf90620003d0565b90600052602060002090601f016020900481019282620001f357600085556200023e565b82601f106200020e57805160ff19168380011785556200023e565b828001600101855582156200023e579182015b828111156200023e57825182559160200191906001019062000221565b506200024c92915062000250565b5090565b5b808211156200024c576000815560010162000251565b600082601f83011262000278578081fd5b81516001600160401b03808211156200029557620002956200040d565b604051601f8301601f19908116603f01168101908282118183101715620002c057620002c06200040d565b81604052838152602092508683858801011115620002dc578485fd5b8491505b83821015620002ff5785820183015181830184015290820190620002e0565b838211156200031057848385830101525b9695505050505050565b6000806000806080858703121562000330578384fd5b84516001600160401b038082111562000347578586fd5b620003558883890162000267565b955060208701519150808211156200036b578485fd5b506200037a8782880162000267565b60408701516060880151919550935090506001600160a01b0381168114620003a0578182fd5b939692955090935050565b60008219821115620003cb57634e487b7160e01b81526011600452602481fd5b500190565b600181811c90821680620003e557607f821691505b602082108114156200040757634e487b7160e01b600052602260045260246000fd5b50919050565b634e487b7160e01b600052604160045260246000fd5b610d0080620004336000396000f3fe608060405234801561001057600080fd5b50600436106101165760003560e01c806379cc6790116100a2578063a9059cbb11610071578063a9059cbb14610232578063dd62ed3e14610245578063e1f1c4a714610258578063ebc6896814610261578063f2fde38b1461026957600080fd5b806379cc6790146101e95780638da5cb5b146101fc57806395d89b4114610217578063a457c2d71461021f57600080fd5b8063313ce567116100e9578063313ce56714610181578063395093511461019057806342966c68146101a357806370a08231146101b8578063715018a6146101e157600080fd5b806306fdde031461011b578063095ea7b31461013957806318160ddd1461015c57806323b872dd1461016e575b600080fd5b61012361027c565b6040516101309190610bb8565b60405180910390f35b61014c610147366004610b77565b61030e565b6040519015158152602001610130565b6002545b604051908152602001610130565b61014c61017c366004610b3c565b610326565b60405160128152602001610130565b61014c61019e366004610b77565b6103f5565b6101b66101b1366004610ba0565b610412565b005b6101606101c6366004610ae9565b6001600160a01b031660009081526020819052604090205490565b6101b6610420565b6101b66101f7366004610b77565b610434565b6005546040516001600160a01b039091168152602001610130565b61012361044d565b61014c61022d366004610b77565b61045c565b61014c610240366004610b77565b6104e2565b610160610253366004610b0a565b610517565b61016061271081565b610160601e81565b6101b6610277366004610ae9565b610542565b60606003805461028b90610c79565b80601f01602080910402602001604051908101604052809291908181526020018280546102b790610c79565b80156103045780601f106102d957610100808354040283529160200191610304565b820191906000526020600020905b8154815290600101906020018083116102e757829003601f168201915b5050505050905090565b60003361031c8185856105b8565b5060019392505050565b600080612710610337601e85610c43565b6103419190610c23565b905061035785856103528487610c62565b6106dd565b6103618582610883565b600061036d8633610517565b9050838110156103d55760405162461bcd60e51b815260206004820152602860248201527f45524332303a207472616e7366657220616d6f756e74206578636565647320616044820152676c6c6f77616e636560c01b60648201526084015b60405180910390fd5b6103e986336103e48785610c62565b6105b8565b50600195945050505050565b60003361031c8185856104088383610517565b6103e49190610c0b565b61041d335b82610883565b50565b6104286109ad565b6104326000610a07565b565b61043f823383610a59565b6104498282610883565b5050565b60606004805461028b90610c79565b6000338161046a8286610517565b9050838110156104ca5760405162461bcd60e51b815260206004820152602560248201527f45524332303a2064656372656173656420616c6c6f77616e63652062656c6f77604482015264207a65726f60d81b60648201526084016103cc565b6104d782868684036105b8565b506001949350505050565b6000806127106104f3601e85610c43565b6104fd9190610c23565b905061050e33856103528487610c62565b61031c33610417565b6001600160a01b03918216600090815260016020908152604080832093909416825291909152205490565b61054a6109ad565b6001600160a01b0381166105af5760405162461bcd60e51b815260206004820152602660248201527f4f776e61626c653a206e6577206f776e657220697320746865207a65726f206160448201526564647265737360d01b60648201526084016103cc565b61041d81610a07565b6001600160a01b03831661061a5760405162461bcd60e51b8152602060048201526024808201527f45524332303a20617070726f76652066726f6d20746865207a65726f206164646044820152637265737360e01b60648201526084016103cc565b6001600160a01b03821661067b5760405162461bcd60e51b815260206004820152602260248201527f45524332303a20617070726f766520746f20746865207a65726f206164647265604482015261737360f01b60648201526084016103cc565b6001600160a01b0383811660008181526001602090815260408083209487168084529482529182902085905590518481527f8c5be1e5ebec7d5bd14f71427d1e84f3dd0314c0f7b2291e5b200ac8c7c3b92591015b60405180910390a3505050565b6001600160a01b0383166107415760405162461bcd60e51b815260206004820152602560248201527f45524332303a207472616e736665722066726f6d20746865207a65726f206164604482015264647265737360d81b60648201526084016103cc565b6001600160a01b0382166107a35760405162461bcd60e51b815260206004820152602360248201527f45524332303a207472616e7366657220746f20746865207a65726f206164647260448201526265737360e81b60648201526084016103cc565b6001600160a01b0383166000908152602081905260409020548181101561081b5760405162461bcd60e51b815260206004820152602660248201527f45524332303a207472616e7366657220616d6f756e7420657863656564732062604482015265616c616e636560d01b60648201526084016103cc565b6001600160a01b03848116600081815260208181526040808320878703905593871680835291849020805487019055925185815290927fddf252ad1be2c89b69c2b068fc378daa952ba7f163c4a11628f55a4df523b3ef910160405180910390a35b50505050565b6001600160a01b0382166108e35760405162461bcd60e51b815260206004820152602160248201527f45524332303a206275726e2066726f6d20746865207a65726f206164647265736044820152607360f81b60648201526084016103cc565b6001600160a01b038216600090815260208190526040902054818110156109575760405162461bcd60e51b815260206004820152602260248201527f45524332303a206275726e20616d6f756e7420657863656564732062616c616e604482015261636560f01b60648201526084016103cc565b6001600160a01b0383166000818152602081815260408083208686039055600280548790039055518581529192917fddf252ad1be2c89b69c2b068fc378daa952ba7f163c4a11628f55a4df523b3ef91016106d0565b6005546001600160a01b031633146104325760405162461bcd60e51b815260206004820181905260248201527f4f776e61626c653a2063616c6c6572206973206e6f7420746865206f776e657260448201526064016103cc565b600580546001600160a01b038381166001600160a01b0319831681179093556040519116919082907f8be0079c531659141344cd1fd0a4f28419497f9722a3daafe3b4186f6b6457e090600090a35050565b6000610a658484610517565b9050600019811461087d5781811015610ac05760405162461bcd60e51b815260206004820152601d60248201527f45524332303a20696e73756666696369656e7420616c6c6f77616e636500000060448201526064016103cc565b61087d84848484036105b8565b80356001600160a01b0381168114610ae457600080fd5b919050565b600060208284031215610afa578081fd5b610b0382610acd565b9392505050565b60008060408385031215610b1c578081fd5b610b2583610acd565b9150610b3360208401610acd565b90509250929050565b600080600060608486031215610b50578081fd5b610b5984610acd565b9250610b6760208501610acd565b9150604084013590509250925092565b60008060408385031215610b89578182fd5b610b9283610acd565b946020939093013593505050565b600060208284031215610bb1578081fd5b5035919050565b6000602080835283518082850152825b81811015610be457858101830151858201604001528201610bc8565b81811115610bf55783604083870101525b50601f01601f1916929092016040019392505050565b60008219821115610c1e57610c1e610cb4565b500190565b600082610c3e57634e487b7160e01b81526012600452602481fd5b500490565b6000816000190483118215151615610c5d57610c5d610cb4565b500290565b600082821015610c7457610c74610cb4565b500390565b600181811c90821680610c8d57607f821691505b60208210811415610cae57634e487b7160e01b600052602260045260246000fd5b50919050565b634e487b7160e01b600052601160045260246000fdfea2646970667358221220494cc9cbdd84482c3c0336ef1df76aec541096a8883dfd18e6d1f78e2675eaec64736f6c63430008040033","linkReferences":{}},"methodIdentifiers":{"BASIS_POINTS()":"e1f1c4a7","FEE_IN_BASIS_POINTS()":"ebc68968","allowance(address,address)":"dd62ed3e","approve(address,uint256)":"095ea7b3","balanceOf(address)":"70a08231","burn(uint256)":"42966c68","burnFrom(address,uint256)":"79cc6790","decimals()":"313ce567","decreaseAllowance(address,uint256)":"a457c2d7","increaseAllowance(address,uint256)":"39509351","name()":"06fdde03","owner()":"8da5cb5b","renounceOwnership()":"715018a6","symbol()":"95d89b41","totalSupply()":"18160ddd","transfer(address,uint256)":"a9059cbb","transferFrom(address,address,uint256)":"23b872dd","transferOwnership(address)":"f2fde38b"},"id":41}