{"abi":[{"type":"function","name":"BASIS_POINTS","inputs":[],"outputs":[{"name":"","type":"uint256","internalType":"uint256"}],"stateMutability":"view"},{"type":"function","name":"WAD","inputs":[],"outputs":[{"name":"","type":"uint256","internalType":"uint256"}],"stateMutability":"view"}],"bytecode":{"object":"0x60a0610038600b82828239805160001a607314602b57634e487b7160e01b600052600060045260246000fd5b30600052607381538281f3fe7300000000000000000000000000000000000000003014608060405260043610603d5760003560e01c80636a146024146042578063e1f1c4a7146062575b600080fd5b6050670de0b6b3a764000081565b60405190815260200160405180910390f35b60506127108156fea26469706673582212204e0298159fc37ed35d26e4c4aaf98217219fc9346a7a4c6f1456bf08d863fbd564736f6c63430008040033","linkReferences":{}},"methodIdentifiers":{"BASIS_POINTS()":"e1f1c4a7","WAD()":"6a146024"},"id":44}